:020000040800F2
:1000000088090224B10200080F430008AD3C000833
:100010000D4300081109000801530008000000000A
:100020000000000000000000000000007D45000806
:10003000730A000800000000114300087F45000813
:10004000CB020008CB020008CB020008CB0200085C
:10005000CB020008CB020008CB020008CB0200084C
:10006000CB0200088B0A0008CB020008CB02000874
:10007000CB020008CB020008CB020008CB0200082C
:10008000CB020008CB020008CB020008CB0200081C
:10009000CB020008CB020008CB020008CB0200080C
:1000A000CB020008CB020008CB020008CB020008FC
:1000B000CB020008CB020008CB020008CB020008EC
:1000C000CB020008CB020008CB020008CB020008DC
:1000D000CB020008CB020008CB020008CB020008CC
:1000E000750A0008CB02000800000000CB020008DF
:1000F000CB020008CB020008CB020008CB020008AC
:10010000CB020008CB020008CB020008CB0200089B
:1001100041480008CB020008CB020008CB020008CF
:10012000CB020008CB020008CB020008CB0200087B
:10013000CB020008CB020008CB020008CB0200086B
:1001400000000000000000000000000000000000AF
:10015000CB020008CB020008CB020008CB0200084B
:10016000CB020008CB020008CB020008CB0200083B
:10017000CB020008CB020008CB020008CB0200082B
:10018000CB020008CB020008CB020008CB0200081B
:10019000CB020008CB020008CB020008CB0200080B
:1001A000CB020008CB020008CB020008CB020008FB
:1001B000CB020008CB020008CB020008CB020008EB
:1001C000CB020008CB020008CB020008CB020008DB
:1001D000CB020008CB020008CB020008CB020008CB
:1001E000CB020008CB020008CB020008CB020008BB
:1001F000CB020008CB020008CB020008CB020008AB
:10020000CB020008CB020008CB020008CB0200089A
:10021000CB020008CB020008CB020008CB0200088A
:10022000CB020008CB020008CB020008000000004F
:10023000CB020008CB02000800000000CB0200083F
:10024000CB020008CB020008CB020008CB0200085A
:10025000CB020008CB020008CB020008CB0200084A
:10026000CB020008CB020008CB020008CB0200083A
:10027000CB020008CB020008CB02000800000000FF
:10028000CB020008CB020008CB02000800000000EF
:1002900000000000CB020008DFF810D000F04AFA9E
:1002A00000480047995E0008AFF3008088090224E7
:1002B0000648804706480047FEE7FEE7FEE7FEE700
:1002C000FEE7FEE7FEE7FEE7FEE7FEE73146000851
:1002D000990200082DE9F05F0546002092469B46F2
:1002E00088460646814640241BE02846414647464C
:1002F000224600F057F853465A46C01A914110D38F
:1003000011461846224600F03EF82D1A67EB010808
:100310004F4622460120002100F035F817EB000976
:100320004E41201EA4F10104DFDC484631462A4636
:100330004346BDE8F09FD2B201E000F8012B491E10
:10034000FBD270470022F6E710B513460A46044672
:100350001946FFF7F0FF204610BD30B50B460146A9
:1003600000202022012409E021FA02F59D4205D354
:1003700003FA02F5491B04FA02F52844151EA2F1FE
:100380000102F1DC30BD202A04DB203A00FA02F140
:10039000002070479140C2F1200320FA03F3194373
:1003A00090407047202A04DB203A21FA02F0002115
:1003B000704721FA02F3D040C2F120029140084375
:1003C000194670472DE9FE4F804681EA0300C00FB1
:1003D0000C46009021F0004123F00045B8EB0200EC
:1003E000A94105D24046214690461C460B4602468E
:1003F00023F00040104347D0270DC7F30A00C3F392
:100400000A510290401A019040286BDAC3F313009E
:1004100040F4801B0098924620B10023D2EB030ADF
:1004200063EB0B0B01985946C0F140025046FFF7B1
:10043000AAFF06460D4650465946019A00F08CF92F
:1004400010EB08006141002487EA115284EAE77347
:100450001A4340D0009A62B3019A012A4FEA075228
:1004600015DC001B61EB02014FF0004202EA07526B
:10047000CDE90042001C41F5801132462B4600F0C8
:100480008CF903B0BDE8F08F40462146F9E7001B28
:1004900061EB0201001C41F5801300185B4120183C
:1004A000A2F5001747EB030140EAD570B6196D417C
:1004B00011E06D084FEA360645EAC0754FEA07526B
:1004C000001B61EB0201001C41F5801149084FEA55
:1004D00030000019514132462B4603B0BDE8F04FC1
:1004E00000F04CB90098012240000023D0EB02023A
:1004F00063EBE073009821464FEAE074B8EB00002C
:1005000061EB0401E9E783F000435BE781F0004120
:1005100058E72DE9FE4F81EA030404F0004421F07E
:10052000004100944FF0000B23F0004350EA010417
:100530005ED052EA03045BD0C3F30A54C1F30A55F8
:100540002C44A4F2F3340194A0FB0254C1F3130130
:1005500041F48011C3F3130343F4801301FB0244FD
:1005600000FB034E840A970A44EA815447EA835702
:10057000A4FB076802958D0A05FB07854FEA932CBB
:1005800004FB0C542705029D4FEA065847EA16372C
:10059000B5EB08056EEB070C870E920E47EA811744
:1005A00042EA8312A7FB0201B6EB0B0164EB0004E5
:1005B0002B0D43EA0C335E1844EB1C50DA465146CF
:1005C000E7FB0201C5F313044FEA0B3343EA14536C
:1005D0004FEA0432019C43EA0603A4F10C0402949E
:1005E000009CCDE900B400F0D8F803B0BDE8F08F6E
:1005F00000200146F9E72DE9F04D81EA030404F0FB
:10060000004B21F0004514464FF0000A23F0004152
:1006100050EA050220D054EA01021DD0C5F30A5762
:100620000246C5F31303C1F31300C1F30A5640F4A5
:10063000801543F48013A7EB0608101BD64608F27A
:10064000FD3873EB050002D308F1010801E09218B0
:100650005B41B8F1000F03DA00200146BDE8F08DE0
:1006600000204FF48011064684460EE0171B73EB02
:10067000050705D3121B63EB050306434CEA010C87
:1006800049084FEA300092185B4150EA0107EDD16A
:1006900052EA030012D082EA040083EA050108430B
:1006A00005D0101BAB4106D20122002306E0002238
:1006B0004FF0004302E06FF0010253101AEB060006
:1006C0004CEB085110EB0A0041EB0B01BDE8F04D7B
:1006D00000F054B8C1F30A52C1F3130140F2FF33E2
:1006E00041F480119A4202DA00200146704740F23C
:1006F00033439A42A2F2334202DC5242FFF752BE27
:10070000FFF741BE30B5041E71F1000404DB4FF069
:100710000044404264EB0101141E73F1000405DB48
:100720001C464FF00043524263EB0403994208BF5A
:10073000904230BD064C074D06E0E06840F00103F2
:1007400094E8070098471034AC42F6D3FFF7A8FDB1
:100750007861000898610008202A06DBCB17203A50
:1007600041FA02F043EAE07306E041FA02F3D040B6
:10077000C2F12002914008431946704710B5141E7B
:1007800073F1000408DA401C41F1000192185B414A
:100790001A4301D120F0010010BD2DE9F04D924621
:1007A0009B4611B1B1FA81F202E0B0FA80F2203238
:1007B0009046FFF7E8FD04460F4640EA0A0041EA8A
:1007C0000B0153465A46084313D0114653EA010021
:1007D00019D0C8F140025046FFF7E4FD05460E4629
:1007E000504659464246FFF7CEFD084305D001204A
:1007F00004E020463946BDE8F08D0020054346EA76
:10080000E0762C4337430A986305E40AA0EB08001E
:100810000022FD0A44EA47540A3002D5002001466E
:10082000E9E7010510196941DDE908450019694149
:10083000BDE8F04DA2E770B58C1810F8015B15F01B
:10084000070301D110F8013B2A1106D110F8012B42
:1008500003E010F8016B01F8016B5B1EF9D12B0767
:1008600005D40023521E0DD401F8013BFAE710F81D
:10087000013BCB1A921C03E013F8015B01F8015B0A
:10088000521EF9D5A142D8D3002070BD70B50E46D6
:100890001C4681B21546002004F096FDB1B201203D
:1008A00004F092FDA9B2022004F08EFDA1B2BDE8D1
:1008B0007040032004F088BD70B50C461D461646F6
:1008C0000146002004F0E8FD0120214604F0E4FD8B
:1008D0000220314604F0E0FD2946BDE870400320C7
:1008E00004F0DABD70B50E461C4681B215460020F4
:1008F00004F098FDB1B2012004F094FDA9B20220E9
:1009000004F090FDA1B2BDE87040032004F08ABD60
:10091000FEE710B5044603F093FAE1094020C1F365
:10092000440140EA410003F051FA03F0DFFAE0B27B
:1009300003F04CFA03F0DAFABDE8104003F0AABA6B
:10094000044B4FF4905202EB00220A43195490B228
:10095000FFF7DFBF3F020024C10406D50621044A89
:1009600001EB102101F007015054FFF7D2BF000046
:100970003F0200240D4A01280AD002280CD0032887
:100980000ED0042810D1505C40F4B850FFF7E4BFFB
:10099000505C40F4A050F9E7505C40F4A850F5E7F3
:1009A000505C40F4B050F1E7704700006861000807
:1009B00070B5002403F044FA4F2003F007FA03F067
:1009C00095FA002003F0C8F9054603F063FA443DA8
:1009D0001C2D2CD2DFE805F02B0E10122B2B2B2B0D
:1009E0001416181A2B2B2B2B1C1E20222B2B2B2BD7
:1009F0002426282A01241AE0022418E0032416E001
:100A0000042414E0052412E0062410E007240EE07C
:100A100008240CE009240AE00A2408E00B2406E07C
:100A20000C2404E00D2402E00E2400E00F242046F4
:100A300070BD10B5002400212046FFF781FF641C23
:100A4000E4B2062CF7D340F20340FFF785FF012103
:100A50000846FFF78FFF02210846FFF78BFF0321AF
:100A60000846FFF787FF0421BDE810400846FFF75E
:100A700081BF70474FF4805010B500F06DFFBDE8A6
:100A800010404FF4005000F067BF082000F064BF32
:100A900072B6FEE72DE9F0470446407990460E46CF
:100AA00001280BD04FF0010984F805900221217133
:100AB000316808F01005042903D049E00220BDE8A0
:100AC000F08701F07DF8B8F1000F07464FF00308FA
:100AD00006D020E001F074F8C01B012802D912E012
:100AE000DFF800A12068406B10EA0A0FF2D1012064
:100AF00000F0EEFB2168B069086416E001F060F8D0
:100B0000C01B012807D9216941F00801216184F83F
:100B100004800320D3E72068406B0028EEDB01202F
:100B200000F0D6FB2168B069486440F2FF332168C9
:100B3000F269AB40886CAA409843104388642068EF
:100B4000FF22336AAA40C16CAB4091431943C16490
:100B50003069012808D122681F237169906BAB406E
:100B6000A94098430143916323680721F068DA6B39
:100B7000A940012822EA010203D002282FD0B06840
:100B800068B30021D6F8088030684FF4804C40F6F6
:100B9000FE7740EA080008430CFA05FCAF40A84085
:100BA000C02110434A46D8634FF000082068A9408E
:100BB000036823EA0C030360D4F800C07068DCF813
:100BC0000030A840BB431843CCF8000020680368FD
:100BD0008B4303602271002084F805806FE70121B8
:100BE000D0E700000080002070B5040003D0207919
:100BF000002510B105E0012070BD2046657100F0B0
:100C000007F802212171012025612071002070BDAB
:100C100010B586B0044614216846FFF793FB1149CE
:100C2000206888421BD11048016841F000510160E2
:100C3000006800F0005005900B480838016841F04A
:100C40000101016000680321002200F0010005900D
:100C500010208DE807000548694600F089FE06B0BF
:100C600010BD000000740040E84402580000025823
:100C700008B50029016800910068104404D01430C0
:100C800000900360002008BD0830F9E7F0B5427914
:100C9000012A1DD00122427102230371066801F06E
:100CA000100402FA04F537682F4337600029016801
:100CB00010D00D68A34005F478149C4203D14B6812
:100CC00043F002034B600021027141710846F0BD00
:100CD0000220F0BD0B68C3F34403012BF3D14B6832
:100CE00043F00103EEE700002DE9F84F044600F061
:100CF00067FF002C009008D094F83500022805D03A
:100D000080216165002084F83400E3E0C84DC84EBE
:100D1000C749183520683036DFF81883DFF8189394
:100D20008842DFF818A3DFF818B32ED0A8422CD0E1
:100D3000B0422AD0404528D0484526D0504524D03E
:100D4000584522D0BE4A183290421ED0BD4A904229
:100D50001BD0BC4A1832904217D0BA4A3032904267
:100D600013D0B84A483290420FD0B64A603290420F
:100D70000BD0B44A7832904207D0B24A90329042B7
:100D800003D0B04AA832904209D1026822F01E0274
:100D900002602068426922F08002426103E002683A
:100DA00022F00E02026027688F4238464DD0A842DA
:100DB0004BD0B04249D0404547D0484545D050453A
:100DC00043D0584541D09E4A183290423DD09D4A6A
:100DD00090423AD09B4A1832904236D0994A3032EB
:100DE000904232D0974A483290422ED0954A603293
:100DF00090422AD0934A7832904226D0914A90323B
:100E0000904222D08F4AA83290421ED08E4A904201
:100E10001BD08D4A1432904217D08B4A2832904210
:100E200013D0894A3C3290420FD0874A50329042C8
:100E30000BD0854A6432904207D0834A7832904280
:100E400003D0814A8C32974204D1206E026822F48A
:100E50008072026076492068884228D0A84226D055
:100E6000B04224D0404522D0484520D050451ED025
:100E700058451CD072491831884218D071498842AF
:100E800015D070491831884211D06E4930318842EE
:100E90000DD06C494831884209D06A496031884296
:100EA00005D068497831884201D06649903101689F
:100EB00021F00101016010E000F082FE0099401A6B
:100EC00005280AD9202262650020032184F8340015
:100ED00084F835100120BDE8F88F3868C007EBD1E1
:100EE000534A0121206890422ED0A8422CD0B04213
:100EF0002AD0404528D0484526D0504524D05845D2
:100F000022D04F4B183398421ED04E4B98421BD0E4
:100F10004C4B1833984217D04A4B3033984213D079
:100F2000484B483398420FD0464B603398420BD021
:100F3000444B7833984207D0424B9033984203D0C9
:100F4000404BA833984208D194F85C703F23A06DC1
:100F500007F01F07BB40836007E094F85C30A06D8A
:100F600003F01F0301FA03F34360206890424DD061
:100F7000A8424BD0B04249D0404547D0484545D023
:100F8000504543D0584541D02D4A183290423DD06B
:100F90002C4A90423AD02B4A1832904236D0294AF5
:100FA0003032904232D0274A483290422ED0254AE1
:100FB000603290422AD0234A7832904226D0214A89
:100FC0009032904222D01F4AA83290421ED01E4A30
:100FD00090421BD01C4A1432904217D01A4A283231
:100FE000904213D0184A3C3290420FD0164A5032E9
:100FF00090420BD0144A6432904207D0124A7832A1
:10100000904203D0104A8C3290420BD1D4E919029D
:101010004260E06E30B1026822F480720260D4E96E
:101020001C024260002084F8340084F8351052E736
:101030001000024058000240700002408800024048
:10104000A000024010040240085402582DE9F05F4D
:1010500028B190F83510022904D080214165012083
:10106000BDE8F09F904C904B0168183C18338E4AB5
:10107000DFF83C92A1428D4CDFF838E28E4FDFF86A
:101080003CB2DFF83CA28F4D8F4E31D091422FD031
:1010900099422DD0A1422BD0494529D0714527D066
:1010A000B94225D0DFF810C20CF1180C61451FD0F1
:1010B000DFF808C2ACF1600C614519D0DFF8FCC163
:1010C000ACF1480C614513D0DFF8F0C1ACF1300C45
:1010D00061450DD0DFF8E4C1ACF1180C614507D0D3
:1010E000594505D0514503D0A94201D0B1422CD178
:1010F000DFF8B4C14FF0040880F83580ACF1180C6B
:1011000061451DD091421BD0994219D0A14217D000
:10111000494515D0714513D0B94211D066481830F1
:1011200081420DD065486038814209D06348483813
:10113000814205D061483038814201D05F4818387B
:10114000086820F001000860ABE0D1F800C02CF086
:101150000E08DFF854C1C1F80080ACF1180C01682A
:10116000614527D0914225D0994223D0A14221D078
:1011700049451FD071451DD0B9421BD0DFF838C199
:101180000CF1180C614515D0DFF830C1ACF1600CE2
:1011900061450FD0DFF824C1ACF1480C614509D09E
:1011A000DFF818C1ACF1300C614503D0DFF80CC199
:1011B000ACF1180CD1F800C02CF0010CC1F800C043
:1011C000DFF8E4804FF0010C0168A8F118084145F0
:1011D00046D0914244D0994242D0A14240D04945A4
:1011E0003ED071453CD0B9423AD0334A1832914290
:1011F00036D0324A603A914232D0304A483A91422F
:101200002ED02E4A303A91422AD02C4A183A914296
:1012100026D0594524D0514522D0A94220D0B142F0
:101220001ED02A4A91421BD0284A1432914217D02C
:10123000264A2832914213D0244A3C3291420FD0A0
:10124000224A503291420BD0204A6432914207D058
:101250001E4A7832914203D01C4A8C32914218D1F6
:10126000016E0A6822F480720A6090F85C20816D39
:1012700002F01F020CFA02F24A60D0E919124A6029
:10128000C16E31B10A6822F480720A60D0E91C1282
:101290004A600022016D80F8342080F835C001B129
:1012A00088470020DCE60000280002405800024089
:1012B0007000024088000240A0000240700402401A
:1012C00088040240A0040240B804024008540258B6
:1012D00070B5044600F074FC0546601C02D004485A
:1012E0000078044400F06CFC401BA042FAD370BDAF
:1012F0000C0200242DE9F05F2DED028B0746322011
:10130000FFF7E6FFFB480026FB4C4FF48051FB4DF6
:101310008F4210D100F044FC00287DD101222846E4
:10132000402100F042FC00222846082100F03DFC4C
:10133000F3A0267125E0082F4FF001080FD0B7F574
:10134000005F69D1F449A1F80080FFF731FBF34F4A
:10135000DFF8A48308F12C083870C0B171E00821CF
:1013600000F01EFC002857D100222846402100F042
:101370001CFC01222846082100F017FCE8A084F894
:101380000480BDEC028BBDE8F05F04F0C9B82079A1
:101390004FF00909A0B900222846402100F005FCC1
:1013A0006420FFF795FF01222846402100F0FDFB55
:1013B0006078411E002901DD617001E020B1667096
:1013C0002079012803D01AE084F80190F8E7002280
:1013D0002846082100F0E9FB6420FFF779FF01228D
:1013E0002846082100F0E1FB60780146401C0928EE
:1013F00001D2607003E009292ED084F80190217891
:101400006278D4ED080A01EB810108EBC10050F8C5
:10141000220000EE100A00E07DE2B8EE400AA38947
:10142000618920EE200ABCEEC00A10EE102AFFF7F8
:101430002DFA60786421401C10FB01F1BEA004F07D
:101440006FF8B9469FEDC18ADFEDC18A99F80000B7
:101450000627012802D069E06670D0E72079A8B994
:1014600000222846402100F0A0FB6420FFF730FF57
:1014700001222846402100F098FBE0780146401EFA
:10148000002801DDE07001E021B1E670207901283B
:1014900002D017E0E770F9E700222846082100F0A3
:1014A00084FB6420FFF714FF01222846082100F086
:1014B0007CFBE078411C062901D2E17002E006289D
:1014C0003ED0E770E078A44A94ED051A02EB800064
:1014D000A049D0ED000A81EE200A10EE100A84ED3A
:1014E000060A884201DD84ED068A94ED060A002290
:1014F0009A481146C0EE080A20EEA80ABCEEC00ABF
:1015000010EE103AE361FFF7B3FB94ED060A94A0E6
:10151000B7EEC00A53EC102B04F002F8E078C01CC0
:1015200000EB8000410093A003F0FAFFCA46DFF809
:1015300058929AF800004FEA490B022802D063E063
:10154000E670BFE72079C8B900222846402100F0A4
:101550002CFB6420FFF7BCFE01222846402100F04E
:1015600024FB894A2169894852420A44824201D9AE
:10157000226103E0814200D1854820612079012861
:1015800019D100222846082100F00FFB6420FFF744
:101590009FFE01222846082100F007FB22697C49B2
:1015A00002EB0900884201D2206104E08A4201D1A5
:1015B0007648F9E72161594622695B461046FFF7F4
:1015C0007BF92169B1FBF9F01E38C0B22070627856
:1015D00000EB8001A389D4ED080A08EBC100618902
:1015E00050F8220000EE100AB8EE400A20EE200A61
:1015F000BCEEC00A10EE102AFFF748F9216965A079
:10160000B1FBF9F103F08CFF9AF80000032844D1F4
:101610002079A8B900222846402100F0C6FA6420AB
:10162000FFF756FE01222846402100F0BEFAE0886E
:101630000146801E002801DDE08001E021B1E68046
:101640002079012802D01AE01420F5E7002228466C
:10165000082100F0AAFA6420FFF73AFE012228468A
:10166000082100F0A2FAE0880146801C142801D26B
:10167000E08004E0142901D01420F9E7E680E18835
:1016800035480C3800EB510000784000208102F012
:10169000FFFAE18845A003F043FF9AF80000042810
:1016A0000CD100222846402100F07FFA6420FFF789
:1016B0000FFE01222846402100F077FA9AF8000038
:1016C000052816D1207998B900222846402100F03B
:1016D0006CFA6420FFF7FCFD01222846402100F04F
:1016E00064FAA0780146401E00286ADDA0706AE016
:1016F00069E093E00008025800000024000C025842
:101700007431322E7478743D222D206D6F64652003
:1017100022FFFFFF000000003C0200243E020024E4
:101720007431322E7478743D222B206D6F646520E5
:1017300022FFFFFF0000000074362E7478743D22F3
:101740002564206D5622FFFFFF0000003333534015
:1017500000F07F4533335340F00100244C02002455
:101760007431332E7478743D22256620562022FF72
:10177000FFFF000074372E7478743D222564202505
:10178000252022FFFFFF000040420F0080C3C90157
:10179000005A620274382E7478743D222564204DFC
:1017A000487A202022FFFFFF0000000074392E74C9
:1017B00078743D22256420644222FFFFFF00000070
:1017C000FFE721B1A6702079012802D017E0A770A9
:1017D000F9E700222846082100F0E7F96420FFF726
:1017E00077FD01222846082100F0DFF9A078411C8E
:1017F000062901D2A17002E0062814D0A7700022A9
:10180000A1784748435C11461046FFF76BF8A07873
:10181000C0EB0010410043A003F082FE9AF80000E4
:101820000F2802D071E0A670E9E72F460025384660
:101830000122402100F0B9F901223846082100F0C8
:10184000B4F96420FFF744FD00223846402100F03F
:10185000ACF900223846082100F0A7F96420FFF710
:1018600037FD6D1CEDB2032DE1D302202071B0EEE7
:10187000000A0022314884ED060A40F6B1131146F1
:10188000E361FFF7F5F96681594622695B46104628
:10189000FFF712F820694D46B0FBF5F01E38C0B2D4
:1018A0002070627800EB8001A389D4ED080A08EB70
:1018B000C100618950F8220000EE100AB8EE400A1B
:1018C00020EE200ABCEEC00A10EE102AFEF7DEFF62
:1018D0001BA003F025FE60786421401C10FB01F181
:1018E000AFF2AC1003F01CFE2069B0FBF5F1AFF2D3
:1018F0005C1003F015FE94ED060AB7EEC00A53EC37
:10190000102BAFF2A41003F00BFE4FF0B0414FF4D8
:101910000050C1F88800BDEC028BBDE8F09F0000CC
:10192000240000247431312E7478743D2225642003
:101930006465672022FFFFFF000000004C020024C6
:101940007431322E7478743D224357207465737459
:101950002022FFFFFF0000004FF0B04110B5D1F88A
:101960008820024203D0C1F88800FFF7C3FC10BDF5
:101970002DE9FC4F01257E4C00234FF0030A4FF068
:10198000B04E4FF00F0BEBE005FA03F637403A008C
:1019900077D04F68012F05D0022F03D0112F01D02F
:1019A000122F1AD187684FEA4308D1F80CC00AFAFF
:1019B00008F927EA09070CFA08FC4CEA070CC0F8FA
:1019C00008C0476891F804C0B743CCF3001C0CFA78
:1019D00003FC4CEA070CC0F804C0C6684FEA430C8D
:1019E000D1F80880E1460AFA0CF7BE43019708FADD
:1019F00009F848EA0608C0F80C804E68022E01D0AB
:101A0000122E12D1DE084FEA437C00EB86060096C8
:101A10000F69366A4FEADC6C0BFA0CF807FA0CF720
:101A200026EA08063743009E37620E790768DDF81C
:101A300004C006F0030606FA09F627EA0C073E433F
:101A400006604E68F6001CD54A4E376847F002071C
:101A5000376036689F0706F00206009623F00306FB
:101A600006F1B046B1463F0FD6F80864DFF80881AA
:101A70000BFA07FC404526EA0C0603D14FF0000C98
:101A800041E06CE0DFF8F4C0604502D14FF0010C9A
:101A900039E0DFF8ECC0604502D14FF0020C32E0D3
:101AA000DFF8E0C0604502D14FF0030C2BE0DFF817
:101AB000D8C0604502D14FF0040C24E0DFF8CCC060
:101AC000604502D14FF0050C1DE0DFF8C4C0604551
:101AD00002D14FF0060C16E0DFF8B8C0604502D125
:101AE0004FF0070C0FE0DFF8B0C0604502D14FF0B7
:101AF000080C08E0DFF8A4C0604502D14FF0090CE3
:101B000001E04FF00A0C0CFA07FC4CEA060CC9F88D
:101B100008C426684F6826EA0206FF0300D516436C
:101B2000266066684F6826EA0206BF0300D51643A2
:101B30006660D1F804C07646DEF800705FEACC2C0F
:101B400027EA020700D517433760D1F804C0776849
:101B50005FEA8C2C27EA020700D5174377605B1CED
:101B60000A681746DA407FF40FAFBDE8FC8F00002B
:101B700080000058F4440258000002580004025843
:101B800000080258000C02580010025800140258B5
:101B900000180258001C0258002002580024025865
:101BA0000069084000D0012070470AB18161704788
:101BB0000904FBE701480068000C70470010005C56
:101BC00001488068704700000C02002402488168C8
:101BD00002781144816070470C020024032010B584
:101BE00000F03CF901F0AAF80F4A10491468136894
:101BF000C4F3032203F00F038A5CC95C02F01F02E6
:101C000001F01F01D0400A4A20FA01F11160094990
:101C100008600E2000F010F808B1012010BD00F09F
:101C2000D3F8002010BD0000184402585861000885
:101C30001C0200241802002470B50D4D04462878BB
:101C4000A0B14FF47A71B1FBF0F00A490968B1FB19
:101C5000F0F001F0B1FB48B9102C07D20022214668
:101C6000501E00F0DBF800206C6070BD012070BDDC
:101C70000C020024180200242DE9F047040005D0CE
:101C800094F836004FF6FF7518B108E00120BDE862
:101C9000F087002084F83500204600F05DF802202F
:101CA00084F836004FF4000AD4E90063F268012B8F
:101CB00002D0A06A504501D122F01E026169A946F6
:101CC000494502D04EF2C0008243D4F808C0D4E99E
:101CD000087843EA0C00DFF870C0A56A47EA0807F5
:101CE00040EA070002EA0C0240EA050040EA02006E
:101CF000DBB1012B01D0554503D1D4E903231A43AD
:101D00001043494505D0D4E906321943024341EA5C
:101D10000200F0600D492068884202D00C498842D8
:101D200008D1D4E90B12114308E02369E2691A4390
:101D30001043E0E70749884201D1E16A416201208E
:101D400084F836000020A2E7FEF119FF00240040CD
:101D5000002400580028005810B5B0B00446BC213B
:101D60006846FEF7EFFA1549206888420CD120201A
:101D70004FF0A04123910090684600F001FA08B1AD
:101D8000FEF786FE0E480EE00E49884213D1402031
:101D9000009000216846269100F0F2F908B1FEF7A4
:101DA00077FE07480C30016841F40071016000685B
:101DB00000F400702F9030B010BD000000240040EF
:101DC000E8440258002400580C4808B5016841F066
:101DD00002010160016801F002010091016841F413
:101DE00000410160006800F40040009001F0C6FA74
:101DF000BDE80840022001F0C9BA0000F4440258CE
:101E0000002809DB410900F01F028900012001F1CF
:101E1000E0219040C1F80001704700000E4BF0B483
:101E20001B680D46C3F30223C3F10706042E00D935
:101E30000426191D072901D2002300E0DB1E01241E
:101E400004FA06F19C40491E2940641E9940144042
:101E50002143F0BC03F074BB0CED00E0064900F038
:101E6000070210B54FF6FF040868044B204040EA13
:101E700002201843086010BD0CED00E00000FA05D8
:101E8000134970B50A68D243520705D5096801F0B5
:101E90000701814213D118E00A6822F007020243C9
:101EA0000A60FFF78DFE0A4D4FF47A760446083D2E
:101EB00007E000BFFFF784FE001BB04201D90120FC
:101EC00070BD2868C0438004F4D4002070BD0000B9
:101ED0000C48025810B500F0EBFE05490968054AA8
:101EE000C1F30211515C01F01F01C84010BD000098
:101EF0002044025858610008494930B5484C0B1D30
:101F00000A68143409681D68246802F00303C5F3E5
:101F10000012C1F30531C4F3CC04002914FB02F212
:101F200000EE102AF8EE400A75D03F4A9FED3D1AA8
:101F3000B7EE000A6BB1DFED3D1A012B01D0022B89
:101F400064D002EE101A1168F8EE422A81EEA22A3D
:101F500021E0334C283C23689B0612D5344B24687F
:101F600001EE901A1168C4F3C104F8EE612AE3404F
:101F700001EE903AC1F30801F8EE611A81EEA22A4F
:101F80000BE001EE901ADFED2B2A00BFF8EE611A8C
:101F9000116882EEA12AC1F3080101EE901A1168BE
:101FA000F8EE611A40EE811A71EE800A62EE200AA4
:101FB000C1F3462101EE101AB8EE411A31EE001AB3
:101FC000C0EE811ABCEEE11A80ED001A1168C1F36F
:101FD000064101EE101AB8EE411A31EE001AC0EEB9
:101FE000811ABCEEE11A80ED011A1168C1F3066195
:101FF00001EE101AB8EE411A31EE000A80EE801A96
:10200000BCEEC10A80ED020A30BD04E001EE901A78
:10201000DFED092ABAE70021016041608160F3E742
:102020002844025800000039384402580024744AF9
:102030000090D0030024744C20BCBE4B494930B5FD
:10204000484C0B1D0A681C3409681D68246802F09E
:102050000303C5F30022C1F30551C4F3CC040029E6
:1020600014FB02F200EE102AF8EE400A75D03F4A47
:102070009FED3D1AB7EE000A6BB1DFED3D1A012B63
:1020800001D0022B64D002EE101A1168F8EE422A39
:1020900081EEA22A21E0334C283C23689B0612D50E
:1020A000344B246801EE901A1168C4F3C104F8EEB1
:1020B000612AE34001EE903AC1F30801F8EE611A9B
:1020C00081EEA22A0BE001EE901ADFED2B2A00BF71
:1020D000F8EE611A116882EEA12AC1F3080101EE3F
:1020E000901A1168F8EE611A40EE811A71EE800ABA
:1020F00062EE200AC1F3462101EE101AB8EE411A31
:1021000031EE001AC0EE811ABCEEE11A80ED001A21
:102110001168C1F3064101EE101AB8EE411A31EE12
:10212000001AC0EE811ABCEEE11A80ED011A1168A6
:10213000C1F3066101EE101AB8EE411A31EE000A41
:1021400080EE801ABCEEC10A80ED020A30BD04E0C8
:1021500001EE901ADFED092ABAE700210160416023
:102160008160F3E7284402580000003940440258D7
:102170000024744A0090D0030024744C20BCBE4B51
:102180002DE9FC5F044650F8241B002500902E46E4
:102190000801FE4FDFF8F8831DD5606E50B1B0F531
:1021A000801F0CD0B0F5001F0ED0B0F5401F1DD021
:1021B00001250FE0386840F40030386016E0022155
:1021C000201D02F0BBF803E00098022102F046F95E
:1021D00005000BD02E462088C00523D5606D05284C
:1021E0001ED2DFE800F00C11161B1B00626ED8F83F
:1021F000001021F440111143C8F80010EBE73868D3
:1022000040F40030386009E00021201D02F096F80B
:1022100003E00098002102F021F905466DB100E0CD
:1022200001252E462088800528D5A06D80281ED047
:102230000CDC90B140280ED114E0626DD8F800108B
:1022400021F007011143C8F80010EBE7C02813D0B4
:10225000B0F5807F10D001250FE0386840F40030E1
:10226000386009E00021201D02F068F803E00098C2
:10227000002102F0F3F8054695B12E462088DFF8DC
:102280001093400509F108092CD5D4F8A400B0F545
:10229000800F20D00DDCA0B1B0F5001F0FD115E0EC
:1022A000A26DD8F8001021F4E0711143C8F80010B5
:1022B000E4E7B0F5C00F13D0B0F5000F10D0012542
:1022C0000FE0386840F40030386009E00021201D3C
:1022D00002F034F803E00098002102F0BFF8054650
:1022E00075B12E46208800052DD5D4F8A800B0F190
:1022F000007F21D00EDCA8B1B0F1807F10D116E0B4
:10230000D4F8A420D9F8001021F460011143C9F8D1
:102310000010E7E7B0F1407F13D0B0F1806F10D02C
:1023200001250FE0386840F40030386009E00021F2
:10233000201D02F003F803E00098002102F08EF85F
:1023400005466DB12E46206880011FD5A06CD8B11E
:1023500010280FD0202812D0302815D0012514E0E5
:10236000D4F8A820D9F8001021F0E0611143C9F891
:102370000010E8E7386840F40030386004E00221DB
:10238000201D01F0DBFF05466DB12E462088C004FC
:102390002BD5E06DB0F5005F20D00DDCA0B1B0F51D
:1023A000805F0FD115E07A48A26C001F016821F010
:1023B000300111430160E9E7B0F5405F13D0B0F59B
:1023C000804F10D001250FE0386840F400303860AD
:1023D00009E00021201D01F0B1FF03E00098002179
:1023E00002F03CF8054685B12E462088800429D5A8
:1023F000206EB0F5403F23D010DC08B3B0F5803F2D
:1024000014D0B0F5003F0FD115E0E26DD8F8001000
:1024100021F4E0411143C8F80010E6E7B0F5802F41
:102420000ED0B0F5A02F0BD001250AE00121201D10
:1024300001F084FF03E00098012102F00FF8054647
:102440008DB12E46208840042AD5D4F8AC00B0F1D6
:10245000405F23D010DC08B3B0F1805F14D0B0F13E
:10246000005F0FD115E0226ED8F8001021F4E021B2
:102470001143C8F80010E5E7B0F1804F0ED0B0F17D
:10248000A04F0BD001250AE00121201D01F056FFCD
:1024900003E00098012101F0E1FF05466DB12E46F1
:1024A000208800041FD5E06ED8B1B0F1805F0ED057
:1024B000B0F1005F10D0012514E0D4F8AC20D9F8B9
:1024C000001021F0E0411143C9F80010E8E7386836
:1024D00040F40030386004E00121201D01F02EFF9F
:1024E00005466DB12E462068C0011ED5606CD0B186
:1024F00001280ED0022811D0032814D0012513E0A2
:10250000E26ED8F8001021F040511143C8F80010D5
:10251000E9E7386840F40030386004E00221201D0B
:1025200001F00CFF054685B12E462068DFF85CB04F
:102530004002ABF11C0B57D51648016841F480717D
:102540000160FFF73DFB82460EE01148626C001F00
:10255000016821F0030111430160E6E7FFF730FB5A
:10256000A0EB0A0064283DD80A480068C005F5D5EC
:102570007DBBDFF81CA0B4F8B0200AF1200ADAF81D
:10258000001002F4407001F4407105E02C44025840
:102590005044025800480258814211D0DAF8001025
:1025A000DAF8002021F4407142F48032CAF80020A9
:1025B000DAF8002022F48032CAF80020CAF80010AD
:1025C000D4F8B000B0F5807F21D1FFF7F9FA01907F
:1025D00019E008E0FFF7F4FA0199411A41F2883056
:1025E000814210D903252E462078DFF844A4C00785
:1025F0003DD0A06F182838D026DC80B3082829D019
:10260000102825D12CE0DAF800008007E2D5D4F8B4
:10261000B010C1F30120032858460DD0016821F401
:102620007C510160B4F8B020DAF80010C2F30B025C
:102630001143CAF80010D7E7FE4A036802EA1112F4
:1026400023F47C511143ECE720280ED028280CD02D
:1026500001250BE00121201D01F070FE04E004E0E3
:102660000098012101F0FAFE05465DB12E46207862
:1026700080071ED5606F062819D2DFE800F0160C1F
:1026800011161616A26FDAF8001021F03801114366
:10269000CAF80010EBE70121201D01F04FFE03E016
:1026A0000098012101F0DAFE054675B100E0012530
:1026B0002E46207840071FD5D4F89000062819D25E
:1026C000DFE800F0160C11161616626FDAF800102B
:1026D00021F007011143CAF80010EAE70121201D8B
:1026E00001F02CFE03E00098012101F0B7FE054641
:1026F0009DB100E001252E46207880062BD5D4F828
:102700008C00B0F1405F24D011DC10B3B0F1805FD9
:1027100015D0B0F1005F10D116E0D4F89020D9F8B0
:10272000001021F007011143C9F80010E4E7B0F1EF
:10273000804F0ED0B0F1A04F0BD001250AE0002150
:10274000201D01F0FBFD03E00098022101F086FE50
:1027500005468DB12E46207840062BD5D4F898003A
:10276000B0F5406F24D011DC10B3B0F5806F15D0F8
:10277000B0F5006F10D116E0D4F88C20DAF8001014
:1027800021F0E0411143CAF80010E4E7B0F5805FA2
:102790000ED0B0F5A05F0BD001250AE00021201D6E
:1027A00001F0CCFD03E00098022101F057FE054640
:1027B0008DB12E46207800062BD5D4F89C00B0F5BC
:1027C000C04F24D011DC10B3B0F5005F15D0B0F5C8
:1027D000804F10D116E0D4F89820D9F8001021F4D9
:1027E000E0511143C9F80010E4E7B0F5004F0ED0F6
:1027F000B0F5204F0BD001250AE00021201D01F08B
:102800009DFD03E00098022101F028FE05464DB130
:102810002E46207800071ED5D4F88000B0F5805FE2
:102820000AD00FE0D4F89C20D9F8001021F46041C0
:102830001143C9F80010ECE70098022101F00EFEE8
:1028400000B10126D4F88020DAF8001021F44051BC
:102850001143CAF800102078C00613D5D4F89400AC
:10286000B0F5807F05D10098022101F0F7FD00B19D
:102870000126D4F89420D9F8001021F440711143B6
:10288000C9F800102068000316D5D4F8A00038B1AC
:10289000B0F5803F09D0B0F5003F0BD001250AE02C
:1028A0000021201D01F04AFD03E00098022101F003
:1028B000D5FD054685B12E462068400322D5D4F8C3
:1028C0008400B0F5801F11D0B0F5001F13D0B0F513
:1028D000401F15D0012514E0D4F8A020D9F800102D
:1028E00021F440311143C9F80010E5E7386840F49D
:1028F0000030386004E00098012101F0AFFD05468A
:1029000055B12E462068C0031CD5E06C70B1B0F5FF
:10291000803F10D0012514E0D4F88420DAF80010AC
:1029200021F440111143CAF80010EBE7386840F475
:102930000030386004E00221201D01F0FFFC054654
:10294000CDB12E462068800005D50098022101F007
:1029500085FD00B10126206880031BD5E06FB8B16A
:10296000B0F5807F10D0B0F5007F11D0B0F5407F7A
:102970000ED001250DE02E48E26C0838016821F4E4
:10298000803111430160DDE7386840F40030386081
:10299000F5B32E462068C00207D5226FD8F8001084
:1029A00021F000411143C8F800102068C00008D58C
:1029B000D4F8B420DBF8001021F480411143CBF8A7
:1029C00000102068800207D5A26ED8F8001021F010
:1029D00080711143C8F80010206840000CD5DBF866
:1029E000001021F40041CBF80010DBF80010D4F8FF
:1029F000B8201143CBF800102068002807DA0C48F3
:102A0000226D0838016821F040511143016000E057
:102A100014E02068000208D5D4F88820DAF8001005
:102A200021F440011143CAF8001086B1012003E0EF
:102A300054440258CFFFFF00BDE8FC9FE26FDAF874
:102A4000001021F440711143CAF80010A2E70020E1
:102A5000EDE700002DE9F05F04000F467ED0DFF8BF
:102A60003882D8F8000000F00F00B8420CD2D8F835
:102A7000001021F00F013943C8F80010D8F8000009
:102A800000F00F00B84269D12078844D40070AD584
:102A90002069296801F07001884204D9296821F071
:102AA00070010143296020787C4E361D00070AD54D
:102AB0006069316801F07001884204D9316821F001
:102AC0007001014331602078C0060AD5A0693168E1
:102AD00001F4E061884204D9316821F4E0610143E6
:102AE00031602078DFF8B4B180060BF1080B0CD50B
:102AF000E1695846DBF8002002F07002914204D9E7
:102B0000026822F070020A430260207880070AD52A
:102B1000E068296801F00F01884204D9296821F092
:102B20000F01014329602078C0073ED05B49A268AD
:102B30002868183920F47060104328606068022803
:102B400018D0032819D00968012819D0490700298D
:102B50004ADADFF848A1AAF1080A00E044E0DAF80E
:102B6000002022F007020243CAF80020FFF728F8ED
:102B7000814612E009688903E9E709688901E6E707
:102B8000C905E4E7FFF71CF8A0EB090141F2883022
:102B9000814202D90320BDE8F09F6168DAF80000A5
:102BA00000F03800B0EBC10FECD1207880070AD5D7
:102BB000E068296801F00F01884204D2296821F0F9
:102BC0000F0101432960D8F80010404601F00F01C1
:102BD000B9420BD9016821F00F0139430160006847
:102BE00000F00F00B84201D00120D4E72078400760
:102BF0000AD52069296801F07001884204D2296849
:102C000021F0700101432960207800070AD560692E
:102C1000316801F07001884204D2316821F07001FE
:102C2000014331602078C0060AD5A069316801F4FB
:102C3000E061884204D2316821F4E06101433160EF
:102C4000207880060CD5E1695846DBF8002002F0B8
:102C50007002914204D2026822F070020A430260BC
:102C600000F06CF80E492A682B68C2F3032203F0C7
:102C70000F038A5CC95C02F01F0201F01F01D04003
:102C8000084A20FA01F11160074908600748006806
:102C9000BDE8F05FFEF7D0BF002000521844025894
:102CA000586100081C0200241802002410020024AD
:102CB00030B500F043F80B4A0B490C4B156814680B
:102CC000C5F3032204F00F048A5C095D02F01F02C1
:102CD00001F01F01D040064A20FA01F1196010608E
:102CE000084630BD18440258586100081C020024F0
:102CF0001802002400B5FFF7DBFF05490968054A03
:102D0000C1F30211515C01F01F01C84000BD000079
:102D10001C4402585861000800B5FFF7C9FF054977
:102D20000968054AC1F30221515C01F01F01C84046
:102D300000BD00001C44025858610008454970B5A8
:102D400045480968434B103B11F0380208D0011187
:102D5000082A03D0102A0BD0182A0BD0084670BDC1
:102D600019688906FBD51968C1F3C101C84070BD57
:102D70003A4870BD3749374D18310C1D24350A6863
:102D8000096826682D6802F0030406F00102C1F309
:102D90000511C5F3CC0515FB02F200EE102AB8EEC2
:102DA000400AE9B32F4ADFED2E0AB7EE001A6CB1E4
:102DB000DFED2D1A012C01D0022C43D002EE101AA7
:102DC0001068F8EE422A81EEA22A1EE01C68A406D2
:102DD00011D51B6801EE901A1168C3F3C103F8EE18
:102DE000612AD84001EE900AC1F30800F8EE611A9A
:102DF00081EEA22A0BE001EE901ADFED1C2A00BF43
:102E0000F8EE611A106882EEA12AC0F3080001EE04
:102E1000900AF8EE611A40EE201A31EE810A00E0C5
:102E200015E022EE000A1068C0F34620401C00EEB8
:102E3000900AF8EE600A80EE201ABCEEC10A10EE8D
:102E4000100A70BD01EE901ADFED092AD8E70020C4
:102E500070BD0000104402580090D00340787D01FE
:102E600000000039304402580024744A0024744C95
:102E700020BCBE4B2DE9F05F04007CD0FF4F2078D2
:102E8000FE4D1837DFF8F493103DC00748D0D9F84D
:102E90000000396800F03800102815D0182803D138
:102EA00001F0030002280FD06068B0F5803F12D017
:102EB00010B1B0F5A02F18D0286820F48030286019
:102EC000286820F4802009E02868800328D56068FD
:102ED0000028D2D024E0286840F480302860606860
:102EE00088B1FEF76DFE064609E0286840F48020B0
:102EF0002860F0E7FEF764FE801B64287ED828680F
:102F00008003F7D50CE0FEF75BFE064605E000BF48
:102F1000FEF756FE801B6428F0D828688003F7D49B
:102F2000207841F20308D54E0C3E800753D5D9F8DE
:102F30000000396810F038000ED0182801D1880739
:102F40000AD0E068A8B3296821F01901014329607B
:102F5000FEF736FE82461BE02868400702D5E0688F
:102F600000288AD0FEF726FE40451BD8206940285D
:102F700012D0316800E0CCE021F47C3141EA00302D
:102F8000306028E0FEF71CFEA0EB0A000228B5D84E
:102F900028684007F6D5E5E7306820F47C3040F437
:102FA0000030EDE7207C316821F0FE4141EA00600D
:102FB000E6E7FFE7286820F001002860FEF700FE42
:102FC000824605E0FEF7FCFDA0EB0A00022895D83A
:102FD00028684007F6D42078C0065FD5D9F80000ED
:102FE000DFF898B2396800F03800ABF1040B08281C
:102FF00012D0182805D101F0030000E0EAE0012812
:103000000AD0E0690028286838D040F080002860A5
:10301000FEF7D6FD824623E02868C00523D5E06987
:10302000802876D11FE0206A202821D0316821F045
:10303000F84141EA8060306030E000BF94F8201031
:10304000DBF8002022F07C5242EA0161CBF800104C
:1030500024E000BFFEF7B4FDA0EB0A00022896D8DA
:103060002868C005F6D5FEF7A5FD4045E6D8DAE7A5
:10307000306820F0F84040F08040DCE720F080002D
:103080002860FEF79DFD064605E000BFFEF798FDAF
:10309000801B02289BD82868C005F7D42078000739
:1030A00029D576486169643000298046016811D0CD
:1030B00041F001010160FEF783FD064605E000BF17
:1030C000FEF77EFD801B0228C9D8D8F800008007D3
:1030D000F6D510E021F001010160FEF771FD064612
:1030E00005E000BFFEF76CFD801B022872D8D8F8FF
:1030F00000008007F6D42078800623D5A069002838
:10310000286810D040F480502860FEF759FD06462C
:1031100005E02CE1FEF754FD801B02285AD82868F0
:103120008004F7D50EE020F480502860FEF748FDBB
:10313000064604E0FEF744FD801B02284AD82868B2
:103140008004F7D4207840074FD5DFF83481D8F8D1
:10315000001041F48071C8F80010FEF731FD0646FA
:1031600005E000BFFEF72CFD801B642832D8D8F89C
:103170000000C005F6D5414EA068603601280AD08F
:1031800008B1052813D0306820F0010030603068A5
:1031900020F0040002E0306840F001003060A068D8
:1031A00041F2883A90B1FEF70BFD80460AE03068A4
:1031B00040F004003060EEE7FEF702FDA0EB0801EE
:1031C000514507D830688007F6D50EE0FEF7F8FCC9
:1031D000804607E084E000BFFEF7F2FCA0EB0801A8
:1031E00051457DD830688007F6D4606AF0B3DFF8C7
:1031F0008C80D9F8001008F12008C1F3C20103291E
:103200006FD00228286820F08070286003D0FEF775
:10321000D7FC044680E0FEF7D3FC064605E000BF7D
:10322000FEF7CEFC801B022873D828688001F7D4F3
:10323000E26A40F2F331386854F8283F884340EAA4
:10324000021018433860217B4FF4FE0C22894FF0A6
:10325000FE47208A4902267D521E401EA1F50071BC
:1032600089B20CEA0040C2F3080200E081E0114399
:10327000761E0143014807EA066203E01044025843
:10328000004802581C3011433B4AC8F8001001683E
:1032900021F00101016011684FF6F876236AB1430D
:1032A00041EAC30111600168A26921F00C011143D8
:1032B00001600168E26921F00201114301600168C7
:1032C00041F480310160016841F40031016001681E
:1032D00041F480210160016841F00101016001E0D9
:1032E00017E01DE0286840F080702860FEF768FC59
:1032F000044604E0FEF764FC001B022809D8286895
:103300008001F7D535E000BFFEF75AFC001B02280C
:1033100002D90320BDE8F09F28688001F4D428E09A
:1033200039680128D8F8000021D0A26A01F003030F
:1033300093421CD1E26AC1F305118A4217D1216B75
:10334000C0F30802491E8A4211D1616BC0F34622C4
:10335000491E91420BD1A16BC0F30642491E914216
:1033600005D1E16BC0F30660491E814201D0012006
:10337000D0E70020CEE7000034440258024801683C
:1033800021F0010101607047003C005803490A68C0
:1033900022F0020202430A6070470000003C00581D
:1033A00004284FF0E020016903D021F004010161FD
:1033B000704741F00401FAE7401EB0F1807F10B57C
:1033C00001D3012010BD4FF0E02460610F21601790
:1033D00002F0B6F80020A0610721216110BD0000B5
:1033E000F0B590F83C20012A38D01D4E012480F819
:1033F0003C40022280F83D2002681A4D5368B242D8
:10340000D2F808C001D0AA4203D14F6823F4700358
:103410003B430F6823F070031F4357600268B242BA
:1034200010D0B2F1804F0DD00F4B9A420AD00F4B03
:103430009A4207D00E4B9A4204D0AA4202D00D4BBA
:103440009A4204D189682CF08003194391600021CD
:1034500080F83D4080F83C100846F0BD0220F0BDE9
:10346000000001400004014000040040000800404A
:10347000000C00400018004010B5040003D094F880
:103480003D0010B107E0012010BD002084F83C0091
:10349000204600F023F8022084F83D002068211D1A
:1034A00001F034F9012084F8480084F83E0084F8E3
:1034B0003F0084F8400084F8410084F8420084F81A
:1034C000430084F8440084F8450084F8460084F8FA
:1034D000470084F83D00002010BD000008B50068DA
:1034E0000649884208D10648016841F0040101609C
:1034F000006800F00400009008BD000000080040D3
:10350000E844025870B5044690F83C00012814D0F5
:10351000394B012584F83C50022084F83D00226894
:103520009068184020F47F4090600868702828D088
:1035300010DC10F00F0F03D04BE04FF0020070BD15
:103540004FEA2012072A44D2DFE802F051515151CC
:1035500049323A00B0F1101F49D009DCB0F5805F64
:1035600037D0B0F5005F17D0B0F5801F31D13EE005
:10357000A0F5801120393AD0102938D0202928D13F
:1035800035E04A682068D1E9021301F021F920688A
:10359000816841F0770109E04A682068D1E90213A7
:1035A00001F016F92068816841F48041816010E0E3
:1035B000CA684968206801F01FF92068502106E0B8
:1035C000CA684968206801F028F92068602101F084
:1035D00009F9002084F83D5084F83C0070BDCA68A9
:1035E0004968206801F008F920684021EFE7226867
:1035F00001461046EBE7000088FFCEFF30B590F89B
:103600008010012918D0012280F880202421C0F8E0
:1036100084100022202450F8641B0B680D6823F0EE
:10362000005325F001050D60026050F8641C0B602A
:1036300004620277104630BD022030BD70477047EB
:1036400070B5044690F8800001281DD0012284F84E
:1036500080202420C4F8840020680568026822F0D5
:10366000010202602068826822F060620A43826080
:10367000204601F00DF92268202100201560C4F8D1
:10368000841084F8800070BD022070BD70B50446BF
:1036900090F8800001281DD0012284F88020242089
:1036A000C4F8840020680568026822F00102026004
:1036B0002068826822F060420A438260204601F05E
:1036C000E7F82268202100201560C4F8841084F8EF
:1036D000800070BD022070BD704770477047014682
:1036E000D0F88400D1F88810084370472DE9F041E4
:1036F00003680446002540F60F06D86919689A68E1
:10370000304209D186067DD501F0200602F08057AF
:103710003E4377D0216F39E1AF4EB04F16400F4096
:1037200037436FD0C70709D0CF0507D501271F62E0
:10373000D4F88C3043F00103C4F88C3083070AD5E9
:10374000D30708D0276802233B62D4F88C3043F0BB
:103750000403C4F88C3043070AD5D30708D0276880
:1037600004233B62D4F88C3043F00203C4F88C305D
:1037700003070CD501F02003334308D02668082343
:103780003362D4F88C3043F00803C4F88C3003055E
:103790000BD54B0109D526684FF400633362D4F88A
:1037A0008C3043F02003C4F88C30D4F88C30002BDC
:1037B00034D0800609D501F0200002F08051084382
:1037C00003D0216F09B1204688472168D4F88C00C6
:1037D0008968490602D410F0280F21D0204601F054
:1037E00017F920688168490615D5816821F04001E4
:1037F0008160E06F78B17A490165E06FFDF726FCE2
:10380000002800E012E009D0E06F016D00E02046E2
:10381000BDE8F04108472046FFF760FFBDE8F081B2
:103820002046FFF75BFFC4F88C50F7E7E76E2026D1
:10383000012F71D1C7066FD5CF066DD51020186244
:1038400022689068400669D5E16F664B0868984227
:1038500034D0644B1833984230D0624B30339842A6
:103860002CD0604B4833984228D05E4B603398424E
:1038700024D05C4B7833984220D05A4B90339842F6
:103880001CD0584BA833984218D0574B984215D0AB
:10389000554B1833984211D0534B303398420DD0CA
:1038A000514B4833984209D04F4B6033984205D072
:1038B0004D4B7833984201D04B4B90334068000415
:1038C000000CABD0B4F85C308342A7D9A4F85E00FA
:1038D000C869B0F5807F18D0106820F4807010603F
:1038E0002068816821F0010181602068816821F0F1
:1038F00040018160C4F88860E5662068016821F0B5
:1039000010010160E06FFDF7EFF9B4F85C00B4F866
:103910005E10401A81B220E023E0FFE7B4F85C00BB
:10392000B4F85E10B4F85E30401A81B2002BC8D0F3
:103930000029C6D010682D4B20F4907010602068CC
:10394000826802EA03028260C4F88860E56625673F
:103950002068026822F0100202602046FFF76EFE27
:103960005CE7C70209D5570207D54FF480101862EB
:103970002046BDE8F041FFF7B0BE07060AD501F0CA
:10398000800702F40002174304D0616F00297FF41E
:103990003EAF43E742060CD54A060AD519682046D1
:1039A00021F040011960C4F88460656700F04FF9A8
:1039B00034E7020206D54A0004D52046BDE8F041AE
:1039C000FFF78ABEC001CBD50029C9DA2046BDE881
:1039D000F041FFF734BE0000010000102001000498
:1039E000FD4900081000024010040240FEFFFFEFF6
:1039F00010B5040003D0D4F8840010B107E0012012
:103A000010BD002084F88000204600F027F8242014
:103A1000C4F884002068016821F00101016020469B
:103A200001F0DAF90128EBD0A06A10B1204600F0CD
:103A300051FF2068416821F490414160206881680D
:103A400021F02A0181602068016841F001010160D4
:103A50002046BDE8104000F0A1BF000010B5B6B090
:103A6000044614212FA8FCF76DFCBC216846FCF726
:103A700069FC18492068884229D100241E9401203D
:103A800000906846FEF77CFB08B1FDF701F812488C
:103A9000016841F010010160006800F010003490EE
:103AA0000D481038016841F00201016000682FAB39
:103AB000022100F0020034904FF44040042283E8D9
:103AC000130006482FA9CDE93242FDF751FF36B069
:103AD00010BD000000100140F044025800040258DC
:103AE00070B4D0F88830202B1BD1B9B1B2B190F8A6
:103AF0008030012B15D0036801260B4D002480F87F
:103B00008060C466AB4206D05C68240203D51C68A2
:103B100044F080641C6070BC01F034BB012070BCB8
:103B200070470220FBE70000000C0058F0B400686A
:103B3000144988420CD1144881880A0408D40246EA
:103B40004FF000034C04127807D50A2A02D0838074
:103B5000F0BC704741F4004112E00D2A0ED00B4E2C
:103B6000C1F30D054C1CA1B240F2DB54A1427255C9
:103B70008180EDD98380F0BC02F0C6BA41F4804167
:103B80008180E5E7004C00402C020024AC030024B7
:103B90002DE9F8430446D0F884001F4616460D462A
:103BA000202852D1DDB1D6B194F8800001284CD044
:103BB000012084F8800021224FF00008C4F88C8096
:103BC000C4F884201834FDF7FBFF814654F8100C2C
:103BD000A687E687183CB0F5805F03D004E001209B
:103BE000BDE8F883206920B12E46002584F8808046
:103BF00010E00026FAE78021204601F02FFBB8B93B
:103C0000C6B116F8010B21688862B4F85600401E50
:103C1000A4F85600B4F856004B464FF00002009747
:103C20000028E8D14FF04001204601F017FB38B1E1
:103C30000320D5E735F8020B2168C0F30800E3E75D
:103C40002020C4F884000020CAE70220C8E770479B
:103C50000D4810B586B0016841F0040101600068AC
:103C600001ABF32400F00400059001200094002132
:103C7000032283E8070005486946FDF779FE0348FB
:103C80001830046006B010BDE04402580008025825
:103C90000146054A60F39F01F320884301F0F301D8
:103CA00040EA01401060704718080258FEE7000023
:103CB00070B5134C4FF48045002229462046FDF78D
:103CC00074FF206820F040402060206840F0804071
:103CD0002060002220466900FDF767FF012002F006
:103CE000B3F8012229462046FDF75FFF012002F0CC
:103CF000ABF829462046BDE870400022FDF755BFCD
:103D00000008025870B5134C4FF480450022294634
:103D10002046FDF74AFF206820F0404020602068E0
:103D200040F08040206001222046D103FDF73DFF96
:103D3000012002F089F8012229462046FDF735FFCF
:103D4000012002F081F829462046BDE8704000229B
:103D5000FDF72BBF000802582DE9F0471A4C8046AA
:103D60004FF48047206800254FF400492E4620F08C
:103D70004040206020682060002239462046FDF740
:103D800014FF012002F060F8012239462046FDF7B9
:103D90000CFF68064946050E2046FDF701FF08B1F5
:103DA0006D1CEDB2012002F04FF8761CF6B2082E21
:103DB000E2D3B8F1000F04D0FFF77AFF2846BDE840
:103DC000F087FFF79FFFF9E7000802582DE9F0415F
:103DD0001A4C06462046216821F0404121602168A6
:103DE00041F0804121604FF4804700223946FDF7C1
:103DF000DCFE00254FF40048300601D5012200E02A
:103E0000002241462046FDF7D0FE700639460122C9
:103E1000060E2046FDF7C9FE012002F015F800222B
:103E200039462046FDF7C1FE012002F00DF86D1C59
:103E3000EDB2082DE0D3BDE8F08100000008025883
:103E400070B5134C206820F040402060206840F09E
:103E50008040206001222046D5032946FDF7A5FEBB
:103E60000122204696033146FDF79FFE012001F016
:103E7000EBFF002229462046FDF797FE012001F0C6
:103E8000E3FF31462046BDE870400022FDF78DBEBD
:103E90000008025870B5144C206820F040402060A3
:103EA000206840F0804020604FF48045204600228A
:103EB0002946FDF77AFE6E00204600223146FDF7C6
:103EC00074FE012001F0C0FF012229462046FDF7C3
:103ED0006CFE012001F0B8FF31462046BDE870407D
:103EE0000122FDF762BE0000000802582DE9F041F2
:103EF000184C206820F04040206020680025206099
:103F000001222046D6033146FDF74FFE012001F085
:103F10009BFF0122204697033946FDF746FE01200C
:103F200001F092FF08E06D1CEDB2FA2D04D9FFF705
:103F3000B1FF0120BDE8F08131462046FDF730FE9B
:103F40000028F0D1002239462046FDF72EFE002041
:103F5000F0E700000008025810B50C4C00222021A8
:103F60002046FDF722FE022001F04FFF01222046ED
:103F70002021FDF71AFE042001F047FF0022204611
:103F8000BDE810402021FDF710BE000000000258DF
:103F9000134800B587B0016841F001010160006875
:103FA00001210322039200F0010005906E20CDE96B
:103FB00000010C486946FDF7DBFC00F033F800F027
:103FC00015F80123084A0321184601F09BF9064A17
:103FD000022101230846121F01F094F907B000BD29
:103FE000E0440258000002582802002410B50C4C8E
:103FF000002240212046FDF7D8FD012001F005FFF9
:10400000012220464021FDF7D0FD1E2001F0FDFEDB
:1040100000222046BDE810404021FDF7C6BD00004B
:104020000000025810B50E4C012202212046FDF777
:10403000BCFD002220460421FDF7B7FD00222046EA
:104040000821FDF7B2FD002220462021FDF7ADFD3D
:1040500000222046BDE810404021FDF7A6BD00002B
:104060000000025800B589B024216846FCF76AF9BF
:104070000E490D4808600846FCF7B6FD08B1FCF78C
:1040800007FD002000900121019004900246CDE937
:10409000020106486946FCF7FDFC002801D0FCF748
:1040A000F7FC09B000BD0000007400404C02002481
:1040B0002DE9F04186B014216846FCF743F93C48ED
:1040C000016841F010010160016801F010010591E3
:1040D000016841F004010160016801F004010591EB
:1040E000016841F080010160016801F080010591E3
:1040F000016841F001010160016801F001010591D1
:10410000016841F002010160016801F002010591BE
:10411000016841F00801016000684CF2C006254FBB
:10412000002200F00800314605903846FDF73DFDBD
:10413000DFF88480002248214046FDF736FD1F4D00
:104140000820002469460294CDE900051C48FDF7CB
:104150000FFC4FF440506946CDE900053846029403
:10416000FDF706FC01250096CDE901546946384665
:104170000394FDF7FDFB48200090CDE9015469460A
:1041800040460394FDF7F4FB00220F210920FDF7C0
:1041900045FE0920FDF734FE00220F212820FDF7FF
:1041A0003DFE2820FDF72CFE06B0BDE8F0810000A2
:1041B000E044025800080258000C02580000211187
:1041C000001002580D484FF4606210B50A4C0021EF
:1041D0004FF6FF7304604361C0E90112016241625E
:1041E0008162C1620163FDF747FD002803D0BDE88D
:1041F0001040FCF74DBC10BD0024004060020024BC
:104200000D484FF4606210B50A4C00214FF6FF7361
:1042100004604361C0E90112016241628162C162CE
:104220000163FDF729FD002803D0BDE81040FCF72D
:104230002FBC10BD002400589802002410B588B08F
:10424000174800241549EF224FF6FF73009401949C
:104250000294039404940594069480E81600C0E93F
:1042600003348461FFF708F908B1FCF711FC4FF43F
:10427000805000900A486946FFF744F908B1FCF7FE
:1042800007FC074804A904940694FFF7A9F800283E
:1042900001D0FCF7FDFB08B010BD00000008004095
:1042A000D00200241848002110B5164C08224FF403
:1042B000E1330460C0E90131C160C0E904128161E9
:1042C000C161016241628162FFF792FB08B1FCF7B4
:1042D000DFFB0D480021FFF7D9F908B1FCF7D8FB47
:1042E00009480021FFF7ACF908B1FCF7D1FB0648FB
:1042F000FFF784F9002803D0BDE81040FCF7C8BBE5
:1043000010BD0000001001401C030024FEE7FEE782
:10431000704700B5AFB0BC216846FCF713F84FF00A
:104320000040C108149100906846FDF729FF00285D
:1043300001D072B6FEE72FB000BD00002DE9F047B6
:10434000454D044689464FF0000A2868C04380075F
:104350000AD0414E283E306820F080603060FDF782
:104360002FFC0746B04608E00120BDE8F08700BFFB
:10437000FDF726FCC01B022867D8D8F80000000112
:10438000F6D4206829684FF4FE0721F47C313E0200
:1043900041EA00302860207AA389B4F804C04002C2
:1043A0002D4D2D495B1E227CACF1010C1035091DF1
:1043B000A0F5007080B2521ECCF3080C07EA03434C
:1043C00040EA0C00184306EA0262104328600868BD
:1043D000626920F0C000104308600A68A06922F0FA
:1043E000200202430A60281D0A6822F010020A60B7
:1043F00002684FF6F873E4699A4342EAC402026025
:104400000868B9F1000F40F010020A6011D0086886
:10441000B9F1010F11D040F400100860D8F8000085
:10442000444640F08060C8F80000FDF7C9FB05462F
:104430000DE0086840F40020EFE740F48010ECE75E
:10444000FDF7BEFB401B022801D903208DE7206841
:104450000001F5D5504688E7284402582DE9F04779
:10446000454D044689464FF0000A2868C04380073E
:104470000AD0414E283E306820F080503060FDF771
:104480009FFB0746B04608E00120BDE8F08700BF6B
:10449000FDF796FBC01B022867D8D8F80000800003
:1044A000F6D4208829684FF4FE0721F07C713E0283
:1044B00041EA00502860207AA389B4F804C0400281
:1044C0002D4D2D495B1E227CACF1010C1835091DC8
:1044D000A0F5007080B2521ECCF3080C07EA03432B
:1044E00040EA0C00184306EA02621043286008689C
:1044F000626920F44060104308600A68A06922F4F1
:10450000007202430A60281D0A6822F480720A6061
:1045100002684FF6F873E4699A4342EAC402026003
:104520000868B9F1000F40F480720A6011D0086881
:10453000B9F1010F11D040F080700860D8F8000088
:10454000444640F08050C8F80000FDF739FB0546AE
:104550000DE0086840F48000EFE740F40000ECE76D
:10456000FDF72EFB401B022801D903208DE72068B0
:104570008000F5D5504688E7284402587047FDF77B
:1045800025BB0000F0B59DB04C216846FBF7DAFE74
:10459000202113A8FBF7D6FE0220FDF771FC22486C
:1045A00000242249026842F44042026002680A681C
:1045B00042F001020A60096801F001011B910168E3
:1045C0008904FCD502201121009120260527CDE980
:1045D0000860C203019280230793C0210E90CDE9A9
:1045E0000A07CDE90C1008250F90CDE91054684654
:1045F0001294FEF73FFC08B172B6FEE740201A9015
:104600003F210301CDE916500322CDE9180313AB76
:1046100013A883E816000421FEF71CFA002801D035
:1046200072B6FEE71DB0F0BD184802582C040058C1
:104630002C48F0B52C4A016841F470010160106803
:1046400000F00F00072804D2106820F00F00C01DF2
:10465000106026490020254C10340B68244D43F08F
:1046600001030B6020600B682B400B60136803F0A4
:104670000F03072B04D9136823F00F03DB1D13600E
:104680001A4C1C4A18341C4B261D371D2060174C31
:104690001A4D28343060261D3860371D23603B1DBD
:1046A00035601C1D3A60251D2E1D1860331D2260CB
:1046B0002860326018600A680C4B114C22F480228A
:1046C00060330A60186020686FF30F00B0F1005F7C
:1046D00003D20C490120C1F8080143F2D2000A4973
:1046E0000860F0BD88ED00E0002000520044025850
:1046F0007FEDF6EA80020101000202020000FF01E4
:104700000010005C00800051004000522DE9F0478D
:10471000274B4FF0804A274D02689842264E274F7C
:10472000274C09D0504507D0A84205D0B04203D04D
:10473000B84201D0A04205D1D1F804C022F07002E5
:104740004CEA0202DFF87CC0DFF87C809842DFF898
:104750007C900FD050450DD0A8420BD0B04209D06C
:10476000B84207D0A04205D0604503D0404501D0F3
:10477000484503D1CD6822F440722A434D6922F0A6
:1047800080022A43026098428A68C2620A68826292
:1047900007D0A04205D0604503D0404501D0484530
:1047A00001D10969016301214161BDE8F087000081
:1047B000000001400004004000080040000C0040E0
:1047C0000004014000400140004401400048014015
:1047D00042EA032283680A4323F47F410A4382604A
:1047E00070470000034B82681A400A4342F00701F9
:1047F000816070478FFFCFFF10B5036A046A23F012
:104800000A0324F00104046284690B4324F0F001DC
:1048100041EA02118161036210BD10B5036A23F001
:10482000100303628369046A23F4704324F0A00434
:1048300043EA0232826144EA0111016210BD0000C4
:1048400070B5114C0025114EA068FEF74FFF05E032
:104850006D1CB54202D901F057FC04E0A068FEF7D8
:104860003EFF2028F4D1002506E06D1CB54203D997
:10487000BDE8704001F048BC03490122A068FFF781
:104880002FF90028F1D170BD2C020024FFFF010098
:1048900030B5416EB9B101680D4B03F108048A6867
:1048A0008968C2F34262490F5D5C615C2D01B5FB12
:1048B000F1F1A0F86A10995CA25C0901B1FBF2F178
:1048C000A0F8681030BD0121A0F86A10F8E70000D8
:1048D0004861000890F82810C90706D00168C36A2B
:1048E0004A6822F400321A434A6090F82810890777
:1048F00006D50168036B4A6822F480321A434A6085
:1049000090F82810490706D50168436B4A6822F4DD
:1049100080221A434A6090F82810090706D50168DA
:10492000836B4A6822F400421A434A6090F82810C8
:10493000C90606D50168C36B8A6822F480521A43FF
:104940008A6090F82810890606D50168036C8A6889
:1049500022F400521A438A6090F82810490611D5B3
:104960000168436C4A6822F480121A434A60416C21
:10497000B1F5801F06D10168836C4A6822F4C00239
:104980001A434A6090F82810090606D50168C26CDF
:10499000486820F40020104348607047F8B50026AE
:1049A0000446C0F88C60FDF70BF9054620686FF0EF
:1049B0007E470068000708D500222B464FF40011FF
:1049C0002046009700F04AFC60B920680068400764
:1049D0000AD500222B464FF480012046009700F0B4
:1049E0003DFC08B10320F8BD2020C4F88400C4F8C1
:1049F0008800E666002084F88060F8BD10B5806B02
:104A00000021A0F85E10A0F85610FEF767FE10BD5A
:104A100001680C4B0A6822F490720A6001688A6887
:104A20001A408A60C16E012904D101680A6822F027
:104A300010020A6000212022C0F88820C1660167A8
:104A400070470000FEFFFFEF70B50446D0F8880005
:104A50002228B4F86010206804D0816941F0080170
:104A6000816170BD406AA26D08401080A06D801CFD
:104A7000A065B4F85E00401EA4F85E00B4F85E00C5
:104A80000028EED1206800252021026822F49072CF
:104A900002602068826822F001028260C4F88810F7
:104AA0002567E06E012804D02046FFF73FF8E56651
:104AB00070BD2068016821F010010160B4F85C103D
:104AC0002046FEF7BBFDF2E72DE9F04704460068FB
:104AD000C569D0F800A0D0F80880D4F88810B4F8E0
:104AE0006060222905D0816941F008018161BDE83B
:104AF000F087B4F868704FF0000961E02068A16D9C
:104B0000406A30400880A06D801CA065B4F85E004B
:104B1000401EA4F85E002068C569690730D0E90727
:104B20000AD05FEACA5107D501210162D4F88C008E
:104B300040F00100C4F88C00A8070BD55FEAC870EC
:104B400008D0216802200862D4F88C0040F00400EC
:104B5000C4F88C0068070BD55FEAC87008D02168DC
:104B600004200862D4F88C0040F00200C4F88C00E5
:104B7000D4F88C0020B12046FEF7B0FDC4F88C902C
:104B8000B4F85E00E0B9206820231F4AD0F800C0C6
:104B90002CF4807CC0F800C02068D0F808C00CEA73
:104BA000020CC0F808C0C4F88830C4F87090E06EF9
:104BB00001281DD02046FEF7B9FF00BFC4F86C9055
:104BC0000FB1A8069AD4B4F85E0000288FD0B4F8CC
:104BD000681081428BD92068816821F08051816002
:104BE0000A4820672068016841F0200101607EE7E3
:104BF0002068016821F010010160B4F85C102046C3
:104C0000FEF71CFDDAE70000FEFFFFEF494A00084F
:104C100070B50446D0F888002228B4F860102068E7
:104C200004D0816941F00801816170BD406AA26DC4
:104C300008401070A06D401CA065B4F85E00401ED6
:104C4000A4F85E00B4F85E000028EED120680025CC
:104C50002021026822F4907202602068826822F0AB
:104C600001028260C4F888102567E06E012804D034
:104C70002046FEF75BFFE56670BD2068016821F005
:104C800010010160B4F85C102046FEF7D7FCF2E793
:104C90002DE9F04704460068C569D0F800A0D0F8B7
:104CA0000880D4F88810B4F86060222905D08169A2
:104CB00041F008018161BDE8F087B4F868704FF0F9
:104CC000000961E02068A16D406A30400870A06D65
:104CD000401CA065B4F85E00401EA4F85E00206889
:104CE000C569690730D0E9070AD05FEACA5107D51C
:104CF00001210162D4F88C0040F00100C4F88C005E
:104D0000A8070BD55FEAC87008D0216802200862A6
:104D1000D4F88C0040F00400C4F88C0068070BD570
:104D20005FEAC87008D0216804200862D4F88C00BB
:104D300040F00200C4F88C00D4F88C0020B120466A
:104D4000FEF7CCFCC4F88C90B4F85E00E0B92068A3
:104D500020231F4AD0F800C02CF4807CC0F800C08B
:104D60002068D0F808C00CEA020CC0F808C0C4F8EB
:104D70008830C4F87090E06E01281DD02046FEF700
:104D8000D5FE00BFC4F86C900FB1A8069AD4B4F851
:104D90005E0000288FD0B4F8681081428BD920685B
:104DA000816821F0805181600A482067206801688D
:104DB00041F0200101607EE72068016821F01001C8
:104DC0000160B4F85C102046FEF738FCDAE700001A
:104DD000FEFFFFEF114C00082DE9F0430446806808
:104DE000D84E87B0D84B2168D4E90427D4F81CC02A
:104DF00010430A68002547EA0C0738433240024353
:104E00000A602068E268416821F440511143416022
:104E10002268A1699A4201D0206A01439668DFF8AE
:104E20002CC3CB4FCB4806EA0C060E439660216894
:104E3000666ACA6A22F00F023243CA622268BA4224
:104E40000ED1006800F03800182873D047DCB8B3E2
:104E5000082879D010286FD178E028287ED17BE00F
:104E6000BD498A4209D1006800F00700062875D2C2
:104E7000DFE800F0546A6C6E7072B8498A4209D15A
:104E8000006800F00700062868D2DFE800F0475D00
:104E90005F616365B2498A4209D1006800F007008A
:104EA00006285BD2DFE800F03A5052545658AD491C
:104EB0008A420BD1006800F0070006284ED200E0BD
:104EC00010E0DFE800F02B4143454749A6498A42FC
:104ED0000AD1006800F03800182839D0B7DD202842
:104EE000BBD13CE001203AE0A0498A4209D10068E8
:104EF00000F00700062831D2DFE800F01026282A4B
:104F00002C2E9B498A420BD1006800F0070006282E
:104F100024D2DFE800F003191B1D1F2100201EE032
:104F20009A421BD18B48001D006800F0070006283C
:104F300014D202E00CE007E010E0DFE800F0030527
:104F400007090B0D02200AE0042008E0082006E013
:104F5000102004E0202002E0402000E0802085496D
:104F6000DFF814829A42854A4FF400434FEA211732
:104F70004FF000064DD110281AD006DC022809D0C7
:104F800004280BD008287CD10DE020283DD04028F3
:104F900077D13CE0FCF79EFF014610E06846FCF745
:104FA000ABFF01990BE003A8FDF748F8049906E070
:104FB0001068800604D51068C0F3C100C140B9B3C1
:104FC000606A676838F8102007EB4703B1FBF2F01E
:104FD000834256D8B0EB073F53D800230846194602
:104FE000FBF778F902467808130E120243EA012112
:104FF00010183A4671410023FBF76CF9604AA0F59E
:10500000407191423DD821684CE03946D8E71946B5
:10501000D6E7D4F81CC04FF6EF799C4552D108284A
:105020001AD006DC60B101280DD0042829D10EE089
:1050300039E0102815D0202840D040287CD13FE00E
:10504000FDF758FE01E0FDF767FE014610E06846F7
:10505000FCF752FF01990BE003A8FCF7EFFF04995E
:1050600006E01068800604D51068C0F3C100C14096
:10507000C9B1636A606838F81330B1FBF3F14900D5
:1050800000E059E001EB5001B1FBF0F080B2A0F17B
:105090001001494550D84FF6F0732168C0F3420221
:1050A00018401043C8600120A4F86A00A4F8680002
:1050B00028462667666707B0BDE8F0833946D8E71B
:1050C0001946D6E7082819D005DC58B101280CD0BC
:1050D000042831D10DE0102815D020282ED04028EA
:1050E0002AD12DE0FDF706FE01E0FDF715FE014691
:1050F00010E06846FCF700FF01990BE003A8FCF7FD
:105100009DFF049906E01068800605D51068C0F37D
:10511000C100C1400029C6D0636A606838F8133006
:10512000B1FBF3F101EB5001B1FBF0F080B2A0F163
:10513000100149457FF667AF0125B4E73946EBE733
:105140001946E9E7F369FFCF000C0058FFF4FF119F
:105150000010014054440258004400400048004000
:10516000004C004000500040001401400078004016
:10517000007C00400090D0033061000800440258D9
:10518000FFFC0F0070B58468002381654FF48056E2
:10519000A0F85C20B442A0F85E204FF0FF01036746
:1051A00004D10469DCB940F2FF1118E04FF07F052B
:1051B0009CB1B4F1805F15D0A0F860302221C0F816
:1051C0008C30C0F8881001688C6844F001048C6051
:1051D000416EB1F1005F0CD025E0046934B9A0F84C
:1051E0006010EBE7016909B13F21F8E7A0F86050D2
:1051F000E4E7B0F86810914215D88168B14201D156
:10520000016971B11149016780F8803001680A684D
:1052100042F480720A600068816841F080518160C8
:105220000FE00B49EFE78168B14201D1016951B14B
:105230000849016780F880300068016841F4907186
:105240000160002070BD0449F3E70000914C0008A4
:10525000C94A0008114C0008494A00082DE9F047E6
:105260009A4617460E460446089D4FF000094FF037
:10527000200839E0681C37D0FCF7A2FCA0EB0A003C
:10528000A84222D80DB32068016849072CD5C0690F
:10529000C043000528D423684FF4006119622168D7
:1052A0000B6823F4D0730B6021688B6823F0010333
:1052B0008B60C4F88480C4F88880C4F88C8000BFF8
:1052C000032084F88090BDE8F08721680B6823F400
:1052D000D0730B6021688B6823F001038B60C4F8E6
:1052E0008480C4F88880EBE72068C06936EA000053
:1052F00004D00020B842BDD00020E4E70120F9E747
:10530000FEE700002DE9F0472E4E00259A46914613
:105310008846044602212A463046FCF746FC002215
:1053200030460421FCF741FC200601D5012200E0B3
:10533000002230460821FCF738FC012230460421C7
:10534000FCF733FC60066D1C040EEDB2082DE6D3AD
:10535000002230460421FCF728FC0024374622E0D6
:1053600019F804600025002238460421FCF71DFCD2
:10537000300601D5012200E0002238460821FCF762
:1053800014FC012238460421FCF70FFC70066D1C4A
:10539000060EEDB2082DE6D3002238460421FCF7B4
:1053A00004FC641CE4B24445DAD3BAF1010F01D124
:1053B000FEF7D2FD3846BDE8F04701220221FCF796
:1053C000F4BB00000000025838B510240A46002340
:1053D000009344EA12218DF802208DF8011040B1AB
:1053E00001280AD0022816D0032813D10C4A012321
:1053F00006E00B4A0123D21E02E0094A0123921E55
:1054000001210020FFF77EFF01236A4603210620C9
:10541000FFF778FF38BD024A0123521EF0E7000073
:105420002302002400EE101A9FED181B194AB8EE53
:10543000400B10B520EE010BBCEEC00B10EE101AA5
:1054400051704FEA1123137098B1012815D002282A
:1054500017D0032819D10023D21E01210020FFF705
:1054600051FF00230B4A0221BDE810400520FFF741
:1054700049BF084A0023921FEFE7064A0023521F44
:10548000EBE7044A0023121FE7E710BD1CD0D2153A
:105490006CC146402602002400EE101A9FED1D1B31
:1054A00038B5B8EE400B0021009120EE010BBCEEA8
:1054B000C00B10EE101A8DF803104FEA11228DF870
:1054C00002204FEA11438DF801304FEA11648DF844
:1054D000004040B101280AD0022816D0032813D179
:1054E0000E4A012306E00D4A0123D21E02E00B4AB8
:1054F0000123921E01210020FFF704FF04216A46C8
:1055000001230846FFF7FEFE38BD044A0123521E60
:10551000F0E7000095D626E80B2E21402302002458
:105520000FB4054B10B503A9044A029800F0EAF83D
:1055300010BC5DF814FB00007D5E000848020024EA
:10554000090700284FEA116104DB00F1E02080F830
:105550000014704700F00F0000F1E02080F8141DE7
:10556000704702E008C8121F08C1002AFAD170472C
:105570007047002001E001C1121F002AFBD17047D3
:105580002DE9FF5F82B00021DDE90430020DDDF876
:1055900040B0034318D044F61050A2F2FF32424309
:1055A0001514119801281FD0A5EB0B00401C5FEAD1
:1055B000000A4FF000064E4FDFF83891B0465046D3
:1055C00015D5CAF1000413E0119801244AA301285B
:1055D00001D16FEA0B010298119AC0E90031C0E9CC
:1055E000024206B0BDE8F09FCBF10000DFE70446C1
:1055F0000021404A491842EB0450CDE9001012E066
:10560000E00707D032463B4640464946FAF781FF5D
:105610008046894632463B4610461946FAF779FFDE
:1056200006460F466410002CEAD1DDE90401DDE9ED
:105630000023BAF1000F06DAFAF76BFF42464B4639
:10564000FAF767FF05E0FAF7D6FF42464B46FAF74E
:10565000D2FF04460E460022284BFBF753F803D82E
:105660004FF0FF30014607E00022254B204631462F
:10567000FAF7A8FEFBF72EF8102409E0002C0ADB4D
:105680000A220023FAF726FE039B30321A55641EC5
:1056900050EA0102F2D1641C039AC4F111031444CC
:1056A000119A012A03D0012208430DD10AE00843D0
:1056B00004D000204FF0110B119072E7A3EB0B0503
:1056C0006D1E0DE05B4504DD4FF0000205F10105A4
:1056D00004E003DA4FF00002A5F10105002AECD046
:1056E00002981199C0E90231C0E9004579E700004C
:1056F000000014400000F03F300000000000F043C4
:105700000000E03F2DE9FF4F95B09A4688460646D7
:105710000025EEE1252877D100242746F94A01210A
:10572000039400E0044316F8013F203B01FA03F024
:105730001042F7D130782A2811D06FF02F0330783B
:10574000A0F13002092A16D8039A44F0020402EBB1
:10575000820203EB42021044761C0390EFE758F8F4
:10576000042B0392002A03DA504244F400540390BD
:1057700044F00204761C30782E2816D116F8010F5A
:1057800044F004042A280DD06FF02F023078A0F1E5
:105790003003092B09D807EB870302EB4303C71833
:1057A000761CF3E758F8047B761C30786C280FD011
:1057B00006DC4C2817D068280DD06A2814D104E0E4
:1057C000742810D07A280FD10DE044F400140AE0B8
:1057D00044F4801401E044F440147278824202D10F
:1057E00004F58014761C761C307866280BD013DC08
:1057F000582877D009DC002875D04528F6D04628EF
:10580000F4D047281AD193E118E0632835D06428F2
:1058100079D0652812D18BE1702873D008DC672815
:10582000F1D069286FD06E280DD06F2806D1ACE07A
:1058300073282CD0752874D0782853D052461799E5
:1058400090476D1C54E1C4F30250022809D003288C
:105850000DD0D8F8001004280DD00D6008F1040810
:1058600046E1D8F80010EA17C1E90052F6E7D8F887
:1058700000100D80F2E70D70F0E718F8041B8DF8AA
:10588000001000208DF80100EB46012003E058F8DD
:1058900004BB4FF0FF3061074FF0000102D40DE070
:1058A00009F101018946B9420FDA8145F8DB1BF89D
:1058B00009100029F4D108E009F10101894681426B
:1058C000FADB1BF809100029F6D103985346A0EB28
:1058D000090721463846179A00F080FA284400EB61
:1058E000090507E044E008E10DE01BF8010B524612
:1058F00017999047B9F10109F7D253462146384626
:10590000179AF2E039E00A21C4F302524FF0000B7B
:105910000091022A06D058F8040BC117032A09D0B7
:105920000AE023E008F1070020F00702F2E8020194
:10593000904605E000B2C117042A01D140B2C11758
:10594000002906DA0A460021404261EB02012D22BD
:1059500002E0220504D52B228DF80420012203E069
:10596000E20701D02022F7E7914657E00A2100E044
:1059700010214FF0000B00910BE010214FF0000BB5
:1059800044F004040827009103E008204FF0000BC6
:105990000090C4F30252022A05D058F8040B0021EB
:1059A000032A08D008E008F1070020F00702F2E817
:1059B0000201904603E080B2042A00D1C0B24FF049
:1059C000000922072AD53278702A07D0DDF800C0F6
:1059D0008CF0100C5CEA0B0C05D00EE040228DF828
:1059E0000420012208E050EA010306D030238DF89C
:1059F00004308DF8052002229146009B83F00803B5
:105A000053EA0B030AD150EA010201D1620705D51E
:105A100030228DF804204FF001097F1E3278582A79
:105A200004D039A20C920CAA02920BE03BA2F9E737
:105A30005B46009AFAF74EFC0C9B9B5C029A521E46
:105A40000292137050EA0102F2D1029804A9081AD6
:105A500000F1200B600702D524F4803400E0012718
:105A60005F4502DDA7EB0B0000E0002000EB0B011F
:105A7000009003984944401A0390E00306D453462B
:105A80002146179A039800F0A9F90544002706E07B
:105A900001A85246C05D179990476D1C7F1C4F4569
:105AA000F6DBE0030CD553462146179A039800F025
:105AB00095F9054404E030205246179990476D1C33
:105AC0000099481E00900029F5DC08E00298029930
:105AD00052460078491C0291179990476D1CBBF102
