:020000040800F2
:1000000078070224B102000823380008553200089E
:10001000213800086D0400081548000800000000A1
:10002000000000000000000000000000913A0008FD
:10003000CF0500080000000025380008933A0008AA
:10004000CB020008CB020008CB020008CB0200085C
:10005000CB020008CB020008CB020008CB0200084C
:10006000CB020008E7050008CB020008CB0200081D
:10007000CB020008CB020008CB020008CB0200082C
:10008000CB020008CB020008CB020008CB0200081C
:10009000CB020008CB020008CB020008CB0200080C
:1000A000CB020008CB020008CB020008CB020008FC
:1000B000CB020008CB020008CB020008CB020008EC
:1000C000CB020008CB020008CB020008CB020008DC
:1000D000CB020008CB020008CB020008CB020008CC
:1000E000D1050008CB02000800000000CB02000888
:1000F000CB020008CB020008CB020008CB020008AC
:10010000CB020008CB020008CB020008CB0200089B
:10011000553D0008CB020008CB020008CB020008C6
:10012000CB020008CB020008CB020008CB0200087B
:10013000CB020008CB020008CB020008CB0200086B
:1001400000000000000000000000000000000000AF
:10015000CB020008CB020008CB020008CB0200084B
:10016000CB020008CB020008CB020008CB0200083B
:10017000CB020008CB020008CB020008CB0200082B
:10018000CB020008CB020008CB020008CB0200081B
:10019000CB020008CB020008CB020008CB0200080B
:1001A000CB020008CB020008CB020008CB020008FB
:1001B000CB020008CB020008CB020008CB020008EB
:1001C000CB020008CB020008CB020008CB020008DB
:1001D000CB020008CB020008CB020008CB020008CB
:1001E000CB020008CB020008CB020008CB020008BB
:1001F000CB020008CB020008CB020008CB020008AB
:10020000CB020008CB020008CB020008CB0200089A
:10021000CB020008CB020008CB020008CB0200088A
:10022000CB020008CB020008CB020008000000004F
:10023000CB020008CB02000800000000CB0200083F
:10024000CB020008CB020008CB020008CB0200085A
:10025000CB020008CB020008CB020008CB0200084A
:10026000CB020008CB020008CB020008CB0200083A
:10027000CB020008CB020008CB02000800000000FF
:10028000CB020008CB020008CB02000800000000EF
:1002900000000000CB020008DFF810D000F092F858
:1002A00000480047754C0008AFF30080780702242F
:1002B0000648804706480047FEE7FEE7FEE7FEE700
:1002C000FEE7FEE7FEE7FEE7FEE7FEE7453B000848
:1002D000990200082DE9F05F0546002092469B46F2
:1002E00088460646814640241BE02846414647464C
:1002F000224600F057F853465A46C01A914110D38F
:1003000011461846224600F03EF82D1A67EB010808
:100310004F4622460120002100F035F817EB000976
:100320004E41201EA4F10104DFDC484631462A4636
:100330004346BDE8F09FD2B201E000F8012B491E10
:10034000FBD270470022F6E710B513460A46044672
:100350001946FFF7F0FF204610BD30B50B460146A9
:1003600000202022012409E021FA02F59D4205D354
:1003700003FA02F5491B04FA02F52844151EA2F1FE
:100380000102F1DC30BD202A04DB203A00FA02F140
:10039000002070479140C2F1200320FA03F3194373
:1003A00090407047202A04DB203A21FA02F0002115
:1003B000704721FA02F3D040C2F120029140084375
:1003C00019467047064C074D06E0E06840F001030F
:1003D00094E8070098471034AC42F6D3FFF760FF6B
:1003E000644E0008844E000870B50E461C4681B26B
:1003F0001546002004F072FAB1B2012004F06EFA42
:10040000A9B2022004F06AFAA1B2BDE8704003204C
:1004100004F064BA70B50C461D461646014600202D
:1004200004F0C4FA0120214604F0C0FA022031464B
:1004300004F0BCFA2946BDE87040032004F0B6BAC7
:1004400070B50E461C4681B21546002004F074FAC1
:10045000B1B2012004F070FAA9B2022004F06CFAE3
:10046000A1B2BDE87040032004F066BAFEE710B503
:10047000044602F0B9FFE1094020C1F3440140EA1B
:10048000410002F077FF03F005F8E0B202F072FFDE
:1004900003F000F8BDE8104002F0D0BF044B4FF469
:1004A000905202EB00220A43195490B2FFF7DFBFCB
:1004B0003F000024C10406D50621044A01EB1021A7
:1004C00001F007015054FFF7D2BF00003F000024A5
:1004D0000D4A01280AD002280CD003280ED0042887
:1004E00010D1505C40F4B850FFF7E4BF505C40F4CA
:1004F000A050F9E7505C40F4A850F5E7505C40F498
:10050000B050F1E770470000544E000870B5002469
:1005100002F06AFF4F2002F02DFF02F0BBFF002027
:1005200002F0EEFE054602F089FF443D1C2D2CD260
:10053000DFE805F02B0E10122B2B2B2B1416181A9C
:100540002B2B2B2B1C1E20222B2B2B2B2426282A3B
:1005500001241AE0022418E0032416E0042414E025
:10056000052412E0062410E007240EE008240CE025
:1005700009240AE00A2408E00B2406E00C2404E025
:100580000D2402E00E2400E00F24204670BD10B5BB
:10059000002400212046FFF781FF641CE4B2062CF2
:1005A000F7D340F20340FFF785FF01210846FFF72C
:1005B0008FFF02210846FFF78BFF03210846FFF754
:1005C00087FF0421BDE810400846FFF781BF704750
:1005D0004FF4805010B500F0C1FCBDE810404FF45E
:1005E000005000F0BBBC082000F0B8BC72B6FEE7BB
:1005F0002DE9F84F044600F0E5FD002C009008D0EE
:1006000094F83500022805D080216165002084F827
:100610003400E3E0C84DC84EC7491835206830366D
:10062000DFF81883DFF818938842DFF818A3DFF8A3
:1006300018B32ED0A8422CD0B0422AD0404528D0A2
:10064000484526D0504524D0584522D0BE4A1832BD
:1006500090421ED0BD4A90421BD0BC4A18329042F4
:1006600017D0BA4A3032904213D0B84A483290423A
:100670000FD0B64A603290420BD0B44A78329042E2
:1006800007D0B24A9032904203D0B04AA83290428A
:1006900009D1026822F01E0202602068426922F03D
:1006A0008002426103E0026822F00E0202602768C5
:1006B0008F4238464DD0A8424BD0B04249D0404539
:1006C00047D0484545D0504543D0584541D09E4A33
:1006D000183290423DD09D4A90423AD09B4A1832FF
:1006E000904236D0994A3032904232D0974A4832BE
:1006F00090422ED0954A603290422AD0934A783266
:10070000904226D0914A9032904222D08F4AA8320D
:1007100090421ED08E4A90421BD08D4A1432904295
:1007200017D08B4A2832904213D0894A3C329042EB
:100730000FD0874A503290420BD0854A64329042A3
:1007400007D0834A7832904203D0814A8C32974254
:1007500004D1206E026822F480720260764920681B
:10076000884228D0A84226D0B04224D0404522D08A
:10077000484520D050451ED058451CD072491831EC
:10078000884218D07149884215D070491831884282
:1007900011D06E49303188420DD06C4948318842C1
:1007A00009D06A496031884205D068497831884269
:1007B00001D066499031016821F00101016010E02B
:1007C00000F000FD0099401A05280AD92022626530
:1007D0000020032184F8340084F835100120BDE89E
:1007E000F88F3868C007EBD1534A01212068904246
:1007F0002ED0A8422CD0B0422AD0404528D048451F
:1008000026D0504524D0584522D04F4B183398421B
:100810001ED04E4B98421BD04C4B1833984217D0E9
:100820004A4B3033984213D0484B483398420FD04C
:10083000464B603398420BD0444B7833984207D0F4
:10084000424B9033984203D0404BA833984208D192
:1008500094F85C703F23A06D07F01F07BB408360D6
:1008600007E094F85C30A06D03F01F0301FA03F376
:100870004360206890424DD0A8424BD0B04249D04E
:10088000404547D0484545D0504543D0584541D0D4
:100890002D4A183290423DD02C4A90423AD02B4AF1
:1008A0001832904236D0294A3032904232D0274A0C
:1008B000483290422ED0254A603290422AD0234AB4
:1008C0007832904226D0214A9032904222D01F4A5C
:1008D000A83290421ED01E4A90421BD01C4A1432AD
:1008E000904217D01A4A2832904213D0184A3C320C
:1008F00090420FD0164A503290420BD0144A6432C4
:10090000904207D0124A7832904203D0104A8C327B
:1009100090420BD1D4E919024260E06E30B1026816
:1009200022F480720260D4E91C024260002084F844
:10093000340084F8351052E710000240580002409D
:100940007000024088000240A000024010040240F3
:10095000085402582DE9F05F28B190F835100229AB
:1009600004D0802141650120BDE8F09F904C904B60
:100970000168183C18338E4ADFF83C92A1428D4C36
:10098000DFF838E28E4FDFF83CB2DFF83CA28F4D43
:100990008F4E31D091422FD099422DD0A1422BD0F1
:1009A000494529D0714527D0B94225D0DFF810C27A
:1009B0000CF1180C61451FD0DFF808C2ACF1600CD7
:1009C000614519D0DFF8FCC1ACF1480C614513D08A
:1009D000DFF8F0C1ACF1300C61450DD0DFF8E4C1B7
:1009E000ACF1180C614507D0594505D0514503D0ED
:1009F000A94201D0B1422CD1DFF8B4C14FF00408B4
:100A000080F83580ACF1180C61451DD091421BD0A7
:100A1000994219D0A14217D0494515D0714513D03C
:100A2000B94211D06648183081420DD0654860380F
:100A3000814209D063484838814205D06148303846
:100A4000814201D05F481838086820F00100086032
:100A5000ABE0D1F800C02CF00E08DFF854C1C1F8AB
:100A60000080ACF1180C0168614527D0914225D077
:100A7000994223D0A14221D049451FD071451DD0B4
:100A8000B9421BD0DFF838C10CF1180C614515D004
:100A9000DFF830C1ACF1600C61450FD0DFF824C144
:100AA000ACF1480C614509D0DFF818C1ACF1300C4D
:100AB000614503D0DFF80CC1ACF1180CD1F800C0CF
:100AC0002CF0010CC1F800C0DFF8E4804FF0010CFD
:100AD0000168A8F11808414546D0914244D0994296
:100AE00042D0A14240D049453ED071453CD0B942A8
:100AF0003AD0334A1832914236D0324A603A914263
:100B000032D0304A483A91422ED02E4A303A914261
:100B10002AD02C4A183A914226D0594524D0514522
:100B200022D0A94220D0B1421ED02A4A91421BD0E5
:100B3000284A1432914217D0264A2832914213D0C3
:100B4000244A3C3291420FD0224A503291420BD07B
:100B5000204A6432914207D01E4A7832914203D033
:100B60001C4A8C32914218D1016E0A6822F48072BC
:100B70000A6090F85C20816D02F01F020CFA02F20C
:100B80004A60D0E919124A60C16E31B10A6822F494
:100B900080720A60D0E91C124A600022016D80F860
:100BA000342080F835C001B188470020DCE6000021
:100BB00028000240580002407000024088000240B5
:100BC000A00002407004024088040240A0040240D9
:100BD000B80402400854025870B5044600F0F2FA16
:100BE0000546601C02D004480078044400F0EAFA8C
:100BF000401BA042FAD370BD100000242DE9F0473D
:100C00002DED088B06463220FFF7E6FFB84D4FF476
:100C10008051B84C8E424FF0000814D1284600F0A5
:100C2000C1FA00280BD101222846402100F0BFFA6A
:100C300000222846802100F0BAFA84F80080BDEC3A
:100C4000088BBDE8F087082E4FF001070DD04FF458
:100C500000594E45F3D1A8480780FFF757FCA74E2F
:100C60004FF4FA7A307090B14CE00821284600F039
:100C700099FA0028E3D100222846402100F097FA93
:100C800001222846802100F092FA2770D7E72078C9
:100C900040F2FF37B0B900222846402100F087FA21
:100CA0005046FFF799FF01222846402100F07FFAC5
:100CB0006188A088081A002801DD608002E029B15F
:100CC000A4F802802078012802D01BE06780F9E7B1
:100CD00000222846802100F06AFA5046FFF77CFF88
:100CE00001222846802100F062FA6188A088084429
:100CF000B0F5806F01D2608004E0B94201D1E08894
:100D0000F9E767809FED7E8B9FED7FAB9FED809B2A
:100D10003078012870D19FED80BB207898BB0022ED
:100D20002846402100F043FA5046FFF755FF0122C4
:100D30002846402100F03BFA9FED792B94ED021BF1
:100D400031EE4A0BB4EEC20BF1EE10FA1CDCB0EE41
:100D5000480B31EE402BB4EECB2BF1EE10FA01D262
:100D6000012000E0002030EE411BB0EE4B2BB4EE32
:100D7000C21BF1EE10FA01D2012100E0002108436C
:100D800002D084ED029B01E084ED020B2078012863
:100D900035D100222846802100F009FA5046FFF79D
:100DA0001BFF01222846802100F001FA9FED5E2BF7
:100DB00094ED020B30EE0A1BB4EEC21BF1EE10FAFA
:100DC0001BD330EE491BB4EECB1BF1EE10FA01D26F
:100DD000012000E00020B0EE491B31EE400BB4EEE4
:100DE000CB0BF1EE10FA01D2012100E00021084303
:100DF00003D084ED028B02E010E084ED021B9FED36
:100E00004C2B9FED4D0B94ED021B4DA001EE020B00
:100E1000BDEEC00B10EE101A03F00CFE3078022865
:100E200050D1207808BB00222846402100F0BFF9AD
:100E30005046FFF7D1FE01222846402100F0B7F9C5
:100E40009FED442B94ED020B30EE4A1BB4EEC21B17
:100E5000F1EE10FA02DD84ED021B0BE0B4EE480B5C
:100E6000F1EE10FA02D184ED029B03E0B0EE480BE4
:100E700084ED020B2078012824D10022284680210D
:100E800000F095F95046FFF7A7FE01222846802181
:100E900000F08DF994ED020BB7EE002B30EE0A1B3B
:100EA000B4EEC21BF1EE10FA02D284ED021B09E08F
:100EB000B4EE490BF1EE10FA02D184ED028B01E0A1
:100EC00084ED029B307803280CD101222846402172
:100ED00000F06DF95046FFF77FFE002228464021C2
:100EE00000F065F94FF0B041C1F88890A7E6000026
:100EF00000080258000000243C0000243E000024AA
:100F0000333333333333D33F9A9999999999B93F0E
:100F1000CDCCCCCCCCCCEC3F9A9999999999A93F5E
:100F2000295C8FC2F528CC3F5C8FC2F5285CEF3F6F
:100F300000000000000059407B14AE47E17A843F76
:100F400074372E7478743D2225642025252022FFD5
:100F5000FFFF00009A9999999999C93F4FF0B041C4
:100F600010B5D1F88820024203D0C1F88800FFF7FD
:100F700045FE10BD2DE9FC4F01257E4C00234FF0AE
:100F8000030A4FF0B04E4FF00F0BEBE005FA03F6FB
:100F900037403A0077D04F68012F05D0022F03D099
:100FA000112F01D0122F1AD187684FEA4308D1F8C8
:100FB0000CC00AFA08F927EA09070CFA08FC4CEAFF
:100FC000070CC0F808C0476891F804C0B743CCF3D9
:100FD000001C0CFA03FC4CEA070CC0F804C0C668FD
:100FE0004FEA430CD1F80880E1460AFA0CF7BE43F9
:100FF000019708FA09F848EA0608C0F80C804E681C
:10100000022E01D0122E12D1DE084FEA437C00EBF3
:10101000860600960F69366A4FEADC6C0BFA0CF80C
:1010200007FA0CF726EA08063743009E37620E7966
:101030000768DDF804C006F0030606FA09F627EA99
:101040000C073E4306604E68F6001CD54A4E3768D2
:1010500047F00207376036689F0706F002060096E1
:1010600023F0030606F1B046B1463F0FD6F80864F8
:10107000DFF808810BFA07FC404526EA0C0603D18D
:101080004FF0000C41E06CE0DFF8F4C0604502D1A5
:101090004FF0010C39E0DFF8ECC0604502D14FF0B1
:1010A000020C32E0DFF8E0C0604502D14FF0030CE3
:1010B0002BE0DFF8D8C0604502D14FF0040C24E0EB
:1010C000DFF8CCC0604502D14FF0050C1DE0DFF821
:1010D000C4C0604502D14FF0060C16E0DFF8B8C07E
:1010E000604502D14FF0070C0FE0DFF8B0C060455B
:1010F00002D14FF0080C08E0DFF8A4C0604502D12F
:101100004FF0090C01E04FF00A0C0CFA07FC4CEA16
:10111000060CC9F808C426684F6826EA0206FF03D1
:1011200000D51643266066684F6826EA0206BF03AC
:1011300000D516436660D1F804C07646DEF800702C
:101140005FEACC2C27EA020700D517433760D1F8B5
:1011500004C077685FEA8C2C27EA020700D51743A2
:1011600077605B1C0A681746DA407FF40FAFBDE872
:10117000FC8F000080000058F44402580000025820
:101180000004025800080258000C025800100258CF
:101190000014025800180258001C0258002002587F
:1011A000002402580069084000D0012070470AB1AD
:1011B000816170470904FBE701480068000C704733
:1011C0000010005C01488068704700001000002497
:1011D0000248816802781144816070471000002441
:1011E000032010B500F03CF901F0AAF80F4A1049AD
:1011F00014681368C4F3032203F00F038A5CC95C0C
:1012000002F01F0201F01F01D0400A4A20FA01F14A
:101210001160094908600E2000F010F808B10120A3
:1012200010BD00F0D3F8002010BD00001844025893
:10123000444E0008200000241C00002470B50D4D11
:1012400004462878A0B14FF47A71B1FBF0F00A4956
:101250000968B1FBF0F001F0B1FB48B9102C07D2DE
:1012600000222146501E00F0DBF800206C6070BDAB
:10127000012070BD100000241C0000242DE9F0475F
:10128000040005D094F836004FF6FF7518B108E059
:101290000120BDE8F087002084F83500204600F0EA
:1012A0005DF8022084F836004FF4000AD4E90063A8
:1012B000F268012B02D0A06A504501D122F01E0233
:1012C0006169A946494502D04EF2C0008243D4F874
:1012D00008C0D4E9087843EA0C00DFF870C0A56ABA
:1012E00047EA080740EA070002EA0C0240EA050064
:1012F00040EA0200DBB1012B01D0554503D1D4E90E
:1013000003231A431043494505D0D4E90632194353
:10131000024341EA0200F0600D492068884202D091
:101320000C49884208D1D4E90B12114308E0236923
:10133000E2691A431043E0E70749884201D1E16AB4
:101340004162012084F836000020A2E7FEF119FF77
:1013500000240040002400580028005810B5B0B008
:101360000446BC216846FEF7EDFF15492068884217
:101370000CD120204FF0A04123910090684600F04E
:1013800001FA08B1FFF732F90E480EE00E49884223
:1013900013D14020009000216846269100F0F2F918
:1013A00008B1FFF723F907480C30016841F40071D8
:1013B0000160006800F400702F9030B010BD000094
:1013C00000240040E8440258002400580C4808B5A6
:1013D000016841F002010160016801F00201009121
:1013E000016841F400410160006800F40040009091
:1013F00001F0C6FABDE80840022001F0C9BA0000B9
:10140000F4440258002809DB410900F01F0289005A
:10141000012001F1E0219040C1F800017047000077
:101420000E4BF0B41B680D46C3F30223C3F107064D
:10143000042E00D90426191D072901D2002300E03B
:10144000DB1E012404FA06F19C40491E2940641E5B
:10145000994014402143F0BC03F0FCBA0CED00E0CD
:10146000064900F0070210B54FF6FF040868044B68
:10147000204040EA02201843086010BD0CED00E057
:101480000000FA05134970B50A68D243520705D522
:10149000096801F00701814213D118E00A6822F0BF
:1014A000070202430A60FFF78DFE0A4D4FF47A7679
:1014B0000446083D07E000BFFFF784FE001BB04272
:1014C00001D9012070BD2868C0438004F4D40020F5
:1014D00070BD00000C48025810B500F0EBFE054945
:1014E0000968054AC1F30211515C01F01F01C840AF
:1014F00010BD000020440258444E0008494930B550
:10150000484C0B1D0A68143409681D68246802F0F1
:101510000303C5F30012C1F30531C4F3CC04002961
:1015200014FB02F200EE102AF8EE400A75D03F4A92
:101530009FED3D1AB7EE000A6BB1DFED3D1A012BAE
:1015400001D0022B64D002EE101A1168F8EE422A84
:1015500081EEA22A21E0334C283C23689B0612D559
:10156000344B246801EE901A1168C4F3C104F8EEFC
:10157000612AE34001EE903AC1F30801F8EE611AE6
:1015800081EEA22A0BE001EE901ADFED2B2A00BFBC
:10159000F8EE611A116882EEA12AC1F3080101EE8A
:1015A000901A1168F8EE611A40EE811A71EE800A05
:1015B00062EE200AC1F3462101EE101AB8EE411A7C
:1015C00031EE001AC0EE811ABCEEE11A80ED001A6D
:1015D0001168C1F3064101EE101AB8EE411A31EE5E
:1015E000001AC0EE811ABCEEE11A80ED011A1168F2
:1015F000C1F3066101EE101AB8EE411A31EE000A8D
:1016000080EE801ABCEEC10A80ED020A30BD04E013
:1016100001EE901ADFED092ABAE70021016041606E
:101620008160F3E72844025800000039384402582A
:101630000024744A0090D0030024744C20BCBE4B9C
:10164000494930B5484C0B1D0A681C3409681D68AF
:10165000246802F00303C5F30022C1F30551C4F36B
:10166000CC04002914FB02F200EE102AF8EE400A26
:1016700075D03F4A9FED3D1AB7EE000A6BB1DFED22
:101680003D1A012B01D0022B64D002EE101A116812
:10169000F8EE422A81EEA22A21E0334C283C23684E
:1016A0009B0612D5344B246801EE901A1168C4F3DE
:1016B000C104F8EE612AE34001EE903AC1F308015B
:1016C000F8EE611A81EEA22A0BE001EE901ADFED2E
:1016D0002B2A00BFF8EE611A116882EEA12AC1F32D
:1016E000080101EE901A1168F8EE611A40EE811AB5
:1016F00071EE800A62EE200AC1F3462101EE101A53
:10170000B8EE411A31EE001AC0EE811ABCEEE11AB1
:1017100080ED001A1168C1F3064101EE101AB8EE0F
:10172000411A31EE001AC0EE811ABCEEE11A80EDCA
:10173000011A1168C1F3066101EE101AB8EE411AE0
:1017400031EE000A80EE801ABCEEC10A80ED020A7A
:1017500030BD04E001EE901ADFED092ABAE700215E
:10176000016041608160F3E72844025800000039BD
:10177000404402580024744A0090D0030024744C62
:1017800020BCBE4B2DE9FC5F044650F8241B00250D
:1017900000902E460801FE4FDFF8F8831DD5606EDD
:1017A00050B1B0F5801F0CD0B0F5001F0ED0B0F5D1
:1017B000401F1DD001250FE0386840F4003038602C
:1017C00016E00221201D02F043F803E000980221F8
:1017D00002F0CEF805000BD02E462088C00523D598
:1017E000606D05281ED2DFE800F00C11161B1B00EF
:1017F000626ED8F8001021F440111143C8F80010AF
:10180000EBE7386840F40030386009E00021201D23
:1018100002F01EF803E00098002102F0A9F8054646
:101820006DB100E001252E462088800528D5A06DE9
:1018300080281ED00CDC90B140280ED114E0626DDF
:10184000D8F8001021F007011143C8F80010EBE7A9
:10185000C02813D0B0F5807F10D001250FE0386884
:1018600040F40030386009E00021201D01F0F0FF55
:1018700003E00098002102F07BF8054695B12E4662
:101880002088DFF81093400509F108092CD5D4F819
:10189000A400B0F5800F20D00DDCA0B1B0F5001F82
:1018A0000FD115E0A26DD8F8001021F4E0711143BA
:1018B000C8F80010E4E7B0F5C00F13D0B0F5000F82
:1018C00010D001250FE0386840F40030386009E09E
:1018D0000021201D01F0BCFF03E00098002102F070
:1018E00047F8054675B12E46208800052DD5D4F859
:1018F000A800B0F1007F21D00EDCA8B1B0F1807F4C
:1019000010D116E0D4F8A420D9F8001021F4600119
:101910001143C9F80010E7E7B0F1407F13D0B0F1F0
:10192000806F10D001250FE0386840F40030386037
:1019300009E00021201D01F08BFF03E00098002149
:1019400002F016F805466DB12E46206880011FD5BD
:10195000A06CD8B110280FD0202812D0302815D074
:10196000012514E0D4F8A820D9F8001021F0E06196
:101970001143C9F80010E8E7386840F400303860D7
:1019800004E00221201D01F063FF05466DB12E46E3
:101990002088C0042BD5E06DB0F5005F20D00DDCB1
:1019A000A0B1B0F5805F0FD115E07A48A26C001F9E
:1019B000016821F0300111430160E9E7B0F5405FB3
:1019C00013D0B0F5804F10D001250FE0386840F4F7
:1019D0000030386009E00021201D01F039FF03E0EC
:1019E0000098002101F0C4FF054685B12E462088ED
:1019F000800429D5206EB0F5403F23D010DC08B319
:101A0000B0F5803F14D0B0F5003F0FD115E0E26D86
:101A1000D8F8001021F4E0411143C8F80010E6E7BF
:101A2000B0F5802F0ED0B0F5A02F0BD001250AE025
:101A30000121201D01F00CFF03E00098012101F0BD
:101A400097FF05468DB12E46208840042AD5D4F84C
:101A5000AC00B0F1405F23D010DC08B3B0F1805F80
:101A600014D0B0F1005F0FD115E0226ED8F800104D
:101A700021F4E0211143C8F80010E5E7B0F1804FF0
:101A80000ED0B0F1A04F0BD001250AE00121201D9E
:101A900001F0DEFE03E00098012101F069FF054638
:101AA0006DB12E46208800041FD5E06ED8B1B0F18C
:101AB000805F0ED0B0F1005F10D0012514E0D4F8A3
:101AC000AC20D9F8001021F0E0411143C9F8001012
:101AD000E8E7386840F40030386004E00121201D58
:101AE00001F0B6FE05466DB12E462068C0011ED538
:101AF000606CD0B101280ED0022811D0032814D078
:101B0000012513E0E26ED8F8001021F04051114396
:101B1000C8F80010E9E7386840F40030386004E0A5
:101B20000221201D01F094FE054685B12E46206855
:101B3000DFF85CB04002ABF11C0B57D516480168CA
:101B400041F480710160FFF73DFB82460EE01148D1
:101B5000626C001F016821F0030111430160E6E798
:101B6000FFF730FBA0EB0A0064283DD80A48006864
:101B7000C005F5D57DBBDFF81CA0B4F8B0200AF194
:101B8000200ADAF8001002F4407001F4407105E018
:101B90002C4402585044025800480258814211D047
:101BA000DAF80010DAF8002021F4407142F48032B3
:101BB000CAF80020DAF8002022F48032CAF80020A7
:101BC000CAF80010D4F8B000B0F5807F21D1FFF73B
:101BD000F9FA019019E008E0FFF7F4FA0199411AC7
:101BE00041F28830814210D903252E462078DFF853
:101BF00044A4C0073DD0A06F182838D026DC80B39D
:101C0000082829D0102825D12CE0DAF80000800718
:101C1000E2D5D4F8B010C1F30120032858460DD006
:101C2000016821F47C510160B4F8B020DAF80010AA
:101C3000C2F30B021143CAF80010D7E7FE4A03684B
:101C400002EA111223F47C511143ECE720280ED054
:101C500028280CD001250BE00121201D01F0F8FD02
:101C600004E004E00098012101F082FE05465DB128
:101C70002E46207880071ED5606F062819D2DFE82F
:101C800000F0160C11161616A26FDAF8001021F0EB
:101C900038011143CAF80010EBE70121201D01F0C3
:101CA000D7FD03E00098012101F062FE054675B101
:101CB00000E001252E46207840071FD5D4F890007B
:101CC000062819D2DFE800F0160C11161616626FFE
:101CD000DAF8001021F007011143CAF80010EAE712
:101CE0000121201D01F0B4FD03E00098012101F065
:101CF0003FFE05469DB100E001252E462078800676
:101D00002BD5D4F88C00B0F1405F24D011DC10B397
:101D1000B0F1805F15D0B0F1005F10D116E0D4F8BB
:101D20009020D9F8001021F007011143C9F80010E4
:101D3000E4E7B0F1804F0ED0B0F1A04F0BD00125F9
:101D40000AE00021201D01F083FD03E0009802213C
:101D500001F00EFE05468DB12E46207840062BD5AB
:101D6000D4F89800B0F5406F24D011DC10B3B0F572
:101D7000806F15D0B0F5006F10D116E0D4F88C202C
:101D8000DAF8001021F0E0411143CAF80010E4E74E
:101D9000B0F5805F0ED0B0F5A05F0BD001250AE052
:101DA0000021201D01F054FD03E00098022101F004
:101DB000DFFD05468DB12E46207800062BD5D4F8E0
:101DC0009C00B0F5C04F24D011DC10B3B0F5005F1B
:101DD00015D0B0F5804F10D116E0D4F89820D9F87E
:101DE000001021F4E0511143C9F80010E4E7B0F508
:101DF000004F0ED0B0F5204F0BD001250AE0002196
:101E0000201D01F025FD03E00098022101F0B0FD46
:101E100005464DB12E46207800071ED5D4F8800027
:101E2000B0F5805F0AD00FE0D4F89C20D9F80010FC
:101E300021F460411143C9F80010ECE70098022139
:101E400001F096FD00B10126D4F88020DAF80010E8
:101E500021F440511143CAF800102078C00613D570
:101E6000D4F89400B0F5807F05D10098022101F0EC
:101E70007FFD00B10126D4F89420D9F8001021F498
:101E800040711143C9F800102068000316D5D4F83A
:101E9000A00038B1B0F5803F09D0B0F5003F0BD0BD
:101EA00001250AE00021201D01F0D2FC03E000988A
:101EB000022101F05DFD054685B12E4620684003F4
:101EC00022D5D4F88400B0F5801F11D0B0F5001FE2
:101ED00013D0B0F5401F15D0012514E0D4F8A02090
:101EE000D9F8001021F440311143C9F80010E5E79A
:101EF000386840F40030386004E00098012101F0B7
:101F000037FD054655B12E462068C0031CD5E06C50
:101F100070B1B0F5803F10D0012514E0D4F88420D2
:101F2000DAF8001021F440111143CAF80010EBE771
:101F3000386840F40030386004E00221201D01F0D0
:101F400087FC0546CDB12E462068800005D5009857
:101F5000022101F00DFD00B10126206880031BD590
:101F6000E06FB8B1B0F5807F10D0B0F5007F11D030
:101F7000B0F5407F0ED001250DE02E48E26C083808
:101F8000016821F4803111430160DDE7386840F4D5
:101F900000303860F5B32E462068C00207D5226FA6
:101FA000D8F8001021F000411143C8F80010206853
:101FB000C00008D5D4F8B420DBF8001021F480412B
:101FC0001143CBF800102068800207D5A26ED8F824
:101FD000001021F080711143C8F800102068400003
:101FE0000CD5DBF8001021F40041CBF80010DBF831
:101FF0000010D4F8B8201143CBF800102068002856
:1020000007DA0C48226D0838016821F0405111436D
:10201000016000E014E02068000208D5D4F88820B0
:10202000DAF8001021F440011143CAF8001086B11B
:10203000012003E054440258CFFFFF00BDE8FC9F9D
:10204000E26FDAF8001021F440711143CAF8001071
:10205000A2E70020EDE700002DE9F05F04000F4645
:102060007ED0DFF83882D8F8000000F00F00B842C8
:102070000CD2D8F8001021F00F013943C8F8001035
:10208000D8F8000000F00F00B84269D12078844DE4
:1020900040070AD52069296801F07001884204D9F7
:1020A000296821F070010143296020787C4E361D9B
:1020B00000070AD56069316801F07001884204D9CF
:1020C000316821F07001014331602078C0060AD5E3
:1020D000A069316801F4E061884204D9316821F4D3
:1020E000E061014331602078DFF8B4B180060BF184
:1020F000080B0CD5E1695846DBF8002002F07002AD
:10210000914204D9026822F070020A4302602078EA
:1021100080070AD5E068296801F00F01884204D9D8
:10212000296821F00F01014329602078C0073ED0C3
:102130005B49A2682868183920F470601043286051
:102140006068022818D0032819D00968012819D01E
:10215000490700294ADADFF848A1AAF1080A00E095
:1021600044E0DAF8002022F007020243CAF8002017
:10217000FFF728F8814612E009688903E9E7096852
:102180008901E6E7C905E4E7FFF71CF8A0EB0901C0
:1021900041F28830814202D90320BDE8F09F616896
:1021A000DAF8000000F03800B0EBC10FECD1207875
:1021B00080070AD5E068296801F00F01884204D23F
:1021C000296821F00F0101432960D8F8001040462A
:1021D00001F00F01B9420BD9016821F00F01394319
:1021E0000160006800F00F00B84201D00120D4E780
:1021F000207840070AD52069296801F070018842DB
:1022000004D2296821F07001014329602078000779
:102210000AD56069316801F07001884204D23168E2
:1022200021F07001014331602078C0060AD5A06911
:10223000316801F4E061884204D2316821F4E06140
:1022400001433160207880060CD5E1695846DBF8FF
:10225000002002F07002914204D2026822F0700263
:102260000A43026000F06CF80E492A682B68C2F33A
:10227000032203F00F038A5CC95C02F01F0201F025
:102280001F01D040084A20FA01F111600749086097
:1022900007480068BDE8F05FFEF7D0BF002000529D
:1022A00018440258444E0008200000241C0000245A
:1022B0001400002430B500F043F80B4A0B490C4BD6
:1022C00015681468C5F3032204F00F048A5C095DE5
:1022D00002F01F0201F01F01D040064A20FA01F16E
:1022E00019601060084630BD18440258444E00087A
:1022F000200000241C00002400B5FFF7DBFF054987
:102300000968054AC1F30211515C01F01F01C84080
:1023100000BD00001C440258444E000800B5FFF701
:10232000C9FF05490968054AC1F30221515C01F062
:102330001F01C84000BD00001C440258444E000864
:10234000454970B545480968434B103B11F03802C8
:1023500008D00111082A03D0102A0BD0182A0BD05C
:10236000084670BD19688906FBD51968C1F3C1011B
:10237000C84070BD3A4870BD3749374D18310C1D03
:1023800024350A68096826682D6802F0030406F0FF
:102390000102C1F30511C5F3CC0515FB02F200EEF5
:1023A000102AB8EE400AE9B32F4ADFED2E0AB7EE45
:1023B000001A6CB1DFED2D1A012C01D0022C43D094
:1023C00002EE101A1068F8EE422A81EEA22A1EE0F0
:1023D0001C68A40611D51B6801EE901A1168C3F39E
:1023E000C103F8EE612AD84001EE900AC1F308005B
:1023F000F8EE611A81EEA22A0BE001EE901ADFEDF1
:102400001C2A00BFF8EE611A106882EEA12AC0F300
:10241000080001EE900AF8EE611A40EE201A31EE43
:10242000810A00E015E022EE000A1068C0F34620A1
:10243000401C00EE900AF8EE600A80EE201ABCEE16
:10244000C10A10EE100A70BD01EE901ADFED092AE4
:10245000D8E7002070BD0000104402580090D0035F
:1024600040787D0100000039304402580024744A4D
:102470000024744C20BCBE4B2DE9F05F04007CD0DE
:10248000FF4F2078FE4D1837DFF8F493103DC0075A
:1024900048D0D9F80000396800F03800102815D06D
:1024A000182803D101F0030002280FD06068B0F5AE
:1024B000803F12D010B1B0F5A02F18D0286820F4BA
:1024C00080302860286820F4802009E02868800394
:1024D00028D560680028D2D024E0286840F48030F5
:1024E0002860606888B1FEF76DFE064609E028683E
:1024F00040F480202860F0E7FEF764FE801B64282B
:102500007ED828688003F7D50CE0FEF75BFE064610
:1025100005E000BFFEF756FE801B6428F0D828684F
:102520008003F7D4207841F20308D54E0C3E800793
:1025300053D5D9F80000396810F038000ED01828AB
:1025400001D188070AD0E068A8B3296821F01901F1
:1025500001432960FEF736FE82461BE028684007EB
:1025600002D5E06800288AD0FEF726FE40451BD839
:102570002069402812D0316800E0CCE021F47C31A1
:1025800041EA0030306028E0FEF71CFEA0EB0A00B4
:102590000228B5D828684007F6D5E5E7306820F46A
:1025A0007C3040F40030EDE7207C316821F0FE41C2
:1025B00041EA0060E6E7FFE7286820F001002860B4
:1025C000FEF700FE824605E0FEF7FCFDA0EB0A00E8
:1025D000022895D828684007F6D42078C0065FD531
:1025E000D9F80000DFF898B2396800F03800ABF194
:1025F000040B082812D0182805D101F0030000E0D0
:10260000EAE001280AD0E0690028286838D040F0C4
:1026100080002860FEF7D6FD824623E02868C005CA
:1026200023D5E069802876D11FE0206A202821D0B8
:10263000316821F0F84141EA8060306030E000BF4D
:1026400094F82010DBF8002022F07C5242EA01616D
:10265000CBF8001024E000BFFEF7B4FDA0EB0A00A9
:10266000022896D82868C005F6D5FEF7A5FD404596
:10267000E6D8DAE7306820F0F84040F08040DCE748
:1026800020F080002860FEF79DFD064605E000BFB3
:10269000FEF798FD801B02289BD82868C005F7D458
:1026A0002078000729D57648616964300029804682
:1026B000016811D041F001010160FEF783FD06467B
:1026C00005E000BFFEF77EFD801B0228C9D8D8F8C0
:1026D00000008007F6D510E021F001010160FEF74F
:1026E00071FD064605E000BFFEF76CFD801B022869
:1026F00072D8D8F800008007F6D42078800623D559
:10270000A0690028286810D040F480502860FEF7A7
:1027100059FD064605E02CE1FEF754FD801B02281A
:102720005AD828688004F7D50EE020F4805028603D
:10273000FEF748FD064604E0FEF744FD801B022834
:102740004AD828688004F7D4207840074FD5DFF8AE
:102750003481D8F8001041F48071C8F80010FEF7F9
:1027600031FD064605E000BFFEF72CFD801B642806
:1027700032D8D8F80000C005F6D5414EA0686036C2
:1027800001280AD008B1052813D0306820F00100D4
:102790003060306820F0040002E0306840F0010052
:1027A0003060A06841F2883A90B1FEF70BFD804698
:1027B0000AE0306840F004003060EEE7FEF702FD0A
:1027C000A0EB0801514507D830688007F6D50EE028
:1027D000FEF7F8FC804607E084E000BFFEF7F2FC5D
:1027E000A0EB080151457DD830688007F6D4606AB7
:1027F000F0B3DFF88C80D9F8001008F12008C1F39D
:10280000C20103296FD00228286820F08070286058
:1028100003D0FEF7D7FC044680E0FEF7D3FC064663
:1028200005E000BFFEF7CEFC801B022873D82868A5
:102830008001F7D4E26A40F2F331386854F8283F57
:10284000884340EA021018433860217B4FF4FE0CA5
:1028500022894FF0FE47208A4902267D521E401EE3
:10286000A1F5007189B20CEA0040C2F3080200E051
:1028700081E01143761E0143014807EA066203E046
:1028800010440258004802581C3011433B4AC8F813
:102890000010016821F00101016011684FF6F8761F
:1028A000236AB14341EAC30111600168A26921F0C2
:1028B0000C01114301600168E26921F0020111433A
:1028C0000160016841F480310160016841F4003128
:1028D0000160016841F480210160016841F001015B
:1028E000016001E017E01DE0286840F0807028607A
:1028F000FEF768FC044604E0FEF764FC001B0228B7
:1029000009D828688001F7D535E000BFFEF75AFCEA
:10291000001B022802D90320BDE8F09F286880012F
:10292000F4D428E039680128D8F8000021D0A26A40
:1029300001F0030393421CD1E26AC1F305118A42FC
:1029400017D1216BC0F30802491E8A4211D1616B75
:10295000C0F34622491E91420BD1A16BC0F306423F
:10296000491E914205D1E16BC0F30660491E8142C8
:1029700001D00120D0E70020CEE700003444025807
:102980000248016821F0010101607047003C0058D5
:1029900003490A6822F0020202430A6070470000FD
:1029A000003C005804284FF0E020016903D021F0DA
:1029B00004010161704741F00401FAE7401EB0F1E3
:1029C000807F10B501D3012010BD4FF0E02460617D
:1029D0000F21601702F03EF80020A061072121615D
:1029E00010BD0000F0B590F83C20012A38D01D4EF3
:1029F000012480F83C40022280F83D2002681A4DF4
:102A00005368B242D2F808C001D0AA4203D14F683D
:102A100023F470033B430F6823F070031F43576098
:102A20000268B24210D0B2F1804F0DD00F4B9A42E3
:102A30000AD00F4B9A4207D00E4B9A4204D0AA42BA
:102A400002D00D4B9A4204D189682CF080031943BF
:102A50009160002180F83D4080F83C100846F0BDB0
:102A60000220F0BD000001400004014000040040CD
:102A700000080040000C00400018004010B50400A1
:102A800003D094F83D0010B107E0012010BD0020F4
:102A900084F83C00204600F023F8022084F83D0032
:102AA0002068211D01F0BCF8012084F8480084F85A
:102AB0003E0084F83F0084F8400084F8410084F828
:102AC000420084F8430084F8440084F8450084F808
:102AD000460084F8470084F83D00002010BD000047
:102AE00008B500680649884208D10648016841F0E7
:102AF00004010160006800F00400009008BD0000BF
:102B000000080040E844025870B5044690F83C00C4
:102B1000012814D0394B012584F83C50022084F858
:102B20003D0022689068184020F47F40906008685B
:102B3000702828D010DC10F00F0F03D04BE04FF0BE
:102B4000020070BD4FEA2012072A44D2DFE802F0EB
:102B50005151515149323A00B0F1101F49D009DCAE
:102B6000B0F5805F37D0B0F5005F17D0B0F5801FAB
:102B700031D13EE0A0F5801120393AD0102938D06B
:102B8000202928D135E04A682068D1E9021301F0F4
:102B9000A9F82068816841F0770109E04A68206857
:102BA000D1E9021301F09EF82068816841F4804168
:102BB000816010E0CA684968206801F0A7F82068C1
:102BC000502106E0CA684968206801F0B0F8206822
:102BD000602101F091F8002084F83D5084F83C0019
:102BE00070BDCA684968206801F090F820684021EB
:102BF000EFE7226801461046EBE7000088FFCEFFB2
:102C000030B590F88010012918D0012280F880207A
:102C10002421C0F884100022202450F8641B0B6883
:102C20000D6823F0005325F001050D60026050F897
:102C3000641C0B6004620277104630BD022030BD78
:102C40007047704770B5044690F8800001281DD089
:102C5000012284F880202420C4F8840020680568BC
:102C6000026822F0010202602068826822F060623D
:102C70000A438260204601F095F822682021002056
:102C80001560C4F8841084F8800070BD022070BD07
:102C900070B5044690F8800001281DD0012284F808
:102CA00080202420C4F8840020680568026822F08F
:102CB000010202602068826822F060420A4382605A
:102CC000204601F06FF82268202100201560C4F82A
:102CD000841084F8800070BD022070BD704770477A
:102CE00070470146D0F88400D1F888100843704737
:102CF0002DE9F04103680446002540F60F06D86927
:102D000019689A68304209D186067DD501F02006FF
:102D100002F080573E4377D0216F39E1AF4EB04F7C
:102D200016400F4037436FD0C70709D0CF0507D5EE
:102D300001271F62D4F88C3043F00103C4F88C30B3
:102D400083070AD5D30708D0276802233B62D4F84B
:102D50008C3043F00403C4F88C3043070AD5D30702
:102D600008D0276804233B62D4F88C3043F0020378
:102D7000C4F88C3003070CD501F02003334308D08E
:102D8000266808233362D4F88C3043F00803C4F873
:102D90008C3003050BD54B0109D526684FF4006331
:102DA0003362D4F88C3043F02003C4F88C30D4F86C
:102DB0008C30002B34D0800609D501F0200002F0C1
:102DC0008051084303D0216F09B12046884721680C
:102DD000D4F88C008968490602D410F0280F21D05D
:102DE000204601F09FF820688168490615D5816862
:102DF00021F040018160E06F78B17A490165E06FB0
:102E0000FDF7A8FD002800E012E009D0E06F016D99
:102E100000E02046BDE8F04108472046FFF760FF8C
:102E2000BDE8F0812046FFF75BFFC4F88C50F7E760
:102E3000E76E2026012F71D1C7066FD5CF066DD55D
:102E40001020186222689068400669D5E16F664BD1
:102E50000868984234D0644B1833984230D0624BA3
:102E6000303398422CD0604B4833984228D05E4B88
:102E70006033984224D05C4B7833984220D05A4B30
:102E8000903398421CD0584BA833984218D0574BD7
:102E9000984215D0554B1833984211D0534B3033CC
:102EA00098420DD0514B4833984209D04F4B603374
:102EB000984205D04D4B7833984201D04B4B90331C
:102EC00040680004000CABD0B4F85C308342A7D952
:102ED000A4F85E00C869B0F5807F18D0106820F4AF
:102EE000807010602068816821F001018160206895
:102EF000816821F040018160C4F88860E56620683F
:102F0000016821F010010160E06FFDF771FBB4F87A
:102F10005C00B4F85E10401A81B220E023E0FFE7C5
:102F2000B4F85C00B4F85E10B4F85E30401A81B2B8
:102F3000002BC8D00029C6D010682D4B20F490700B
:102F400010602068826802EA03028260C4F8886028
:102F5000E56625672068026822F0100202602046BC
:102F6000FFF76EFE5CE7C70209D5570207D54FF49D
:102F7000801018622046BDE8F041FFF7B0BE07069A
:102F80000AD501F0800702F40002174304D0616FF4
:102F900000297FF43EAF43E742060CD54A060AD526
:102FA0001968204621F040011960C4F88460656703
:102FB00000F04FF934E7020206D54A0004D5204656
:102FC000BDE8F041FFF78ABEC001CBD50029C9DAC0
:102FD0002046BDE8F041FFF734BE000001000010BC
:102FE00020010004113F00081000024010040240BC
:102FF000FEFFFFEF10B5040003D0D4F8840010B139
:1030000007E0012010BD002084F88000204600F079
:1030100027F82420C4F884002068016821F0010109
:103020000160204601F062F90128EBD0A06A10B1DE
:10303000204600F0D9FE2068416821F490414160AB
:103040002068816821F02A0181602068016841F0D0
:10305000010101602046BDE8104000F029BF0000DA
:1030600010B5B6B0044614212FA8FDF76BF9BC21AA
:103070006846FDF767F918492068884229D100247D
:103080001E94012000906846FEF77CFB08B1FDF716
:10309000ADFA1248016841F010010160006800F0CB
:1030A000100034900D481038016841F002010160B1
:1030B00000682FAB022100F0020034904FF4404032
:1030C000042283E8130006482FA9CDE93242FDF718
:1030D00051FF36B010BD000000100140F04402580E
:1030E0000004025870B4D0F88830202B1BD1B9B13D
:1030F000B2B190F88030012B15D0036801260B4D3A
:10310000002480F88060C466AB4206D05C6824026C
:1031100003D51C6844F080641C6070BC01F0BCBA2C
:10312000012070BC70470220FBE70000000C005833
:10313000F0B40068144988420CD1144881880A040C
:1031400008D402464FF000034C04127807D50A2A2F
:1031500002D08380F0BC704741F4004112E00D2A98
:103160000ED00B4EC1F30D054C1CA1B240F2DB5446
:10317000A14272558180EDD98380F0BC01F03ABE46
:1031800041F480418180E5E7004C0040300000249C
:103190009C0100242DE9F8430446D0F884001F4622
:1031A00016460D46202852D1DDB1D6B194F88000E4
:1031B00001284CD0012084F8800021224FF0000823
:1031C000C4F88C80C4F884201834FDF7FBFF8146D6
:1031D00054F8100CA687E687183CB0F5805F03D042
:1031E00004E00120BDE8F883206920B12E460025C7
:1031F00084F8808010E00026FAE78021204601F064
:10320000B7FAB8B9C6B116F8010B21688862B4F8EC
:103210005600401EA4F85600B4F856004B464FF036
:10322000000200970028E8D14FF04001204601F04D
:103230009FFA38B10320D5E735F8020B2168C0F3B7
:103240000800E3E72020C4F884000020CAE7022039
:10325000C8E77047FEE7000070B5134C4FF4804597
:10326000002229462046FDF7A2FF206820F04040BA
:103270002060206840F080402060002220466900E5
:10328000FDF795FF012001F0CDFC012229462046E3
:10329000FDF78DFF012001F0C5FC29462046BDE861
:1032A00070400022FDF783BF0008025870B5134C30
:1032B0004FF48045002229462046FDF778FF20681C
:1032C00020F040402060206840F0804020600122D3
:1032D0002046D103FDF76BFF012001F0A3FC012282
:1032E00029462046FDF763FF012001F09BFC29469B
:1032F0002046BDE870400022FDF759BF0008025883
:103300002DE9F0471A4C80464FF48047206800258D
:103310004FF400492E4620F0404020602068206095
:10332000002239462046FDF742FF012001F07AFCD9
:10333000012239462046FDF73AFF68064946050E48
:103340002046FDF72FFF08B16D1CEDB2012001F002
:1033500069FC761CF6B2082EE2D3B8F1000F04D057
:10336000FFF77AFF2846BDE8F087FFF79FFFF9E7F0
:10337000000802582DE9F0411A4C06462046216803
:1033800021F040412160216841F0804121604FF4EB
:10339000804700223946FDF70AFF00254FF4004818
:1033A000300601D5012200E0002241462046FDF70B
:1033B000FEFE700639460122060E2046FDF7F7FE96
:1033C000012001F02FFC002239462046FDF7EFFED8
:1033D000012001F027FC6D1CEDB2082DE0D3BDE803
:1033E000F08100000008025870B5134C206820F0EE
:1033F00040402060206840F080402060012220464C
:10340000D5032946FDF7D3FE012220469603314617
:10341000FDF7CDFE012001F005FC002229462046E3
:10342000FDF7C5FE012001F0FDFB31462046BDE859
:1034300070400022FDF7BBBE0008025870B5144C66
:10344000206820F040402060206840F080402060EC
:103450004FF48045204600222946FDF7A8FE6E0065
:10346000204600223146FDF7A2FE012001F0DAFBE2
:10347000012229462046FDF79AFE012001F0D2FBE9
:1034800031462046BDE870400122FDF790BE0000A5
:10349000000802582DE9F041184C206820F0404007
:1034A000206020680025206001222046D603314696
:1034B000FDF77DFE012001F0B5FB012220469703B8
:1034C0003946FDF774FE012001F0ACFB08E06D1CED
:1034D000EDB2FA2D04D9FFF7B1FF0120BDE8F0816C
:1034E00031462046FDF75EFE0028F0D10022394625
:1034F0002046FDF75CFE0020F0E7000000080258BF
:1035000010B50C4C002210212046FDF750FE022081
:1035100001F06AFB012220461021FDF748FE04203D
:1035200001F062FB00222046BDE810401021FDF7AB
:103530003EBE000000000258134800B587B0016885
:1035400041F001010160006801210322039200F0B3
:10355000010005903E20CDE900010C486946FDF7C9
:1035600009FD00F033F800F015F80123084A0321A3
:10357000184601F051F9064A022101230846121F9C
:1035800001F04AF907B000BDE044025800000258BB
:103590002C00002410B50C4C002220212046FDF701
:1035A00006FE012001F020FB012220462021FDF72C
:1035B000FEFD1E2001F018FB00222046BDE8104051
:1035C0002021FDF7F4BD00000000025810B50E4C9C
:1035D000012202212046FDF7EAFD002220460421B7
:1035E000FDF7E5FD002220460821FDF7E0FD002261
:1035F00020461021FDF7DBFD00222046BDE81040EB
:103600002021FDF7D4BD000000000258F0B587B0BE
:1036100014216846FCF796FE2B48016841F0100122
:103620000160016801F010010591016841F0040199
:103630000160016801F004010591016841F0800119
:103640000160016801F080010591016841F002010B
:10365000016000684CF2C0061C4F002200F002001E
:10366000314605903846FDF7A2FD194D082000248B
:1036700069460294CDE900051648FDF77BFC4FF43E
:1036800040506946CDE9000538460294FDF772FCCA
:1036900001200096CDE90104694638460394FDF700
:1036A00069FC00220F210920FDF7BAFE0920FDF771
:1036B000A9FE00220F212820FDF7B2FE2820FDF7E9
:1036C000A1FE07B0F0BD0000E04402580008025817
:1036D00000002111001002580D484FF4606210B52F
:1036E0000A4C00214FF6FF7304604361C0E90112E8
:1036F000016241628162C1620163FDF7BFFD002882
:1037000003D0BDE81040FCF771BF10BD002400409D
:10371000500000240D484FF4606210B50A4C00219F
:103720004FF6FF7304604361C0E901120162416218
:103730008162C1620163FDF7A1FD002803D0BDE8ED
:103740001040FCF753BF10BD00240058880000242F
:1037500010B588B0174800241549EF224FF6FF73C3
:10376000009401940294039404940594069480E8D0
:103770001600C0E903348461FFF780F908B1FCF753
:1037800035FF4FF4805000900A486946FFF7BCF9B6
:1037900008B1FCF72BFF074804A904940694FFF72F
:1037A00021F9002801D0FCF721FF08B010BD00006E
:1037B00000080040C00000241848002110B5164C35
:1037C00008224FF4E1330460C0E90131C160C0E96F
:1037D00004128161C161016241628162FFF70AFCEA
:1037E00008B1FCF703FF0D480021FFF751FA08B1BB
:1037F000FCF7FCFE09480021FFF724FA08B1FCF7AA
:10380000F5FE0648FFF7FCF9002803D0BDE810409C
:10381000FCF7ECBE10BD0000001001400C010024BC
:10382000FEE7FEE7704700B5AFB0BC216846FCF785
:1038300089FD4FF00040C108149100906846FDF7E3
:10384000A1FF002801D072B6FEE72FB000BD000036
:103850002DE9F047454D044689464FF0000A286897
:10386000C04380070AD0414E283E306820F0806077
:103870003060FDF7A7FC0746B04608E00120BDE830
:10388000F08700BFFDF79EFCC01B022867D8D8F860
:1038900000000001F6D4206829684FF4FE0721F4E7
:1038A0007C313E0241EA00302860207AA389B4F8D6
:1038B00004C040022D4D2D495B1E227CACF1010C51
:1038C0001035091DA0F5007080B2521ECCF3080C13
:1038D00007EA034340EA0C00184306EA0262104379
:1038E00028600868626920F0C000104308600A6818
:1038F000A06922F0200202430A60281D0A6822F013
:1039000010020A6002684FF6F873E4699A4342EACB
:10391000C40202600868B9F1000F40F010020A60AA
:1039200011D00868B9F1010F11D040F400100860FF
:10393000D8F80000444640F08060C8F80000FDF769
:1039400041FC05460DE0086840F40020EFE740F434
:103950008010ECE7FDF736FC401B022801D903205C
:103960008DE720680001F5D5504688E728440258C5
:103970002DE9F047454D044689464FF0000A286876
:10398000C04380070AD0414E283E306820F0805066
:103990003060FDF717FC0746B04608E00120BDE89F
:1039A000F08700BFFDF70EFCC01B022867D8D8F8CF
:1039B00000008000F6D4208829684FF4FE0721F02B
:1039C0007C713E0241EA00502860207AA389B4F855
:1039D00004C040022D4D2D495B1E227CACF1010C30
:1039E0001835091DA0F5007080B2521ECCF3080CEA
:1039F00007EA034340EA0C00184306EA0262104358
:103A000028600868626920F44060104308600A6812
:103A1000A06922F4007202430A60281D0A6822F499
:103A200080720A6002684FF6F873E4699A4342EACA
:103A3000C40202600868B9F1000F40F480720A60A5
:103A400011D00868B9F1010F11D040F08070086002
:103A5000D8F80000444640F08050C8F80000FDF758
:103A6000B1FB05460DE0086840F48000EFE740F444
:103A70000000ECE7FDF7A6FB401B022801D903205C
:103A80008DE720688000F5D5504688E72844025825
:103A90007047FDF79DBB0000F0B59DB04C21684616
:103AA000FCF750FC202113A8FCF74CFC0220FDF78A
:103AB000E9FC224800242249026842F440420260A4
:103AC00002680A6842F001020A60096801F0010117
:103AD0001B9101688904FCD5022011210091202648
:103AE0000527CDE90860C203019280230793C02116
:103AF0000E90CDE90A07CDE90C1008250F90CDE90D
:103B0000105468461294FEF7B7FC08B172B6FEE78F
:103B100040201A903F210301CDE916500322CDE940
:103B2000180313AB13A883E816000421FEF794FAD8
:103B3000002801D072B6FEE71DB0F0BD184802584B
:103B40002C0400582C48F0B52C4A016841F470014F
:103B50000160106800F00F00072804D2106820F000
:103B60000F00C01D106026490020254C10340B6842
:103B7000244D43F001030B6020600B682B400B6069
:103B8000136803F00F03072B04D9136823F00F0306
:103B9000DB1D13601A4C1C4A18341C4B261D371DA4
:103BA0002060174C1A4D28343060261D3860371DB0
:103BB00023603B1D35601C1D3A60251D2E1D1860BD
:103BC000331D22602860326018600A680C4B114C6B
:103BD00022F4802260330A60186020686FF30F00BF
:103BE000B0F1005F03D20C490120C1F8080143F293
:103BF000D2000A490860F0BD88ED00E000200052C4
:103C0000004402587FEDF6EA800201010002020240
:103C10000000FF010010005C0080005100400052D5
:103C20002DE9F047274B4FF0804A274D0268984214
:103C3000264E274F274C09D0504507D0A84205D023
:103C4000B04203D0B84201D0A04205D1D1F804C09F
:103C500022F070024CEA0202DFF87CC0DFF87C80C0
:103C60009842DFF87C900FD050450DD0A8420BD081
:103C7000B04209D0B84207D0A04205D0604503D079
:103C8000404501D0484503D1CD6822F440722A4313
:103C90004D6922F080022A43026098428A68C2621B
:103CA0000A68826207D0A04205D0604503D0404533
:103CB00001D0484501D10969016301214161BDE895
:103CC000F0870000000001400004004000080040B0
:103CD000000C00400004014000400140004401404D
:103CE0000048014042EA032283680A4323F47F41EB
:103CF0000A43826070470000034B82681A400A43FF
:103D000042F00701816070478FFFCFFF10B5036A53
:103D1000046A23F00A0324F00104046284690B435B
:103D200024F0F00141EA02118161036210BD10B577
:103D3000036A23F0100303628369046A23F4704367
:103D400024F0A00443EA0232826144EA01110162D4
:103D500010BD000070B5114C0025114EA068FEF793
:103D6000C7FF05E06D1CB54202D901F043F804E03D
:103D7000A068FEF7B6FF2028F4D1002506E06D1CF0
:103D8000B54203D9BDE8704001F034B803490122BF
:103D9000A068FFF7A7F90028F1D170BD300000241A
:103DA000FFFF010030B5416EB9B101680D4B03F161
:103DB00008048A688968C2F34262490F5D5C615CED
:103DC0002D01B5FBF1F1A0F86A10995CA25C090124
:103DD000B1FBF2F1A0F8681030BD0121A0F86A1023
:103DE000F8E70000344E000890F82810C90706D004
:103DF0000168C36A4A6822F400321A434A6090F8A4
:103E00002810890706D50168036B4A6822F48032BE
:103E10001A434A6090F82810490706D50168436B99
:103E20004A6822F480221A434A6090F82810090751
:103E300006D50168836B4A6822F400421A434A603F
:103E400090F82810C90606D50168C36B8A6822F469
:103E500080521A438A6090F82810890606D50168B6
:103E6000036C8A6822F400521A438A6090F8281082
:103E7000490611D50168436C4A6822F480121A433E
:103E80004A60416CB1F5801F06D10168836C4A68B5
:103E900022F4C0021A434A6090F82810090606D599
:103EA0000168C26C486820F40020104348607047E5
:103EB000F8B500260446C0F88C60FDF783F9054686
:103EC00020686FF07E470068000708D500222B4667
:103ED0004FF400112046009700F04AFC60B92068BA
:103EE000006840070AD500222B464FF48001204687
:103EF000009700F03DFC08B10320F8BD2020C4F875
:103F00008400C4F88800E666002084F88060F8BD6C
:103F100010B5806B0021A0F85E10A0F85610FEF7D7
:103F2000DFFE10BD01680C4B0A6822F490720A6033
:103F300001688A681A408A60C16E012904D101684B
:103F40000A6822F010020A6000212022C0F88820AE
:103F5000C166016770470000FEFFFFEF70B50446C1
:103F6000D0F888002228B4F86010206804D0816955
:103F700041F00801816170BD406AA26D0840108067
:103F8000A06D801CA065B4F85E00401EA4F85E0021
:103F9000B4F85E000028EED12068002520210268D8
:103FA00022F4907202602068826822F0010282602E
:103FB000C4F888102567E06E012804D02046FFF77A
:103FC000B7F8E56670BD2068016821F01001016056
:103FD000B4F85C102046FEF733FEF2E72DE9F04717
:103FE00004460068C569D0F800A0D0F80880D4F86D
:103FF0008810B4F86060222905D0816941F0080179
:104000008161BDE8F087B4F868704FF0000961E0A5
:104010002068A16D406A30400880A06D801CA065BA
:10402000B4F85E00401EA4F85E002068C569690708
:1040300030D0E9070AD05FEACA5107D501210162F1
:10404000D4F88C0040F00100C4F88C00A8070BD510
:104050005FEAC87008D0216802200862D4F88C009A
:1040600040F00400C4F88C0068070BD55FEAC87004
:1040700008D0216804200862D4F88C0040F00200C7
:10408000C4F88C00D4F88C0020B12046FEF728FE3E
:10409000C4F88C90B4F85E00E0B9206820231F4A71
:1040A000D0F800C02CF4807CC0F800C02068D0F8A4
:1040B00008C00CEA020CC0F808C0C4F88830C4F884
:1040C0007090E06E01281DD02046FFF731F800BF48
:1040D000C4F86C900FB1A8069AD4B4F85E0000281A
:1040E0008FD0B4F8681081428BD92068816821F0A4
:1040F000805181600A4820672068016841F02001F2
:1041000001607EE72068016821F010010160B4F8C9
:104110005C102046FEF794FDDAE70000FEFFFFEF9B
:104120005D3F000870B50446D0F888002228B4F836
:104130006010206804D0816941F00801816170BD80
:10414000406AA26D08401070A06D401CA065B4F8D4
:104150005E00401EA4F85E00B4F85E000028EED1B8
:10416000206800252021026822F4907202602068F5
:10417000826822F001028260C4F888102567E06E30
:10418000012804D02046FEF7D3FFE56670BD206805
:10419000016821F010010160B4F85C102046FEF7C0
:1041A0004FFDF2E72DE9F04704460068C569D0F8F5
:1041B00000A0D0F80880D4F88810B4F860602229F4
:1041C00005D0816941F008018161BDE8F087B4F84C
:1041D00068704FF0000961E02068A16D406A3040CE
:1041E0000870A06D401CA065B4F85E00401EA4F8E5
:1041F0005E002068C569690730D0E9070AD05FEA28
:10420000CA5107D501210162D4F88C0040F00100A9
:10421000C4F88C00A8070BD55FEAC87008D02168E5
:1042200002200862D4F88C0040F00400C4F88C002E
:1042300068070BD55FEAC87008D0216804200862BF
:10424000D4F88C0040F00200C4F88C00D4F88C0044
:1042500020B12046FEF744FDC4F88C90B4F85E000F
:10426000E0B9206820231F4AD0F800C02CF4807CDD
:10427000C0F800C02068D0F808C00CEA020CC0F8F2
:1042800008C0C4F88830C4F87090E06E01281DD0D2
:104290002046FEF74DFF00BFC4F86C900FB1A80692
:1042A0009AD4B4F85E0000288FD0B4F86810814228
:1042B0008BD92068816821F0805181600A4820678D
:1042C0002068016841F0200101607EE720680168F4
:1042D00021F010010160B4F85C102046FEF7B0FC3C
:1042E000DAE70000FEFFFFEF254100082DE9F0436B
:1042F00004468068D84E87B0D84B2168D4E904279B
:10430000D4F81CC010430A68002547EA0C0738435C
:10431000324002430A602068E268416821F440515B
:10432000114341602268A1699A4201D0206A014389
:104330009668DFF82CC3CB4FCB4806EA0C060E4339
:1043400096602168666ACA6A22F00F023243CA6226
:104350002268BA420ED1006800F03800182873D0E5
:1043600047DCB8B3082879D010286FD178E0282826
:104370007ED17BE0BD498A4209D1006800F0070088
:10438000062875D2DFE800F0546A6C6E7072B84986
:104390008A4209D1006800F00700062868D2DFE8E9
:1043A00000F0475D5F616365B2498A4209D10068E8
:1043B00000F0070006285BD2DFE800F03A505254C4
:1043C0005658AD498A420BD1006800F00700062814
:1043D0004ED200E010E0DFE800F02B4143454749B2
:1043E000A6498A420AD1006800F03800182839D05E
:1043F000B7DD2028BBD13CE001203AE0A0498A4249
:1044000009D1006800F00700062831D2DFE800F08B
:104410001026282A2C2E9B498A420BD1006800F0D6
:104420000700062824D2DFE800F003191B1D1F2116
:1044300000201EE09A421BD18B48001D006800F04E
:104440000700062814D202E00CE007E010E0DFE8E5
:1044500000F0030507090B0D02200AE0042008E024
:10446000082006E0102004E0202002E0402000E0C8
:1044700080208549DFF814829A42854A4FF4004330
:104480004FEA21174FF000064DD110281AD006DC54
:10449000022809D004280BD008287CD10DE0202860
:1044A0003DD0402877D13CE0FDF716F8014610E0FA
:1044B0006846FDF723F801990BE003A8FDF7C0F863
:1044C000049906E01068800604D51068C0F3C100A6
:1044D000C140B9B3606A676838F8102007EB47033A
:1044E000B1FBF2F0834256D8B0EB073F53D800231C
:1044F00008461946FBF7EEFE02467808130E120234
:1045000043EA012110183A4671410023FBF7E2FE0D
:10451000604AA0F5407191423DD821684CE039468F
:10452000D8E71946D6E7D4F81CC04FF6EF799C457A
:1045300052D108281AD006DC60B101280DD0042819
:1045400029D10EE039E0102815D0202840D040288D
:104550007CD13FE0FDF7D0FE01E0FDF7DFFE014634
:1045600010E06846FCF7CAFF01990BE003A8FDF7CD
:1045700067F8049906E01068800604D51068C0F357
:10458000C100C140C9B1636A606838F81330B1FB3B
:10459000F3F1490000E059E001EB5001B1FBF0F00C
:1045A00080B2A0F11001494550D84FF6F073216850
:1045B000C0F3420218401043C8600120A4F86A000A
:1045C000A4F8680028462667666707B0BDE8F08350
:1045D0003946D8E71946D6E7082819D005DC58B17E
:1045E00001280CD0042831D10DE0102815D0202846
:1045F0002ED040282AD12DE0FDF77EFE01E0FDF708
:104600008DFE014610E06846FCF778FF01990BE04B
:1046100003A8FDF715F8049906E01068800605D593
:104620001068C0F3C100C1400029C6D0636A606849
:1046300038F81330B1FBF3F101EB5001B1FBF0F0AE
:1046400080B2A0F1100149457FF667AF0125B4E7BC
:104650003946EBE71946E9E7F369FFCF000C00584C
:10466000FFF4FF1100100140544402580044004080
:1046700000480040004C0040005000400014014041
:1046800000780040007C00400090D0031C4E0008E1
:1046900000440258FFFC0F0070B584680023816558
:1046A0004FF48056A0F85C20B442A0F85E204FF092
:1046B000FF01036704D10469DCB940F2FF1118E07F
:1046C0004FF07F059CB1B4F1805F15D0A0F8603049
:1046D0002221C0F88C30C0F8881001688C6844F042
:1046E00001048C60416EB1F1005F0CD025E00469DB
:1046F00034B9A0F86010EBE7016909B13F21F8E790
:10470000A0F86050E4E7B0F86810914215D88168CD
:10471000B14201D1016971B11149016780F880305E
:1047200001680A6842F480720A600068816841F09A
:10473000805181600FE00B49EFE78168B14201D100
:10474000016951B10849016780F88030006801684B
:1047500041F490710160002070BD0449F3E700004E
:10476000A5410008DD3F0008254100085D3F000825
:104770002DE9F0479A4617460E460446089D4FF02D
:1047800000094FF0200839E0681C37D0FCF71AFD0B
:10479000A0EB0A00A84222D80DB32068016849079F
:1047A0002CD5C069C043000528D423684FF40061AC
:1047B000196221680B6823F4D0730B6021688B6841
:1047C00023F001038B60C4F88480C4F88880C4F8A7
:1047D0008C8000BF032084F88090BDE8F0872168BA
:1047E0000B6823F4D0730B6021688B6823F00103FE
:1047F0008B60C4F88480C4F88880EBE72068C069C7
:1048000036EA000004D00020B842BDD00020E4E722
:104810000120F9E7FEE700002DE9F0472E4E0025C4
:104820009A4691468846044602212A463046FCF7BD
:10483000BEFC002230460421FCF7B9FC200601D55D
:10484000012200E0002230460821FCF7B0FC0122E2
:1048500030460421FCF7ABFC60066D1C040EEDB283
:10486000082DE6D3002230460421FCF7A0FC0024EA
:10487000374622E019F8046000250022384604215A
:10488000FCF795FC300601D5012200E000223846F5
:104890000821FCF78CFC012238460421FCF787FC38
:1048A00070066D1C060EEDB2082DE6D300223846C8
:1048B0000421FCF77CFC641CE4B24445DAD3BAF171
:1048C000010F01D1FEF71CFE3846BDE8F04701227A
:1048D0000221FCF76CBC00000000025838B510241F
:1048E0000A460023009344EA12218DF802208DF835
:1048F000011040B101280AD0022816D0032813D194
:104900000C4A012306E00B4A0123D21E02E0094AA9
:104910000123921E01210020FFF77EFF01236A463A
:1049200003210620FFF778FF38BD024A0123521EFB
:10493000F0E700002700002400EE101A9FED181B7E
:10494000194AB8EE400B10B520EE010BBCEEC00BBF
:1049500010EE101A51704FEA1123137098B101280C
:1049600015D0022817D0032819D10023D21E012107
:104970000020FFF751FF00230B4A0221BDE8104041
:104980000520FFF749BF084A0023921FEFE7064AB8
:104990000023521FEBE7044A0023121FE7E710BD74
:1049A0001CD0D2156CC146402A00002400EE101A1B
:1049B0009FED1D1B38B5B8EE400B0021009120EE95
:1049C000010BBCEEC00B10EE101A8DF803104FEA6D
:1049D00011228DF802204FEA11438DF801304FEA81
:1049E00011648DF8004040B101280AD0022816D089
:1049F000032813D10E4A012306E00D4A0123D21EDB
:104A000002E00B4A0123921E01210020FFF704FF60
:104A100004216A4601230846FFF7FEFE38BD044A1A
:104A20000123521EF0E7000095D626E80B2E214008
:104A3000270000240FB4054B10B503A9044A0298BF
:104A400000F028F810BC5DF814FB0000594C000879
:104A50004C000024090700284FEA116104DB00F133
:104A6000E02080F80014704700F00F0000F1E02013
:104A700080F8141D704702E008C8121F08C1002A00
:104A8000FAD170477047002001E001C1121F002ACF
:104A9000FBD170472DE9FF4F89B09B4604460025A6
:104AA00006E025280BD05A460B999047641C6D1CD4
:104AB00020780028F5D10DB02846BDE8F08F0027FA
:104AC000B8460122474900E0074314F8013F203B64
:104AD00002FA03F00842F7D120782E2819D114F8F1
:104AE000010F47F004072A280ED06FF02F0220781C
:104AF000A0F1300109290CD808EB880102EB410133
:104B000000EB0108641CF2E70A98641C50F8048B5F
:104B10000A9020780028CED0642808D0692806D0D2
:104B200075281ED05A460B9990476D1C58E00A997B
:104B30004FF00A0901C90A91002802DA40422D21EA
:104B400002E0390504D52B218DF82010012103E066
:104B5000F90704D02021F7E78A4608AE0DE00021CE
:104B6000FAE70A994FF00A0901C90A91F7E749469D
:104B7000FBF7F3FB303106F8011D0028F7D1ADEB50
:104B8000060000F12009780701D44FF00108C8455C
:104B900002DDA8EB090000E000208046002706E0C7
:104BA00008A85A46C05D0B9990476D1C7F1C57455D
:104BB000F6DB04E030205A460B9990476D1CB8F1A3
:104BC0000001A8F10108F5DC05E016F8010B5A46D2
:104BD0000B9990476D1CB9F10001A9F10109F4DCB2
:104BE000641C65E70928010000EB40008000401EBE
:104BF000FDD2704710B504460420FDF7D3FE0148EE
:104C0000046010BD4800002470B5002405464FF430
:104C10007A7603E0304600F005F8641CAC42F9D324
:104C200070BD00000B49002270B54FF0E024096808
:104C300065694843A369A1699942FCD002D2A3EBFC
:104C4000010302E0A5EB010633441A440B468242FD
:104C5000F1D370BD4800002410B504460448012378
:104C6000411C1A4644708068FEF794FA204610BD35
:104C7000300000240024FCF7B3FAFEF70DFFFEF726
:104C8000D2FDFEF7C3FCFEF797FDFEF725FDFEF70C
:104C900041FDFEF75DFDFEF74FFC424D2B462846D9
:104CA0001A461146FBF7B6FB40F2FF363346314653
:104CB00071201A46FBF798FBB4224FF487735A21F0
:104CC0000020FBF7BDFB38A0FFF7B4FE3F489FED87
:104CD0003B2B9FED3C0B90ED021B3DA001EE020B28
:104CE000BDEEC00B10EE101AFFF7A4FE3D4F0122DF
:104CF00080213846FCF75BFAC820FBF76DFF0022E5
:104D000038468021FCF753FAC820FBF765FF641C86
:104D1000032CECD34FF4F070FFF76CFF6420FFF727
:104D200073FFFBF734FC01210846FBF7D1FB02219E
:104D30000846FBF7CDFB03210846FBF7C9FB04211E
:104D40000846FBF7C5FBFEF7F7FB00231A4619469A
:104D50001846FBF775FB244928462A460B46FBF705
:104D600059FB642330461A461946FBF73DFB1F4D9D
:104D700000261F4C288801280FD12178FBF7A8FBBB
:104D800021780220FBF7A4FB21780320FBF7A0FB8E
:104D900021780420FBF79CFB2E806420FBF71CFF8E
:104DA000E8E70000C00E16027431322E7478743DAC
:104DB00022726561647922FFFFFF0000000000009D
:104DC000000059407B14AE47E17A843F0000002484
:104DD00074372E7478743D2225642025252022FF07
:104DE000FFFF00000008025880841E003C000024E1
:104DF0003E00002408490A2310B58C1E0222A06838
:104E0000FEF7C8F9A0680068C169C9434906FBD428
:104E10000020A08010BD000032000024010002002C
:104E20000400060008000A000C00100020004000EA
:104E300080000001010101030701000008040204D1
:104E40000801010100000000010203040102030443
:104E5000060708093F065B4F666D7D077F6F777C0D
:104E6000395E7971844E0008000000245000000073
:104E7000764A0008D44E000850000024280702009B
:104E8000864A000801007400740074003333333321
:104E90003333D33F01000000100000000000000089
:104EA0000090D0030090D00310204080200000002C
:104EB000D000000000004552000000000C0100245A
:104EC00000000000000000000000000000000000E2
:044ED00000000000DE
:040000050800029954
:00000001FF
