:020000040800F2
:10000000D011022439030008AB2B00086128000836
:10001000A92B0008B30500084D3A000800000000B5
:100020000000000000000000000000001D2E00087D
:10003000B505000800000000AD2B00081F2E0008C9
:100040005303000853030008530300085303000838
:100050005303000853030008530300085303000828
:1000600053030008BF0500085303000853030008AA
:100070005303000853030008530300085303000808
:1000800053030008530300085303000853030008F8
:1000900053030008530300085303000853030008E8
:1000A00053030008530300085303000853030008D8
:1000B00053030008530300085303000853030008C8
:1000C00053030008530300085303000853030008B8
:1000D00053030008530300085303000853030008A8
:1000E000B705000853030008000000005303000890
:1000F0005303000853030008530300085303000888
:100100005303000853030008530300085303000877
:100110005303000853030008530300085303000867
:100120005303000853030008530300085303000857
:100130005303000853030008530300085303000847
:1001400000000000000000000000000000000000AF
:100150005303000853030008530300085303000827
:100160005303000853030008530300085303000817
:100170005303000853030008530300085303000807
:1001800053030008530300085303000853030008F7
:1001900053030008530300085303000853030008E7
:1001A00053030008530300085303000853030008D7
:1001B0005303000871290008530300085303000883
:1001C00053030008530300085303000853030008B7
:1001D00053030008530300085303000853030008A7
:1001E0005303000853030008530300085303000897
:1001F0005303000853030008530300085303000887
:100200005303000853030008530300085303000876
:100210005303000853030008530300085303000866
:1002200053030008530300085303000800000000B4
:1002300053030008530300080000000053030008A4
:100240005303000853030008530300085303000836
:100250005303000853030008530300085303000826
:1002600053030008530300087D29000853030008C6
:100270005303000853030008530300080000000064
:100280005303000853030008530300080000000054
:10029000000000005303000800F002F800F03CF8F2
:1002A0000AA090E8000C82448344AAF10107DA45D1
:1002B00001D100F031F8AFF2090EBAE80F0013F0E7
:1002C000010F18BFFB1A43F001031847703A0000F2
:1002D000903A0000103A24BF78C878C1FAD8520783
:1002E00024BF30C830C144BF04680C6070470000B0
:1002F0000023002400250026103A28BF78C1FBD82F
:10030000520728BF30C148BF0B6070471FB503F0CC
:10031000F3FC1FBD10B510BD00F0CFF81146FFF77C
:10032000F5FF03F0BBFC00F0EDF803B4FFF7F2FFBC
:1003300003BC00F0F5F80000094880470948004771
:10034000FEE7FEE7FEE7FEE7FEE7FEE7FEE7FEE785
:10035000FEE7FEE704480549054A064B70470000E2
:10036000B12E000899020008D0010024D011022407
:10037000D0110024D011002453EA020C00F069804F
:100380002DE9F04B4FF00006002B1FBFB3FA83F5A9
:1003900003FA05F424FA05F65E4012BF1643B2FADA
:1003A00082F502FA05F4C5F120051EBF22FA05FC0C
:1003B00044EA0C04203556EA044C4FEA144418BFB2
:1003C000641C4FF000084FF00009904271EB030CE1
:1003D00039D3002919BFB1FA81F701FA07F6B0FA4B
:1003E00080F700FA07F6C7F120071EBF20FA07FCC6
:1003F00046EA0C062037B6FBF4FCA7EB0507103FD6
:1004000007F01F0BCBF120060CFA0BFB2CFA06F6BB
:1004100044BFB3460026202FA4BF5E464FF0000B1A
:100420005BEA060C08BF4FF0010B19EB0B09ABFBA5
:10043000027C48EB0608C01B06FB02CC0BFB03CC7E
:1004400071EB0C01C1E70B46024641464846BDE848
:10045000F08B13B54FF000004FF00001AFF30080B8
:10046000BDE81C4070474FF0000200B513469446AB
:100470009646203922BFA0E80C50A0E80C50B1F1FC
:100480002001BFF4F7AF090728BFA0E80C5048BF10
:100490000CC05DF804EB890028BF40F8042B08BFAE
:1004A000704748BF20F8022B11F0804F18BF00F8AA
:1004B000012B7047704770477047754600F02CF865
:1004C000AE4605006946534620F00700854618B041
:1004D00020B5FFF73FFFBDE820404FF000064FF08A
:1004E00000074FF000084FF0000B21F00701AC4669
:1004F000ACE8C009ACE8C009ACE8C009ACE8C00988
:100500008D46704710B50446AFF300802046BDE825
:100510001040FFF70ABF0000004870477001002438
:1005200001491820ABBEFEE726000200704770B5F7
:100530000E461C4681B21546002003F0EBFAB1B21C
:10054000012003F0E7FAA9B2022003F0E3FAA1B216
:10055000BDE87040032003F0DDBA70B50C461D46BF
:1005600016460146002003F03DFB0120214603F022
:1005700039FB0220314603F035FB2946BDE87040C7
:10058000032003F02FBB70B50E461C4681B2154602
:10059000002003F0EDFAB1B2012003F0E9FAA9B2AC
:1005A000022003F0E5FAA1B2BDE87040032003F099
:1005B000DFBAFEE770474FF4805000F006B808201D
:1005C00000F003B872B6FEE770474FF0B04110B5C7
:1005D000D1F88820024203D0C1F88800FFF7F4FF69
:1005E00010BD00002DE9F84F03247D4D00234FF08E
:1005F00001094FF0B04B4FF00F0AE9E009FA03F799
:100600003A4076D00E7906F00306012E01D0022E74
:1006100018D1D0F808C04FEA430ECE6804FA0EF89D
:100620002CEA080C06FA0EF646EA0C068660D0F8AC
:1006300004C00E792CEA070CC6F300169E4046EA69
:100640000C0646600E79F643B6070BD0C6684FEA33
:1006500043088F6804FA08FC26EA0C0607FA08F734
:100660003743C7600E7906F00306022E12D1DE086A
:100670000F694FEA437C00EB8606B646366A4FEABE
:10068000DC6C0AFA0CF807FA0CF726EA080637437E
:10069000CEF820700F7906684FEA430807F0030789
:1006A00004FA08FC07FA08F726EA0C063743076045
:1006B0004E6816F4403F1CD04A4E376847F0020798
:1006C000376036689F0706F00206009623F003069F
:1006D00006F1B046B6463F0FD6F80864DFF8088149
:1006E0000AFA07FC404526EA0C0603D14FF0000C3D
:1006F00041E06CE0DFF8F4C0604502D14FF0010C3E
:1007000039E0DFF8ECC0604502D14FF0020C32E076
:10071000DFF8E0C0604502D14FF0030C2BE0DFF8BA
:10072000D8C0604502D14FF0040C24E0DFF8CCC003
:10073000604502D14FF0050C1DE0DFF8C4C06045F4
:1007400002D14FF0060C16E0DFF8B8C0604502D1C8
:100750004FF0070C0FE0DFF8B0C0604502D14FF05A
:10076000080C08E0DFF8A4C0604502D14FF0090C86
:1007700001E04FF00A0C0CFA07FC4CEA060CCEF82C
:1007800008C44F68DBF80060FF0226EA020600D5C5
:1007900016435F46CBF80060D1F804C0DBF8046074
:1007A0005FEA8C2C26EA020600D516437E606E684E
:1007B0004F6826EA0206BF0300D516436E602E6816
:1007C0004F6826EA0206FF0300D516432E605B1C25
:1007D0000A6832FA03F67FF411AFBDE8F88F000023
:1007E00080000058F44402580000025800040258E7
:1007F00000080258000C0258001002580014025859
:1008000000180258001C0258002002580024025808
:100810000AB1816170470904FBE7000001480068E4
:10082000000C70470010005C0148806870470000B1
:1008300000000024024881680278114481607047FA
:1008400000000024032010B500F0C2F901F09CF96B
:100850000F4A104914681368C4F3032203F00F030E
:100860008A5CC95C02F01F0201F01F01D0400A4AF5
:1008700020FA01F11160094908600F2000F010F81A
:1008800008B1012010BD00F059F9002010BD000092
:10089000184402582A3D0008100000240C000024CF
:1008A00070B50D4D04462878A0B14FF47A71B1FBB4
:1008B000F0F00A490968B1FBF0F001F0D5FC48B945
:1008C000102C07D200222146501E00F061F90020B2
:1008D0006C6070BD012070BD000000240C0000247D
:1008E00070477047704770477047704710B50446AF
:1008F00000680168C943C90708D18168C943C907AD
:1009000004D1012141602046FFF7ECFF2068016817
:10091000C943890708D48168C943890704D40221DF
:1009200041602046FFF7DCFF20680168C9434907A2
:1009300008D48168C943490704D404214160204692
:1009400000F0FAF820680168C943090708D48168F3
:10095000C943090704D4082141602046FFF7C3FFBB
:1009600020680168C943C90608D48168C943C9061B
:1009700004D4102141602046FFF7B3FF20680168CE
:10098000C943890608D48168C943890604D4202153
:1009900041602046FFF7A9FF20680168C943490666
:1009A00008D48168C943490604D4402141602046E7
:1009B000FFF79AFF10BD00002DE9F047040005D0B5
:1009C00094F836004FF6FF7518B108E00120BDE835
:1009D000F087002084F83500204600F05DF8022002
:1009E00084F836004FF4000AD4E90063F268012B62
:1009F00002D0A06A504501D122F01E026169A946C9
:100A0000494502D04EF2C0008243D4F808C0D4E970
:100A1000087843EA0C00DFF870C0A56A47EA0807C7
:100A200040EA070002EA0C0240EA050040EA020040
:100A3000DBB1012B01D0554503D1D4E903231A437F
:100A40001043494505D0D4E906321943024341EA2F
:100A50000200F0600D492068884202D00C498842AB
:100A600008D1D4E90B12114308E02369E2691A4363
:100A70001043E0E70749884201D1E16A4162012061
:100A800084F836000020A2E7FEF119FF00240040A0
:100A9000002400580028005810B5B2B00446C02108
:100AA0006846FFF7E0FC2149206888421CD10020FD
:100AB00020214FF0A0422492CDE90010684600F0BA
:100AC00019FA08B1FFF77EFD1948016841F4007179
:100AD0000160006800220A2100F4007030905D205F
:100AE00000F056F85D201DE0124988421CD100201C
:100AF00027904021CDE90010684600F0FBF908B1CD
:100B0000FFF760FD0A480C30016841F40071016094
:100B1000006800220D2100F4007030908A2000F05F
:100B200037F88A2000F026F832B010BD00240040CB
:100B3000E844025800240058704700000C4808B5EB
:100B4000016841F002010160016801F002010091B9
:100B5000016841F400410160006800F40040009029
:100B600001F070FBBDE80840022001F073BB0000FB
:100B7000F4440258002809DB410900F01F028900F3
:100B8000012001F1E0219040C1F800017047000010
:100B90000E4BF0B41B680D46C3F30223C3F10706E6
:100BA000042E00D90426191D072901D2002300E0D4
:100BB000DB1E012404FA06F19C40491E2940641EF4
:100BC000994014402143F0BC03F050B80CED00E014
:100BD000064900F0070210B54FF6FF040868044B01
:100BE000204040EA02201843086010BD0CED00E0F0
:100BF0000000FA05134970B50A68D243520705D5BB
:100C0000096801F00701814213D118E00A6822F057
:100C1000070202430A60FFF707FE0A4D4FF47A7697
:100C20000446083D07E000BFFFF7FEFD001BB04291
:100C300001D9012070BD2868C0438004F4D400208D
:100C400070BD00000C48025810B500F057FF054970
:100C50000968054AC1F30211515C01F01F01C84047
:100C600010BD0000204402582A3D0008494930B513
:100C7000484C0B1D0A68143409681D68246802F08A
:100C80000303C5F30012C1F30531C4F3CC040029FA
:100C900014FB02F200EE102AF8EE400A75D03F4A2B
:100CA0009FED3D1AB7EE000A6BB1DFED3D1A012B47
:100CB00001D0022B64D002EE101A1168F8EE422A1D
:100CC00081EEA22A21E0334C283C23689B0612D5F2
:100CD000344B246801EE901A1168C4F3C104F8EE95
:100CE000612AE34001EE903AC1F30801F8EE611A7F
:100CF00081EEA22A0BE001EE901ADFED2B2A00BF55
:100D0000F8EE611A116882EEA12AC1F3080101EE22
:100D1000901A1168F8EE611A40EE811A71EE800A9D
:100D200062EE200AC1F3462101EE101AB8EE411A14
:100D300031EE001AC0EE811ABCEEE11A80ED001A05
:100D40001168C1F3064101EE101AB8EE411A31EEF6
:100D5000001AC0EE811ABCEEE11A80ED011A11688A
:100D6000C1F3066101EE101AB8EE411A31EE000A25
:100D700080EE801ABCEEC10A80ED020A30BD04E0AC
:100D800001EE901ADFED092ABAE700210160416007
:100D90008160F3E7284402580000003938440258C3
:100DA0000024744A0090D0030024744C20BCBE4B35
:100DB000494930B5484C0B1D0A681C3409681D6848
:100DC000246802F00303C5F30022C1F30551C4F304
:100DD000CC04002914FB02F200EE102AF8EE400ABF
:100DE00075D03F4A9FED3D1AB7EE000A6BB1DFEDBB
:100DF0003D1A012B01D0022B64D002EE101A1168AB
:100E0000F8EE422A81EEA22A21E0334C283C2368E6
:100E10009B0612D5344B246801EE901A1168C4F376
:100E2000C104F8EE612AE34001EE903AC1F30801F3
:100E3000F8EE611A81EEA22A0BE001EE901ADFEDC6
:100E40002B2A00BFF8EE611A116882EEA12AC1F3C5
:100E5000080101EE901A1168F8EE611A40EE811A4D
:100E600071EE800A62EE200AC1F3462101EE101AEB
:100E7000B8EE411A31EE001AC0EE811ABCEEE11A4A
:100E800080ED001A1168C1F3064101EE101AB8EEA8
:100E9000411A31EE001AC0EE811ABCEEE11A80ED63
:100EA000011A1168C1F3066101EE101AB8EE411A79
:100EB00031EE000A80EE801ABCEEC10A80ED020A13
:100EC00030BD04E001EE901ADFED092ABAE70021F7
:100ED000016041608160F3E7284402580000003956
:100EE000404402580024744A0090D0030024744CFB
:100EF00020BCBE4B2DE9FE4F0546DFF8E48350F8D9
:100F0000081B0024F64FC943019005F1280026462E
:100F100008F12408009008011DD4A86E50B1B0F566
:100F2000801F0CD0B0F5001F0ED0B0F5401F1ED0B2
:100F300001240FE0386840F40030386017E0019871
:100F4000022101F04BFE03E00098022101F0D6FEE1
:100F500004000CD026462888C043C00523D4A86DC1
:100F600005281ED2DFE800F00C11161B1B00AA6E2C
:100F7000D8F8001021F440111143C8F80010EAE736
:100F8000386840F40030386009E00198002101F031
:100F900025FE03E00098002101F0B0FE044674B184
:100FA00000E0012426462888C043800528D4E86D47
:100FB00080281ED00CDC90B140280ED114E0AA6D20
:100FC000D8F8001021F007011143C8F80010EAE733
:100FD000C02813D0B0F5807F10D001240FE038680E
:100FE00040F40030386009E00198002101F0F6FD7E
:100FF00003E00098002101F081FE04469CB12646E2
:101000002888DFF8DC92C04309F12C0940052CD474
:10101000D5F8A800B0F5800F20D00DDCA0B1B0F558
:10102000001F0FD115E0EA6DD8F8001021F4E0712F
:101030001143C8F80010E3E7B0F5C00F13D0B0F5C6
:10104000000F10D001240FE0386840F40030386001
:1010500009E00198002101F0C1FD03E000980021A2
:1010600001F04CFE04467CB126462888C0430005AA
:101070002DD4D5F8AC00B0F1007F21D00EDCA8B1A2
:10108000B0F1807F10D116E0D5F8A820D9F8001073
:1010900021F460011143C9F80010E6E7B0F1407F88
:1010A00013D0B0F1806F10D001240FE0386840F405
:1010B0000030386009E00198002101F08FFD03E065
:1010C0000098002101F01AFE044674B126462868F3
:1010D000C04380011FD4E86CD8B110280FD020285D
:1010E00012D0302815D0012414E0D5F8AC20D9F85E
:1010F000001021F0E0611143C9F80010E7E73868FB
:1011000040F40030386004E00198022101F066FDEF
:10111000044674B126462888C043C0042BD4286EE8
:10112000B0F5005F20D00DDCA0B1B0F5805F0FD12D
:1011300015E06B48EA6C2030016821F03001114362
:101140000160E8E7B0F5405F13D0B0F5804F10D0F4
:1011500001240FE0386840F40030386009E001985D
:10116000002101F03BFD03E00098002101F0C6FDE5
:1011700004468CB126462888C043800429D4686E72
:10118000B0F5403F23D010DC08B3B0F5803F14D059
:10119000B0F5003F0FD115E02A6ED8F8001021F409
:1011A000E0411143C8F80010E5E7B0F5802F0ED0FC
:1011B000B0F5A02F0BD001240AE00198012101F025
:1011C0000DFD03E00098012101F098FD044694B163
:1011D00026462888C04340042AD4D5F8B000B0F190
:1011E000405F23D010DC08B3B0F1805F14D0B0F1C1
:1011F000005F0FD115E06A6ED8F8001021F4E021ED
:101200001143C8F80010E4E7B0F1804F0ED0B0F100
:10121000A04F0BD001240AE00198012101F0DEFC6F
:1012200003E00098012101F069FD044674B12646EF
:101230002888C04300041FD4286FD8B1B0F1805F64
:101240000ED0B0F1005F10D0012414E0D5F8B0202A
:10125000D9F8001021F0E0411143C9F80010E7E788
:10126000386840F40030386004E00198012101F052
:10127000B5FC044674B126462868C043C0011ED49C
:10128000A86CD0B101280ED0022811D0032814D0A8
:10129000012413E02A6FD8F8001021F040511143C7
:1012A000C8F80010E8E7386840F40030386004E01F
:1012B0000198022101F092FC0446ACB12646286850
:1012C000DFF81CB0C043ABF11C0B400252D4054800
:1012D000016841F480710160FFF7A6FA824611E0CF
:1012E0002C44025800480258FA48AA6C016821F0C0
:1012F000030111430160E2E7FFF796FAA0EB0A0051
:10130000642835D8F4480068C005F5D58CBBDFF8F3
:10131000C4A3B5F8B4100AF1240ADAF8000001F405
:10132000407100F44070884211D0DAF80010DAF809
:10133000002021F4407142F48032CAF80020DAF82B
:10134000002022F48032CAF80020CAF80010D5F834
:10135000B400B0F5807F1AD1FFF766FA029012E070
:10136000FFF762FA0299411A41F2883081420AD9A4
:10137000032426462878DFF85CA3C0430AF1080A54
:10138000C00721D03CE0DAF800008007E8D5D5F8A6
:10139000B410C1F30120032858460DD0016821F490
:1013A0007C510160B5F8B420DAF80010C2F30B02EA
:1013B0001143CAF80010DDE7C84A036802EA1112B7
:1013C00023F47C511143ECE7E86F182816D005DCB4
:1013D000A0B1082808D0102804D10AE020280DD098
:1013E00028280BD001240AE00198012101F0F6FB26
:1013F00003E00098012101F081FC044664B1264617
:101400002878C04380071ED4A86F062819D2DFE8C9
:1014100000F0160C11161616EA6FDAF8001021F01B
:1014200038011143CAF80010EAE70198012101F0E0
:10143000D5FB03E00098012101F060FC04467CB17B
:1014400000E0012426462878C04340071FD4D5F881
:101450009400062819D2DFE800F0160C11161616B3
:10146000AA6FDAF8001021F007011143CAF8001042
:10147000E9E70198012101F0B1FB03E000980121A7
:1014800001F03CFC0446A4B100E001242646287883
:10149000C04380062BD4D5F89000B0F1405F24D033
:1014A00011DC10B3B0F1805F15D0B0F1005F10D146
:1014B00016E0D5F89420D9F8001021F00701114367
:1014C000C9F80010E3E7B0F1804F0ED0B0F1A04FA3
:1014D0000BD001240AE00198002101F07FFB03E01A
:1014E0000098022101F00AFC044694B126462878AF
:1014F000C04340062BD4D5F89C00B0F5406F24D0F3
:1015000011DC10B3B0F5806F15D0B0F5006F10D1BD
:1015100016E0D5F89020DAF8001021F0E0411143F0
:10152000CAF80010E3E7B0F5805F0ED0B0F5A05F19
:101530000BD001240AE00198002101F04FFB03E0E9
:101540000098022101F0DAFB044694B1264628787F
:10155000C04300062BD4D5F8A000B0F5C04F24D06E
:1015600011DC10B3B0F5005F15D0B0F5804F10D18D
:1015700016E0D5F89C20D9F8001021F4E051114371
:10158000C9F80010E3E7B0F5004F0ED0B0F5204FDA
:101590000BD001240AE00198002101F01FFB03E0B9
:1015A0000098022101F0AAFB044654B1264628788F
:1015B000C04300071ED4D5F88400B0F5805F0AD080
:1015C0000FE0D5F8A020D9F8001021F460411143B4
:1015D000C9F80010EBE70098022101F08FFB00B181
:1015E0000126D5F88420DAF8001021F44051114387
:1015F000CAF800102878C043C00613D4D5F8980064
:10160000B0F5807F05D10098022101F077FB00B191
:101610000126D5F89820D9F8001021F44071114323
:10162000C9F800102868C043000316D4D5F8A400F8
:1016300038B1B0F5803F09D0B0F5003F0BD00124A0
:101640000AE00198002101F0C9FA03E000980221A4
:1016500001F054FB04468CB126462868C043400381
:1016600022D4D5F88800B0F5801F11D0B0F5001F46
:1016700013D0B0F5401F15D0012414E0D5F8A420F4
:10168000D9F8001021F440311143C9F80010E4E703
:10169000386840F40030386004E00098012101F01F
:1016A0002DFB04465CB126462868C043C00323D402
:1016B000286DA8B1B0F5803F17D001241BE0D5F804
:1016C0008820DAF8001021F440111143CAF8001004
:1016D000EAE700004C44025800480258CFFFFF00E0
:1016E000386840F40030386004E00198022101F0CD
:1016F00075FA0446E4B126462868C043800005D444
:101700000098022101F0FAFA00B101262868C043CE
:1017100080031BD4D5F88000B0B1B0F5807F0FD026
:10172000B0F5007F10D0B0F5407F0DD001240CE063
:101730005A482A6D016821F4803111430160DBE7CA
:10174000386840F400303860ECB326462868C0435F
:10175000C00207D46A6FD8F8001021F0004111438D
:10176000C8F800102868C043C00008D4D5F8B820D5
:10177000DBF8001021F480411143CBF800102868F9
:10178000C043800207D4EA6ED8F8001021F08071BF
:101790001143C8F800102868C04340000CD4DBF89F
:1017A000001021F40041CBF80010DBF80010D5F850
:1017B000BC201143CBF800102868C04308D4374838
:1017C0006A6D016800E018E021F0405111430160AA
:1017D0002868C043000208D4D5F88C20DAF800103D
:1017E00021F440011143CAF8001028790024C043B5
:1017F00000F0010020430AD00FE0D5F88020DAF88D
:10180000001021F440711143CAF800109EE70198BE
:10181000002101F0E3F900B106462879C04300F049
:101820000200204305D10198012101F0D7F900B150
:1018300006462879C04300F00400204305D10198F2
:10184000022101F0CBF900B106462879C04300F02F
:101850000800204305D10098002101F04FFA00B1A3
:1018600006462879C04300F01000204305D10098B7
:10187000012101F043FA00B106462879C04300F087
:101880002000044304D10098022101F037FA00B986
:1018900016B10120BDE8FE8F0020FBE74C44025842
:1018A0002DE9F05F04000F467ED0DFF83882D8F8CB
:1018B000000000F00F00B8420CD2D8F8001021F060
:1018C0000F013943C8F80010D8F8000000F00F00ED
:1018D000B84269D12078844D40070AD5206929682B
:1018E00001F07001884204D9296821F07001014398
:1018F000296020787C4E361D00070AD56069316862
:1019000001F07001884204D9316821F0700101436F
:1019100031602078C0060AD5A069316801F4E06121
:10192000884204D9316821F4E061014331602078B4
:10193000DFF8B4B180060BF1080B0CD5E16958460D
:10194000DBF8002002F07002914204D9026822F014
:1019500070020A430260207880070AD5E06829688F
:1019600001F00F01884204D9296821F00F010143D9
:1019700029602078C0073ED05B49A26828681839E2
:1019800020F47060104328606068022818D0032893
:1019900019D00968012819D0490700294ADADFF867
:1019A00048A1AAF1080A00E044E0DAF8002022F099
:1019B00007020243CAF80020FEF736FF814612E014
:1019C00009688903E9E709688901E6E7C905E4E7E9
:1019D000FEF72AFFA0EB090141F28830814202D9CB
:1019E0000320BDE8F09F6168DAF8000000F03800DD
:1019F000B0EBC10FECD1207880070AD5E0682968E8
:101A000001F00F01884204D2296821F00F0101433F
:101A10002960D8F80010404601F00F01B9420BD9F7
:101A2000016821F00F0139430160006800F00F00E8
:101A3000B84201D00120D4E7207840070AD52069B8
:101A4000296801F07001884204D2296821F07001F0
:101A500001432960207800070AD56069316801F0E8
:101A60007001884204D2316821F070010143316075
:101A70002078C0060AD5A069316801F4E061884287
:101A800004D2316821F4E06101433160207880069E
:101A90000CD5E1695846DBF8002002F07002914253
:101AA00004D2026822F070020A43026000F06CF86F
:101AB0000E492A682B68C2F3032203F00F038A5CE5
:101AC000C95C02F01F0201F01F01D040084A20FA51
:101AD00001F111600749086007480068BDE8F05F40
:101AE000FEF7DEBE00200052184402582A3D0008CE
:101AF000100000240C0000240400002430B500F085
:101B000043F80B4A0B490C4B15681468C5F30322C4
:101B100004F00F048A5C095D02F01F0201F01F014E
:101B2000D040064A20FA01F119601060084630BD25
:101B3000184402582A3D0008100000240C0000241C
:101B400000B5FFF7DBFF05490968054AC1F302113B
:101B5000515C01F01F01C84000BD00001C44025848
:101B60002A3D000800B5FFF7C9FF05490968054A85
:101B7000C1F30221515C01F01F01C84000BD00000B
:101B80001C4402582A3D0008454970B5454809687B
:101B9000434B103B11F0380208D00111082A03D042
:101BA000102A0BD0182A0BD0084670BD1968890678
:101BB000FBD51968C1F3C101C84070BD3A4870BD7A
:101BC0003749374D18310C1D24350A6809682668D5
:101BD0002D6802F0030406F00102C1F30511C5F3FC
:101BE000CC0515FB02F200EE102AB8EE400AE9B36C
:101BF0002F4ADFED2E0AB7EE001A6CB1DFED2D1A79
:101C0000012C01D0022C43D002EE101A1068F8EE1D
:101C1000422A81EEA22A1EE01C68A40611D51B6888
:101C200001EE901A1168C3F3C103F8EE612AD8409F
:101C300001EE900AC1F30800F8EE611A81EEA22AC3
:101C40000BE001EE901ADFED1C2A00BFF8EE611ADE
:101C5000106882EEA12AC0F3080001EE900AF8EEA7
:101C6000611A40EE201A31EE810A00E015E022EE02
:101C7000000A1068C0F34620401C00EE900AF8EEFF
:101C8000600A80EE201ABCEEC10A10EE100A70BD88
:101C900001EE901ADFED092AD8E7002070BD0000A0
:101CA000104402580090D00340787D0100000039B4
:101CB000304402580024744A0024744C20BCBE4BAB
:101CC0002DE9F05F04007DD0FF4F2078FE4D1837DE
:101CD000DFF8F493103DC00748D0D9F80000396808
:101CE00000F03800102815D0182803D101F00300A7
:101CF00002280FD06068B0F5803F12D010B1B0F567
:101D0000A02F18D0286820F480302860286820F49C
:101D1000802009E02868800328D560680028D2D098
:101D200024E0286840F480302860606888B1FEF7BD
:101D30007BFD064609E0286840F480202860F0E733
:101D4000FEF772FD801B64286FD828688003F7D5E2
:101D50000CE0FEF769FD064605E000BFFEF764FDF6
:101D6000801B6428F0D828688003F7D4207841F2DB
:101D70000308D54E0C3E800769D5D9F800003968B4
:101D800010F038000ED0182801D188070AD0E0687A
:101D900090B3296821F0190101432960FEF744FD41
:101DA000824631E02868400702D5E06800288AD0E2
:101DB000E168286820F0190008432860FEF734FD28
:101DC000824607E0DFE000BFFEF72EFDA0EB0A0031
:101DD0000228B9D828684007F6D500BFFEF71EFDD7
:101DE00040451BD82069402812D0316821F47C314D
:101DF00041EA003030602AE018E000BFFEF714FD31
:101E0000A0EB0A0002289FD828684007F6D5E5E72E
:101E1000306820F47C3040F40030EBE7207C3168FF
:101E200021F0FE4141EA0060E4E70DE1286820F07E
:101E300001002860FEF7F8FC824605E0FEF7F4FC9E
:101E4000A0EB0A0002288DD828684007F6D4207835
:101E5000C0065DD5D9F80000DFF86CB2396800F033
:101E60003800ABF1040B082810D0182803D101F07A
:101E7000030001280AD0E0690028286838D040F023
:101E800080002860FEF7D0FC824623E02868C00569
:101E900023D5E069802876D11FE0206A202821D050
:101EA000316821F0F84141EA8060306030E000BFE5
:101EB00094F82010DBF8002022F07C5242EA016105
:101EC000CBF8001024E000BFFEF7AEFCA0EB0A0048
:101ED000022898D82868C005F6D5FEF79FFC404533
:101EE000E6D8DAE7306820F0F84040F08040DCE7E0
:101EF00020F080002860FEF797FC064605E000BF52
:101F0000FEF792FC801B02289DD82868C005F7D4F4
:101F10002078000729D56C48616964300029804623
:101F2000016811D041F001010160FEF77DFC064619
:101F300005E000BFFEF778FC801B0228C9D8D8F85E
:101F400000008007F6D510E021F001010160FEF7E6
:101F50006BFC064605E000BFFEF766FC801B02280E
:101F600072D8D8F800008007F6D42078800623D5F0
:101F7000A0690028286810D040F480502860FEF73F
:101F800053FC064605E036E1FEF74EFC801B0228B6
:101F90005AD828688004F7D50EE020F480502860D5
:101FA000FEF742FC064604E0FEF73EFC801B0228DA
:101FB0004AD828688004F7D4207840074FD5DFF846
:101FC0000C81D8F8001041F48071C8F80010FEF7B9
:101FD0002BFC064605E000BFFEF726FC801B6428AC
:101FE00032D8D8F80000C005F6D5374EA068603664
:101FF00001280AD008B1052813D0306820F001006C
:102000003060306820F0040002E0306840F00100E9
:102010003060A06841F2883A90B1FEF705FC804636
:102020000AE0306840F004003060EEE7FEF7FCFBA9
:10203000A0EB0801514507D830688007F6D50EE0BF
:10204000FEF7F2FB804607E084E000BFFEF7ECFB02
:10205000A0EB080151457DD830688007F6D4606A4E
:10206000B0B3DFF86480D9F8001008F120084FF60B
:10207000F87B08F10409C1F3C2010329A8F1040A9D
:1020800069D00228286820F08070286003D0FEF70D
:10209000CBFB044684E0FEF7C7FB064605E000BF25
:1020A000FEF7C2FB801B022877D828688001F7D48E
:1020B000E26A40F2F331386854F8283F884340EA36
:1020C00002101843386004E01044025800480258D7
:1020D000B5E0217B434622894FF4FE0C208A4FF065
:1020E000FE474902267D521E401EA1F50071C2F333
:1020F00008088AB2761E0CEA004042EA080202434F
:10210000504607EA06610A431A60DAF8002022F016
:102110000102CAF80020D9F80020266A22EA0B0240
:1021200042EAC602C9F80020DAF80010A26921F0DC
:102130000C011143CAF800100168E26921F00201A4
:1021400011430160016841F480310160016841F48C
:10215000003101E021E027E00160016841F48021C5
:102160000160016841F001010160286840F0807061
:102170002860FEF759FB044605E000BFFEF754FB5C
:10218000001B022809D828688001F7D557E000BF56
:10219000FEF74AFB001B022802D90320BDE8F09F8E
:1021A00028688001F4D44AE039680128D8F8000092
:1021B00021D0A26A01F0030393421CD1E26AC1F369
:1021C00005118A4217D1216BC0F30802491E8A42C9
:1021D00011D1616BC0F34622491E91420BD1A16B14
:1021E000C0F30642491E914205D1E16BC0F306607F
:1021F000491E814201D00120D0E7A16C4E46D9F89A
:102200000000C0F3CC00814219D0DAF80000554636
:1022100020F00100CAF80000FEF706FB4FEA0007B5
:10222000FEF702FBB842FBD0A26C306820EA0B003C
:1022300040EAC2003060286840F0010028600020B9
:10224000ACE700000248016821F00101016070471D
:10225000003C005803490A6822F0020202430A6067
:1022600070470000003C0058401EB0F1807F10B560
:1022700001D3012010BD4FF0E02460610F216017F1
:1022800001F0F4FC0020A0610721216110BD0000D5
:10229000F0B590F83C20012A3BD01F4E012480F875
:1022A0003C40022280F83D2002681C4D5368B24237
:1022B000D2F808C001D0AA4203D14F6823F47003BA
:1022C0003B430F6823F070031F4357600268B2421C
:1022D00013D0B2F1804F10D0114B9A420DD0114B58
:1022E0009A420AD0104B9A4207D0AA4205D00F4B0F
:1022F0009A4202D00E4B9A4204D189682CF0800396
:1023000019439160002180F83D4080F83C10084658
:10231000F0BD0220F0BD00000000014000040140BB
:102320000004004000080040000C0040001800407D
:102330000040014010B5040003D094F83D0010B1F6
:1023400007E0012010BD002084F83C00204600F08A
:1023500023F8022084F83D002068211D00F016FEBD
:10236000012084F8480084F83E0084F83F0084F897
:10237000400084F8410084F8420084F8430084F867
:10238000440084F8450084F8460084F8470084F847
:102390003D00002010BD000008B5006806498842D5
:1023A00008D10648016841F004010160006800F0AE
:1023B0000400009008BD000000080040E8440258F6
:1023C00070B5044690F83C000025012814D03A4B23
:1023D000012684F83C60022084F83D002268906861
:1023E000184020F47F409060086870282FD010DCDF
:1023F00010F00F0F03D022E04FF0020070BD4FEA43
:102400002012072A1BD2DFE802F0535353534B39F3
:102410004100B0F1101F4BD009DCB0F5805F0FD048
:10242000B0F5005F1ED0B0F5801F08D140E0A0F5E8
:10243000801120393CD010293AD0202938D00125EC
:1024400084F83D60002084F83C00284670BD4A684E
:102450002068D1E9021300F001FE2068816841F094
:10246000770109E04A682068D1E9021300F0F6FD1F
:102470002068816841F480418160E1E7CA68496869
:10248000206800F099FF2068502106E0CA6849687A
:10249000206800F0A2FF2068602100F0E9FDCFE78E
:1024A000CA684968206800F087FF20684021F4E787
:1024B000226801461046F0E788FFCEFF10B586B0CF
:1024C000044614216846FDF7CEFF0D492068884276
:1024D00014D10C48016841F002010160006800213C
:1024E000402200F00200059002200092CDE9010197
:1024F000CDE9031004486946FEF774F806B010BD34
:1025000000080040E04402580004025870B5044638
:1025100090F83C0000260D4601280BD0012084F8DD
:102520003C000C2A4AD007DC82B1042A20D0082AB9
:1025300006D131E0022070BD102A53D0142A63D096
:102540000126002084F83C00304670BD206800F071
:1025500099FD2068816941F00801816120688169E5
:1025600021F00401816120682A698169114311E029
:10257000206800F0D9FD2068816941F40061816123
:102580002068816921F480618161206829698269FC
:1025900042EA01218161D4E7206800F011FE206841
:1025A000C16941F00801C1612068C16921F00401DD
:1025B000C16120682A69C169114311E0206800F0F7
:1025C0004BFE2068C16941F40061C1612068C169A6
:1025D00021F48061C16120682969C26942EA012150
:1025E000C161AEE7206800F073FE2068416D41F0E4
:1025F000080141652068416D21F0040141652068B2
:102600002A69416D114311E0206800F09BFE2068AB
:10261000416D41F4006141652068416D21F48061A4
:10262000416520682969426D42EA0121416588E7D8
:1026300010B5040003D094F83D0010B107E001206C
:1026400010BD002084F83C00204600F022F8022053
:1026500084F83D002068211D00F098FC012084F8DA
:10266000480084F83E0084F83F0084F8400084F875
:10267000410084F8420084F8430084F8440084F860
:10268000450084F8460084F8470084F83D000020A7
:1026900010BD704730B590F88410012918D0012280
:1026A00080F884202421C0F88810002220240168AA
:1026B0000B680D6823F0005325F001050D6042669C
:1026C00001680B60C0F8884080F88420104630BD57
:1026D000022030BD70B5044690F8840001281DD05A
:1026E000012284F884202420C4F88800206805682A
:1026F000026822F0010202602068826822F06062B3
:102700000A438260204600F07BFE226820210020E0
:102710001560C4F8881084F8840070BD022070BD74
:1027200070B5044690F8840001281DD0012284F879
:1027300084202420C4F8880020680568026822F0FC
:10274000010202602068826822F060420A438260CF
:10275000204600F055FE2268202100201560C4F8B4
:10276000881084F8840070BD022070BD10B504008C
:1027700003D0D4F8880010B107E0012010BD00207C
:1027800084F88400204600F027F82420C4F888004C
:102790002068016821F001010160A06A10B12046A3
:1027A00000F050FE204600F031FF0128E6D02068FE
:1027B000416821F4904141602068816821F02A013C
:1027C00081602068016841F0010101602046BDE898
:1027D000104000F09BBE000010B5B6B004461421B6
:1027E00030A8FDF740FEC0216846FDF73CFE1949C0
:1027F000206888422BD100201F9001210446CDE99A
:1028000000106846FEF776FB08B1FDF7DBFE1248C4
:10281000016841F010010160006800F0100035907F
:102820000D481038016841F002010160006830ABCA
:10283000022100F0020035904FF44040042283E86A
:102840001300064830A9CDE93342FDF7CBFE36B080
:1028500010BD000000100140F0440258000402586E
:10286000FEE7000010B50C4C002210212046FDF7B9
:10287000CFFF022001F00BFA012220461021FDF7C4
:10288000C7FF042001F003FA00222046BDE81040F3
:102890001021FDF7BDBF000000000258134800B52D
:1028A00087B0016841F00101016000680121032245
:1028B000039200F0010005903E20CDE900010C4894
:1028C0006946FDF78FFE00F033F800F015F801239C
:1028D000084A0321184601F0BBF8064A02210123E9
:1028E0000846121F01F0B4F807B000BDE0440258DA
:1028F000000002581C00002410B50C4C00222021BE
:102900002046FDF785FF012001F0C1F90122204694
:102910002021FDF77DFF1E2001F0B9F9002220469D
:10292000BDE810402021FDF773BF000000000258F1
:1029300010B50E4C012202212046FDF769FF00224E
:1029400020460421FDF764FF002220460821FDF700
:102950005FFF002220461021FDF75AFF002220468B
:10296000BDE810402021FDF753BF000000000258D1
:102970000148FDF7BBBF0000200000240148FDF71F
:10298000B5BF00005800002430B587B01421684658
:10299000FDF769FD2248016841F0100101600168FE
:1029A00001F010010591016841F0800101600168AA
:1029B00001F080010591016841F0020101600168A8
:1029C00001F002010591016841F004010160006815
:1029D00000254FF48814694600F004000590082093
:1029E0008DE831000F48FDF7FDFD4FF4805069463A
:1029F0008DE831000C48FDF7F5FD00220E2109207D
:102A0000FEF7C6F80920FEF7B5F800220E212820AF
:102A1000FEF7BEF82820FEF7ADF807B030BD000085
:102A2000E044025800100258000802580D484FF4C4
:102A3000606210B50A4C00214FF6FF7304604361D9
:102A4000C0E90112016241628162C1620163FDF766
:102A5000B3FF002803D0BDE81040FDF7B3BD10BDA3
:102A600000240040200000240D484FF4606210B59F
:102A70000A4C00214FF6FF7304604361C0E9011264
:102A8000016241628162C1620163FDF795FF002826
:102A900003D0BDE81040FDF795BD10BD00240058DF
:102AA0005800002410B58EB000241C21009407A803
:102AB000019402940394049405940694FDF7D3FCC6
:102AC0001E484FF6FF71EF221B4BC0E90241046123
:102AD0008461C0E90032FFF72DFC08B1FDF772FDFB
:102AE0004FF48050009015486946FFF769FC08B123
:102AF000FDF768FD1148FFF79BFD08B1FDF762FD8A
:102B00000E4804A904940694FFF7C2FB08B1FDF730
:102B100059FD6020CDE907040848002207A909945F
:102B20000B94FFF7F3FC08B1FDF74CFD0348FFF7EA
:102B3000C5FC0EB010BD000000080040900000244D
:102B40001848002110B5164C08224FF46123046088
:102B5000C0E90131C160C0E904128161C161016253
:102B600041628162FFF702FE08B1FDF72BFD0D48BF
:102B70000021FFF7D5FD08B1FDF724FD094800212C
:102B8000FFF7A8FD08B1FDF71DFD0648FFF782FD20
:102B9000002803D0BDE81040FDF714BD10BD0000B3
:102BA00000100140DC000024FEE7FEE7704700B59E
:102BB000B1B0C0216846FDF756FC00204FF000413F
:102BC000CA081592CDE900106846FEF793F900286F
:102BD00001D072B6FEE731B000BD00002DE9F0472C
:102BE000454D044689464FF0000A2868C0438007D7
:102BF0000AD0414E283E306820F080603060FDF7FA
:102C000013FE0746B04608E00120BDE8F08700BF8C
:102C1000FDF70AFEC01B022867D8D8F800000001A3
:102C2000F6D4206829684FF4FE0721F47C313E0277
:102C300041EA00302860207AA389B4F804C0400239
:102C40002D4D2D495B1E227CACF1010C1035091D68
:102C5000A0F5007080B2521ECCF3080C07EA0343C3
:102C600040EA0C00184306EA026210432860086834
:102C7000626920F0C000104308600A68A06922F071
:102C8000200202430A60281D0A6822F010020A602E
:102C900002684FF6F873E4699A4342EAC40202609C
:102CA0000868B9F1000F40F010020A6011D00868FE
:102CB000B9F1010F11D040F400100860D8F80000FD
:102CC000444640F08060C8F80000FDF7ADFD0546C1
:102CD0000DE0086840F40020EFE740F48010ECE7D6
:102CE000FDF7A2FD401B022801D903208DE72068D3
:102CF0000001F5D5504688E7284402582DE9F047F1
:102D0000454D044689464FF0000A2868C0438007B5
:102D10000AD0414E283E306820F080503060FDF7E8
:102D200083FD0746B04608E00120BDE8F08700BFFC
:102D3000FDF77AFDC01B022867D8D8F80000800094
:102D4000F6D4208829684FF4FE0721F07C713E02FA
:102D500041EA00502860207AA389B4F804C04002F8
:102D60002D4D2D495B1E227CACF1010C1835091D3F
:102D7000A0F5007080B2521ECCF3080C07EA0343A2
:102D800040EA0C00184306EA026210432860086813
:102D9000626920F44060104308600A68A06922F468
:102DA000007202430A60281D0A6822F480720A60D9
:102DB00002684FF6F873E4699A4342EAC40202607B
:102DC0000868B9F1000F40F480720A6011D00868F9
:102DD000B9F1010F11D040F080700860D8F8000000
:102DE000444640F08050C8F80000FDF71DFD054640
:102DF0000DE0086840F48000EFE740F40000ECE7E5
:102E0000FDF712FD401B022801D903208DE7206841
:102E10008000F5D5504688E7284402587047FDF7F2
:102E200009BD0000F0B59BB04C216846FDF71BFBC7
:102E3000202113A8FDF717FB0220FDF7DBFE1B483E
:102E400001688904FCD50220112100912026052764
:102E5000CDE9086000240E90C203019280230793FD
:102E6000C021CDE90A07CDE90C1008250F90CDE966
:102E7000105468461294FEF723FF08B172B6FEE7BD
:102E800040201A903F210301CDE916500322CDE9DD
:102E9000180313AB13A883E816000021FEF700FD0A
:102EA000002801D072B6FEE71BB0F0BD18480258EA
:102EB0002C48F0B52C4A016841F47001016010689B
:102EC00000F00F00072804D2106820F00F00C01D8A
:102ED000106026490020254C10340B68244D43F027
:102EE00001030B6020600B682B400B60136803F03C
:102EF0000F03072B04D9136823F00F03DB1D1360A6
:102F00001A4C1C4A18341C4B261D371D2060174CC8
:102F10001A4D28343060261D3860371D23603B1D54
:102F200035601C1D3A60251D2E1D1860331D226062
:102F30002860326018600A680C4B114C22F4802221
:102F400060330A60186020686FF30F00B0F1005F13
:102F500003D20C490120C1F8080143F2D2000A490A
:102F60000860F0BD88ED00E00020005200440258E7
:102F70007FEDF6EA80020101000202020000FF017B
:102F80000010005C00800051004000522DE9F04725
:102F90002A4B4FF0804A2A4D02689842294E2A4F08
:102FA0002A4C09D0504507D0A84205D0B04203D0E2
:102FB000B84201D0A04205D1D1F804C022F070027D
:102FC0004CEA0202DFF888C0DFF888809842DFF818
:102FD00088900FD050450DD0A8420BD0B04209D0F8
:102FE000B84207D0A04205D0604503D0404501D08B
:102FF000484503D1CD6822F440722A434D6922F03E
:1030000080022A43026098428A68C2620A68826229
:1030100007D0A04205D0604503D0404501D04845C7
:1030200001D109690163012141610169C90703D027
:10303000016921F001010161BDE8F0870000014054
:103040000004004000080040000C00400004014063
:1030500000400140004401400048014042EA032290
:1030600083680A4323F47F410A438260704700006B
:10307000034B82681A400A4342F00701816070479F
:103080008FFFCFFF2DE9F04FDFF88480214EDFF86E
:103090008890DFF888B0026A036AB042DFF880A047
:1030A00022F0020C1F4F23F0010202624268856980
:1030B0008B680C6805EA080525F0030543EA0C0354
:1030C00044EA050407D0484505D0584503D050458B
:1030D00001D0B84205D1CD6823F008031D4325F087
:1030E0000403B04207D0484505D0584503D05045A9
:1030F00001D0B84205D122F44076D1E905523543DA
:103100002A4342608461496841630362BDE8F08FED
:103110008FFFFEFF0000014000040140004001401D
:103120000044014000480140F0B5DFF87CE01F4C4E
:103130001F4D026A036AA04222F0200623F010030A
:10314000036242688369D1F808C00F6803EA0E037E
:1031500023F4407E46EA0C134EEA072601D0A8422B
:1031600006D1CF6823F0800343EA071323F040031E
:10317000A0420AD0A84208D00E4CA04205D00E4C66
:10318000A04202D00D4CA04207D1D1E9054522F45E
:10319000406242EA840242EA8502426086614968EE
:1031A00081630362F0BD0000FF8FFFFE000001405D
:1031B000000401400040014000440140004801403B
:1031C000F0B5DFF87CE01F4D1F4E026A036AA8428B
:1031D00022F4007723F4807303624368C269D1F854
:1031E00008C002EA0E020C6822F0030E47EA0C2225
:1031F00044EA0E0401D0B04206D1CF6822F4006246
:1032000042EA072222F48062A8420AD0B04208D0E3
:103210000E4DA84205D00E4DA84202D00D4DA84239
:1032200007D1D1E9055623F4405343EA051343EA95
:1032300006134360C4614968C1630262F0BD0000C7
:103240008FFFFEFF000001400004014000400140EC
:103250000044014000480140F0B5046A026A22F4CB
:10326000805202624268C36924F40054DFF848C007
:103270008E680D6803EA0C03104F23F4407344EA90
:103280000634B84243EA05230BD00D4DA84208D0BE
:103290000C4DA84205D00C4DA84202D00B4DA842BF
:1032A00004D14D6922F4804242EA85124260C36132
:1032B000496801640462F0BDFF8FFFFE0000014019
:1032C000000401400040014000440140004801402A
:1032D000F0B5164F164B026A046A984222F4003584
:1032E00024F4803303624268436D0E890C6803EA5C
:1032F000070344EA030445EA06430BD00D4DA842F8
:1033000008D00D4DA84205D00C4DA84202D00C4D5E
:10331000A84204D14D6922F4803242EA052242607B
:103320004465496881650362F0BD00008FFFFEFFC0
:103330000000014000040140004001400044014001
:1033400000480140F0B5164F164B026A046A9842D5
:1033500024F48013036222F400144268436D0E8942
:103360000D6803EA070344EA065443EA05230BD039
:103370000D4DA84208D00D4DA84205D00C4DA842D5
:1033800002D00C4DA84204D14D6922F4802242EAB9
:103390008522426043654968C1650462F0BD000052
:1033A000FF8FFFFE0000014000040140004001408B
:1033B000004401400048014010B5036A046A23F04C
:1033C0000A0324F00104046284690B4324F0F00131
:1033D00041EA02118161036210BD10B5036A046AFB
:1033E00023F0A00324F010040462846943EA01116D
:1033F00024F4704343EA02328261016210BD00008E
:1034000030B5416EB9B101680D4B03F108048A680B
:103410008968C2F34262490F5D5C615C2D01B5FBB6
:10342000F1F1A0F86A10995CA25C0901B1FBF2F11C
:10343000A0F8681030BD0121A0F86A10F8E700007C
:103440001A3D000890F82810090706D50168836B1B
:103450004A6822F400421A434A6090F82810C907CB
:1034600006D00168C36A4A6822F400321A434A60EF
:1034700090F82810890706D50168036B4A6822F482
:1034800080321A434A6090F82810490706D501682F
:10349000436B4A6822F480221A434A6090F828104D
:1034A000C90606D50168C36B8A6822F480521A43A4
:1034B0008A6090F82810890606D50168036C8A682E
:1034C00022F400521A438A6090F82810490611D558
:1034D0000168436C4A6822F480121A434A60416CC6
:1034E000B1F5801F06D10168836C4A6822F4C002DE
:1034F0001A434A6090F82810090606D50168C26C84
:10350000486820F400201043486070472DE9F843D4
:1035100000250446C0F89050FDF786F980462068E3
:1035200020266FF07E470068000713D5002243462F
:1035300031042046009700F03FFA58B1216851E865
:10354000000F20F0800041E80002002AF6D1C4F804
:10355000886021E020680068400722D500224346A9
:103560004FF480012046009700F026FAC8B1206889
:1035700050E8001F21F4907140E80012002AF6D1B3
:103580002068083050E8001F21F0010140E80012D7
:10359000002AF5D1C4F88C60032084F88450BDE87B
:1035A000F883C4F88860C4F88C60E566256700205D
:1035B00084F88450F3E7000010B5026852E8001F59
:1035C00021F4907142E80013002BF6D10E4B0268F3
:1035D000083252E8001F194042E80014002CF6D1CE
:1035E000C16E012908D1026852E8001F21F01001C4
:1035F00042E80013002BF6D100212022C0F88C20D5
:10360000C166416710BD0000FEFFFFEF2DE9F043EA
:1036100004468068D84E87B0D84B2168D4E9042787
:10362000D4F81CC010430A68002547EA0C07384349
:10363000324002430A602068E268416821F4405148
:10364000114341602268A1699A4201D0206A014376
:103650009768DFF82CC3CB4ECB4807EA0C070F4323
:1036600097602168676ACA6A22F00F023A43CA6209
:103670002268B2420ED1006800F03800182873D0DA
:1036800047DCB8B3082879D010286FD178E0282813
:103690007ED17BE0BD498A4209D1006800F0070075
:1036A000062875D2DFE800F0546A6C6E7072B84973
:1036B0008A4209D1006800F00700062868D2DFE8D6
:1036C00000F0475D5F616365B2498A4209D10068D5
:1036D00000F0070006285BD2DFE800F03A505254B1
:1036E0005658AD498A420BD1006800F00700062801
:1036F0004ED200E010E0DFE800F02B41434547499F
:10370000A6498A420AD1006800F03800182839D04A
:10371000B7DD2028BBD13CE001203AE0A0498A4235
:1037200009D1006800F00700062831D2DFE800F078
:103730001026282A2C2E9B498A420BD1006800F0C3
:103740000700062824D2DFE800F003191B1D1F2103
:1037500000201EE09A421BD18B48001D006800F03B
:103760000700062814D202E00CE007E010E0DFE8D2
:1037700000F0030507090B0D02200AE0042008E011
:10378000082006E0102004E0202002E0402000E0B5
:1037900080208549DFF814829A42854A4FF400431D
:1037A0004FEA21174FF000064ED110281AD006DC40
:1037B000022809D004280BD008287CD10DE020284D
:1037C0003ED0402877D13DE0FDF73EFA014610E0BB
:1037D0006846FDF74BFA01990BE003A8FDF7E8FAFC
:1037E000049906E01068800605D51068C0F3C10092
:1037F000C140002970D0606A676838F8102007EB74
:103800004703B1FBF2F0834255D8B0EB073F52D8E3
:10381000002308461946FCF7AFFD02467808130E50
:10382000120243EA012110183A4671410023FCF7C5
:10383000A3FD604AA0F5407191423CD821688FE019
:103840003946D8E71946D6E7D4F81CC04FF6EF79C9
:103850009C4546D1082819D005DC58B101280CD068
:10386000042875D10DE0102815D0202835D0402827
:103870006ED134E0FEF764F901E0FEF773F901461A
:1038800010E06846FDF7F2F901990BE003A8FDF797
:103890008FFA049906E01068800604D51068C0F31A
:1038A000C100C140C1B1636A606838F81330B1FB30
:1038B000F3F1490000E04BE001EB5001B1FBF0F007
:1038C000A0F11001494543D84FF6F0732168C0F3C9
:1038D00042021840104343E043E03946E3E719460B
:1038E000E1E7082819D005DC58B101280CD00428DC
:1038F0002ED10DE0102815D020282BD0402827D11C
:103900002AE0FEF71DF901E0FEF72CF9014610E070
:103910006846FDF7ABF901990BE003A8FDF748FAFB
:10392000049906E01068800604D51068C0F3C10051
:10393000C140B1B1636A606838F81330B1FBF3F18C
:1039400001EB5001B1FBF0F0A0F11001494505D9A0
:10395000012506E03946EDE71946EBE7216880B21C
:10396000C8600120A4F86A00A4F8680028466667C9
:10397000A66707B0BDE8F083F369FFCF000C0058DD
:10398000FFF4FF110010014054440258004400406D
:1039900000480040004C004000500040001401402E
:1039A00000780040007C00400090D003023D0008F9
:1039B00000440258FFFC0F002DE9F04799461746D6
:1039C0000D460446089E4FF0000833E0701C31D0CD
:1039D000FCF72AFFA0EB0900B04218D8BEB120685E
:1039E0000168490726D5802D24D0402D22D0C169F9
:1039F000C94309070DD4082505622046FFF7DCFD01
:103A0000C4F89050012084F88480BDE8F08703203A
:103A1000FBE7C069C04300050CD421684FF4006087
:103A200008622046FFF7C8FD2021C4F8901084F8F2
:103A30008480ECE72068C06935EA000004D00020EB
:103A4000B842C3D00020E0E70120F9E7FEE700001C
:103A50002DE9F0472E4E00259A46914688460446A9
:103A600002212A463046FCF7D3FE002230460421CC
:103A7000FCF7CEFE200601D5012200E000223046F0
:103A80000821FCF7C5FE012230460421FCF7C0FEE8
:103A900060066D1C040EEDB2082DE6D30022304600
:103AA0000421FCF7B5FE0024374622E019F8046033
:103AB0000025002238460421FCF7AAFE300601D575
:103AC000012200E0002238460821FCF7A1FE012275
:103AD00038460421FCF79CFE70066D1C060EEDB204
:103AE000082DE6D3002238460421FCF791FE641C21
:103AF000E4B24445DAD3BAF1010F01D1FEF7B2FEC8
:103B00003846BDE8F04701220221FCF781BE0000E3
:103B10000000025838B510240A460023009344EAF6
:103B200012218DF802208DF8011040B101280AD031
:103B3000022816D0032813D10C4A012306E00B4AB1
:103B40000123D21E02E0094A0123921E0121002016
:103B5000FFF77EFF01236A4603210620FFF778FF67
:103B600038BD024A0123521EF0E70000170000246E
:103B700000EE101A9FED181B194AB8EE400B10B555
:103B800020EE010BBCEEC00B10EE101A51704FEA84
:103B90001123137098B1012815D0022817D00328DB
:103BA00019D10023D21E01210020FFF751FF00236D
:103BB0000B4A0221BDE810400520FFF749BF084A23
:103BC0000023921FEFE7064A0023521FEBE7044A47
:103BD0000023121FE7E710BD1CD0D2156CC1464070
:103BE0001A00002400EE101A9FED1D1B38B5B8EE28
:103BF000400B0021009120EE010BBCEEC00B10EE3B
:103C0000101A8DF803104FEA11228DF802204FEAA6
:103C100011438DF801304FEA11648DF8004040B136
:103C200001280AD0022816D0032813D10E4A0123F6
:103C300006E00D4A0123D21E02E00B4A0123921E28
:103C400001210020FFF704FF04216A4601230846F2
:103C5000FFF7FEFE38BD044A0123521EF0E70000C4
:103C600095D626E80B2E21401700002409070028CE
:103C70004FEA116104DB00F1E02080F80014704786
:103C800000F00F0000F1E02080F8141D704700EBF9
:103C900040008000401EFDD270470000FCF7D2FDBE
:103CA000FFF7C0F8FEF783FFFEF76EFEFEF748FF52
:103CB000FEF7BCFEFEF7D8FEFEF7F4FEFEF7EEFDC3
:103CC0000A4A00230A490B48FCF747FC40F2FF3040
:103CD00003461A461146FCF72AFCB4224FF48773B8
:103CE0005A210020FCF74FFCFEE70000005A620258
:103CF000C00E160280C3C9014FF04070E1EE100AF9
:103D00007047010002000400060008000A000C00D1
:103D100010002000400080000001010101030701A4
:103D20000000080402040801010100000000010273
:103D30000304010203040607080900005C3D0008B3
:103D40000000002420000000D40200087C3D000890
:103D500020000024B0110200F00200080100000061
:103D600010000000000000000090D0030090D0037D
:0C3D70001020408020000000D000000067
:040000050800029954
:00000001FF
