:020000040800F2
:10000000D0110224390300083B2A0008F126000819
:10001000392A0008B305000839380008000000003C
:10002000000000000000000000000000A92C0008F3
:10003000B5050008000000003D2A0008AB2C0008B0
:100040005303000853030008530300085303000838
:100050005303000853030008530300085303000828
:1000600053030008BF0500085303000853030008AA
:100070005303000853030008530300085303000808
:1000800053030008530300085303000853030008F8
:1000900053030008530300085303000853030008E8
:1000A00053030008530300085303000853030008D8
:1000B00053030008530300085303000853030008C8
:1000C00053030008530300085303000853030008B8
:1000D00053030008530300085303000853030008A8
:1000E000B705000853030008000000005303000890
:1000F0005303000853030008530300085303000888
:100100005303000853030008530300085303000877
:100110005303000853030008530300085303000867
:100120005303000853030008530300085303000857
:100130005303000853030008530300085303000847
:1001400000000000000000000000000000000000AF
:100150005303000853030008530300085303000827
:100160005303000853030008530300085303000817
:100170005303000853030008530300085303000807
:1001800053030008530300085303000853030008F7
:1001900053030008530300085303000853030008E7
:1001A00053030008530300085303000853030008D7
:1001B00053030008012800085303000853030008F4
:1001C00053030008530300085303000853030008B7
:1001D00053030008530300085303000853030008A7
:1001E0005303000853030008530300085303000897
:1001F0005303000853030008530300085303000887
:100200005303000853030008530300085303000876
:100210005303000853030008530300085303000866
:1002200053030008530300085303000800000000B4
:1002300053030008530300080000000053030008A4
:100240005303000853030008530300085303000836
:100250005303000853030008530300085303000826
:1002600053030008530300080D2800085303000837
:100270005303000853030008530300080000000064
:100280005303000853030008530300080000000054
:10029000000000005303000800F002F800F03CF8F2
:1002A0000AA090E8000C82448344AAF10107DA45D1
:1002B00001D100F031F8AFF2090EBAE80F0013F0E7
:1002C000010F18BFFB1A43F0010318475C38000008
:1002D0007C380000103A24BF78C878C1FAD8520799
:1002E00024BF30C830C144BF04680C6070470000B0
:1002F0000023002400250026103A28BF78C1FBD82F
:10030000520728BF30C148BF0B6070471FB503F0CC
:10031000E9FB1FBD10B510BD00F0CFF81146FFF787
:10032000F5FF03F0B1FB00F0EDF803B4FFF7F2FFC7
:1003300003BC00F0F5F80000094880470948004771
:10034000FEE7FEE7FEE7FEE7FEE7FEE7FEE7FEE785
:10035000FEE7FEE704480549054A064B70470000E2
:100360005D2D000899020008D0010024D01102245C
:10037000D0110024D011002453EA020C00F069804F
:100380002DE9F04B4FF00006002B1FBFB3FA83F5A9
:1003900003FA05F424FA05F65E4012BF1643B2FADA
:1003A00082F502FA05F4C5F120051EBF22FA05FC0C
:1003B00044EA0C04203556EA044C4FEA144418BFB2
:1003C000641C4FF000084FF00009904271EB030CE1
:1003D00039D3002919BFB1FA81F701FA07F6B0FA4B
:1003E00080F700FA07F6C7F120071EBF20FA07FCC6
:1003F00046EA0C062037B6FBF4FCA7EB0507103FD6
:1004000007F01F0BCBF120060CFA0BFB2CFA06F6BB
:1004100044BFB3460026202FA4BF5E464FF0000B1A
:100420005BEA060C08BF4FF0010B19EB0B09ABFBA5
:10043000027C48EB0608C01B06FB02CC0BFB03CC7E
:1004400071EB0C01C1E70B46024641464846BDE848
:10045000F08B13B54FF000004FF00001AFF30080B8
:10046000BDE81C4070474FF0000200B513469446AB
:100470009646203922BFA0E80C50A0E80C50B1F1FC
:100480002001BFF4F7AF090728BFA0E80C5048BF10
:100490000CC05DF804EB890028BF40F8042B08BFAE
:1004A000704748BF20F8022B11F0804F18BF00F8AA
:1004B000012B7047704770477047754600F02CF865
:1004C000AE4605006946534620F00700854618B041
:1004D00020B5FFF73FFFBDE820404FF000064FF08A
:1004E00000074FF000084FF0000B21F00701AC4669
:1004F000ACE8C009ACE8C009ACE8C009ACE8C00988
:100500008D46704710B50446AFF300802046BDE825
:100510001040FFF70ABF0000004870476C0100243C
:1005200001491820ABBEFEE726000200704770B5F7
:100530000E461C4681B21546002003F0E1F9B1B227
:10054000012003F0DDF9A9B2022003F0D9F9A1B22C
:10055000BDE87040032003F0D3B970B50C461D46CA
:1005600016460146002003F033FA0120214603F02D
:100570002FFA0220314603F02BFA2946BDE87040DD
:10058000032003F025BA70B50E461C4681B215460D
:10059000002003F0E3F9B1B2012003F0DFF9A9B2C2
:1005A000022003F0DBF9A1B2BDE87040032003F0A4
:1005B000D5B9FEE770474FF4805000F006B8082028
:1005C00000F003B872B6FEE770474FF0B04110B5C7
:1005D000D1F88820024203D0C1F88800FFF7F4FF69
:1005E00010BD00002DE9FC4F01257E4C00234FF08B
:1005F000030A4FF0B04E4FF00F0BEBE005FA03F695
:1006000037403A0077D04F68012F05D0022F03D032
:10061000112F01D0122F1AD187684FEA4308D1F861
:100620000CC00AFA08F927EA09070CFA08FC4CEA98
:10063000070CC0F808C0476891F804C0B743CCF372
:10064000001C0CFA03FC4CEA070CC0F804C0C66896
:100650004FEA430CD1F80880E1460AFA0CF7BE4392
:10066000019708FA09F848EA0608C0F80C804E68B5
:10067000022E01D0122E12D1DE084FEA437C00EB8D
:10068000860600960F69366A4FEADC6C0BFA0CF8A6
:1006900007FA0CF726EA08063743009E37620E7900
:1006A0000768DDF804C006F0030606FA09F627EA33
:1006B0000C073E4306604E68F6001CD54A4E37686C
:1006C00047F00207376036689F0706F0020600967B
:1006D00023F0030606F1B046B1463F0FD6F8086492
:1006E000DFF808810BFA07FC404526EA0C0603D127
:1006F0004FF0000C41E06CE0DFF8F4C0604502D13F
:100700004FF0010C39E0DFF8ECC0604502D14FF04A
:10071000020C32E0DFF8E0C0604502D14FF0030C7C
:100720002BE0DFF8D8C0604502D14FF0040C24E084
:10073000DFF8CCC0604502D14FF0050C1DE0DFF8BA
:10074000C4C0604502D14FF0060C16E0DFF8B8C017
:10075000604502D14FF0070C0FE0DFF8B0C06045F4
:1007600002D14FF0080C08E0DFF8A4C0604502D1C8
:100770004FF0090C01E04FF00A0C0CFA07FC4CEAB0
:10078000060CC9F808C426684F6826EA0206FF036B
:1007900000D51643266066684F6826EA0206BF0346
:1007A00000D516436660D1F804C07646DEF80070C6
:1007B0005FEACC2C27EA020700D517433760D1F84F
:1007C00004C077685FEA8C2C27EA020700D517433C
:1007D00077605B1C0A681746DA407FF40FAFBDE80C
:1007E000FC8F000080000058F444025800000258BA
:1007F0000004025800080258000C02580010025869
:100800000014025800180258001C02580020025818
:10081000002402580AB1816170470904FBE7000017
:1008200001480068000C70470010005C01488068B7
:1008300070470000000000240248816802781144DB
:100840008160704700000024032010B500F0C0F95B
:1008500001F02EF90F4A104914681368C4F30322FB
:1008600003F00F038A5CC95C02F01F0201F01F0154
:10087000D0400A4A20FA01F11160094908600F20AE
:1008800000F010F808B1012010BD00F057F9002069
:1008900010BD000018440258163B00081000002448
:1008A0000C00002470B50D4D04462878A0B14FF41B
:1008B0007A71B1FBF0F00A490968B1FBF0F001F080
:1008C00029FC48B9102C07D200222146501E00F006
:1008D0005FF900206C6070BD012070BD0000002435
:1008E0000C0000247047704770477047704770478E
:1008F00010B5044600680168C943C90708D181687A
:10090000C943C90704D1012141602046FFF7ECFF2C
:1009100020680168C943890708D48168C9438907E9
:1009200004D4022141602046FFF7DCFF2068016803
:10093000C943490708D48168C943490704D404213D
:100940004160204600F0F8F820680168C9430907B3
:1009500008D48168C943090704D4082141602046AE
:10096000FFF7C3FF20680168C943C90608D481683E
:10097000C943C90604D4102141602046FFF7B3FFE4
:1009800020680168C943890608D48168C94389067B
:1009900004D4202141602046FFF7A9FF20680168A8
:1009A000C943490608D48168C943490604D4402193
:1009B00041602046FFF79AFF10BD00002DE9F04787
:1009C000040005D094F836004FF6FF7518B108E022
:1009D0000120BDE8F087002084F83500204600F0B3
:1009E0005DF8022084F836004FF4000AD4E9006371
:1009F000F268012B02D0A06A504501D122F01E02FC
:100A00006169A946494502D04EF2C0008243D4F83C
:100A100008C0D4E9087843EA0C00DFF870C0A56A82
:100A200047EA080740EA070002EA0C0240EA05002C
:100A300040EA0200DBB1012B01D0554503D1D4E9D6
:100A400003231A431043494505D0D4E9063219431C
:100A5000024341EA0200F0600D492068884202D05A
:100A60000C49884208D1D4E90B12114308E02369EC
:100A7000E2691A431043E0E70749884201D1E16A7D
:100A80004162012084F836000020A2E7FEF119FF40
:100A900000240040002400580028005810B5B0B0D1
:100AA0000446BC216846FFF7DEFC204920688842E6
:100AB0001AD120204FF0A04123910090684600F009
:100AC00019FA08B1FFF77EFD1948016841F4007179
:100AD0000160006800220A2100F400702F905D2060
:100AE00000F056F85D201CE0124988421BD14020DE
:100AF000009000216846269100F0FCF908B1FFF74C
:100B000061FD0B480C30016841F400710160006820
:100B100000220D2100F400702F908A2000F038F898
:100B20008A2000F027F830B010BD000000240040FB
:100B3000E844025800240058704700000C4808B5EB
:100B4000016841F002010160016801F002010091B9
:100B5000016841F400410160006800F40040009029
:100B600001F0C6FABDE80840022001F0C9BA000051
:100B7000F4440258002809DB410900F01F028900F3
:100B8000012001F1E0219040C1F800017047000010
:100B90000E4BF0B41B680D46C3F30223C3F10706E6
:100BA000042E00D90426191D072901D2002300E0D4
:100BB000DB1E012404FA06F19C40491E2940641EF4
:100BC000994014402143F0BC02F046BF0CED00E018
:100BD000064900F0070210B54FF6FF040868044B01
:100BE000204040EA02201843086010BD0CED00E0F0
:100BF0000000FA05134970B50A68D243520705D5BB
:100C0000096801F00701814213D118E00A6822F057
:100C1000070202430A60FFF709FE0A4D4FF47A7695
:100C20000446083D07E000BFFFF700FE001BB0428E
:100C300001D9012070BD2868C0438004F4D400208D
:100C400070BD00000C48025810B500F0EBFE0549DD
:100C50000968054AC1F30211515C01F01F01C84047
:100C600010BD000020440258163B0008494930B529
:100C7000484C0B1D0A68143409681D68246802F08A
:100C80000303C5F30012C1F30531C4F3CC040029FA
:100C900014FB02F200EE102AF8EE400A75D03F4A2B
:100CA0009FED3D1AB7EE000A6BB1DFED3D1A012B47
:100CB00001D0022B64D002EE101A1168F8EE422A1D
:100CC00081EEA22A21E0334C283C23689B0612D5F2
:100CD000344B246801EE901A1168C4F3C104F8EE95
:100CE000612AE34001EE903AC1F30801F8EE611A7F
:100CF00081EEA22A0BE001EE901ADFED2B2A00BF55
:100D0000F8EE611A116882EEA12AC1F3080101EE22
:100D1000901A1168F8EE611A40EE811A71EE800A9D
:100D200062EE200AC1F3462101EE101AB8EE411A14
:100D300031EE001AC0EE811ABCEEE11A80ED001A05
:100D40001168C1F3064101EE101AB8EE411A31EEF6
:100D5000001AC0EE811ABCEEE11A80ED011A11688A
:100D6000C1F3066101EE101AB8EE411A31EE000A25
:100D700080EE801ABCEEC10A80ED020A30BD04E0AC
:100D800001EE901ADFED092ABAE700210160416007
:100D90008160F3E7284402580000003938440258C3
:100DA0000024744A0090D0030024744C20BCBE4B35
:100DB000494930B5484C0B1D0A681C3409681D6848
:100DC000246802F00303C5F30022C1F30551C4F304
:100DD000CC04002914FB02F200EE102AF8EE400ABF
:100DE00075D03F4A9FED3D1AB7EE000A6BB1DFEDBB
:100DF0003D1A012B01D0022B64D002EE101A1168AB
:100E0000F8EE422A81EEA22A21E0334C283C2368E6
:100E10009B0612D5344B246801EE901A1168C4F376
:100E2000C104F8EE612AE34001EE903AC1F30801F3
:100E3000F8EE611A81EEA22A0BE001EE901ADFEDC6
:100E40002B2A00BFF8EE611A116882EEA12AC1F3C5
:100E5000080101EE901A1168F8EE611A40EE811A4D
:100E600071EE800A62EE200AC1F3462101EE101AEB
:100E7000B8EE411A31EE001AC0EE811ABCEEE11A4A
:100E800080ED001A1168C1F3064101EE101AB8EEA8
:100E9000411A31EE001AC0EE811ABCEEE11A80ED63
:100EA000011A1168C1F3066101EE101AB8EE411A79
:100EB00031EE000A80EE801ABCEEC10A80ED020A13
:100EC00030BD04E001EE901ADFED092ABAE70021F7
:100ED000016041608160F3E7284402580000003956
:100EE000404402580024744A0090D0030024744CFB
:100EF00020BCBE4B2DE9FC5F044650F8241B0025A6
:100F000000902E460801FE4FDFF8F8831DD5606E75
:100F100050B1B0F5801F0CD0B0F5001F0ED0B0F569
:100F2000401F1DD001250FE0386840F400303860C4
:100F300016E00221201D01F097FD03E00098022138
:100F400001F022FE05000BD02E462088C00523D5D7
:100F5000606D05281ED2DFE800F00C11161B1B0087
:100F6000626ED8F8001021F440111143C8F8001047
:100F7000EBE7386840F40030386009E00021201DBC
:100F800001F072FD03E00098002101F0FDFD05462F
:100F90006DB100E001252E462088800528D5A06D82
:100FA00080281ED00CDC90B140280ED114E0626D78
:100FB000D8F8001021F007011143C8F80010EBE742
:100FC000C02813D0B0F5807F10D001250FE038681D
:100FD00040F40030386009E00021201D01F044FD9C
:100FE00003E00098002101F0CFFD054695B12E46A3
:100FF0002088DFF81093400509F108092CD5D4F8B2
:10100000A400B0F5800F20D00DDCA0B1B0F5001F1A
:101010000FD115E0A26DD8F8001021F4E071114352
:10102000C8F80010E4E7B0F5C00F13D0B0F5000F1A
:1010300010D001250FE0386840F40030386009E036
:101040000021201D01F010FD03E00098002101F0B7
:101050009BFD054675B12E46208800052DD5D4F898
:10106000A800B0F1007F21D00EDCA8B1B0F1807FE4
:1010700010D116E0D4F8A420D9F8001021F46001B2
:101080001143C9F80010E7E7B0F1407F13D0B0F189
:10109000806F10D001250FE0386840F400303860D0
:1010A00009E00021201D01F0DFFC03E00098002191
:1010B00001F06AFD05466DB12E46206880011FD5FE
:1010C000A06CD8B110280FD0202812D0302815D00D
:1010D000012514E0D4F8A820D9F8001021F0E0612F
:1010E0001143C9F80010E8E7386840F40030386070
:1010F00004E00221201D01F0B7FC05466DB12E462B
:101100002088C0042BD5E06DB0F5005F20D00DDC49
:10111000A0B1B0F5805F0FD115E07A48A26C001F36
:10112000016821F0300111430160E9E7B0F5405F4B
:1011300013D0B0F5804F10D001250FE0386840F48F
:101140000030386009E00021201D01F08DFC03E033
:101150000098002101F018FD054685B12E46208833
:10116000800429D5206EB0F5403F23D010DC08B3B1
:10117000B0F5803F14D0B0F5003F0FD115E0E26D1F
:10118000D8F8001021F4E0411143C8F80010E6E758
:10119000B0F5802F0ED0B0F5A02F0BD001250AE0BE
:1011A0000121201D01F060FC03E00098012101F005
:1011B000EBFC05468DB12E46208840042AD5D4F894
:1011C000AC00B0F1405F23D010DC08B3B0F1805F19
:1011D00014D0B0F1005F0FD115E0226ED8F80010E6
:1011E00021F4E0211143C8F80010E5E7B0F1804F89
:1011F0000ED0B0F1A04F0BD001250AE00121201D37
:1012000001F032FC03E00098012101F0BDFC05462D
:101210006DB12E46208800041FD5E06ED8B1B0F124
:10122000805F0ED0B0F1005F10D0012514E0D4F83B
:10123000AC20D9F8001021F0E0411143C9F80010AA
:10124000E8E7386840F40030386004E00121201DF0
:1012500001F00AFC05466DB12E462068C0011ED57E
:10126000606CD0B101280ED0022811D0032814D010
:10127000012513E0E26ED8F8001021F0405111432F
:10128000C8F80010E9E7386840F40030386004E03E
:101290000221201D01F0E8FB054685B12E4620689D
:1012A000DFF85CB04002ABF11C0B57D51648016863
:1012B00041F480710160FFF7B9FA82460EE01148EF
:1012C000626C001F016821F0030111430160E6E731
:1012D000FFF7ACFAA0EB0A0064283DD80A48006882
:1012E000C005F5D57DBBDFF81CA0B4F8B0200AF12D
:1012F000200ADAF8001002F4407001F4407105E0B1
:101300002C4402585044025800480258814211D0DF
:10131000DAF80010DAF8002021F4407142F480324B
:10132000CAF80020DAF8002022F48032CAF800203F
:10133000CAF80010D4F8B000B0F5807F21D1FFF7D3
:1013400075FA019019E008E0FFF770FA0199411A67
:1013500041F28830814210D903252E462078DFF8EB
:1013600044A4C0073DD0A06F182838D026DC80B335
:10137000082829D0102825D12CE0DAF800008007B1
:10138000E2D5D4F8B010C1F30120032858460DD09F
:10139000016821F47C510160B4F8B020DAF8001043
:1013A000C2F30B021143CAF80010D7E7FE4A0368E4
:1013B00002EA111223F47C511143ECE720280ED0ED
:1013C00028280CD001250BE00121201D01F04CFB49
:1013D00004E004E00098012101F0D6FB05465DB170
:1013E0002E46207880071ED5606F062819D2DFE8C8
:1013F00000F0160C11161616A26FDAF8001021F084
:1014000038011143CAF80010EBE70121201D01F05B
:101410002BFB03E00098012101F0B6FB054675B1F6
:1014200000E001252E46207840071FD5D4F8900013
:10143000062819D2DFE800F0160C11161616626F96
:10144000DAF8001021F007011143CAF80010EAE7AA
:101450000121201D01F008FB03E00098012101F0AB
:1014600093FB05469DB100E001252E4620788006BD
:101470002BD5D4F88C00B0F1405F24D011DC10B330
:10148000B0F1805F15D0B0F1005F10D116E0D4F854
:101490009020D9F8001021F007011143C9F800107D
:1014A000E4E7B0F1804F0ED0B0F1A04F0BD0012592
:1014B0000AE00021201D01F0D7FA03E00098022184
:1014C00001F062FB05468DB12E46207840062BD5F3
:1014D000D4F89800B0F5406F24D011DC10B3B0F50B
:1014E000806F15D0B0F5006F10D116E0D4F88C20C5
:1014F000DAF8001021F0E0411143CAF80010E4E7E7
:10150000B0F5805F0ED0B0F5A05F0BD001250AE0EA
:101510000021201D01F0A8FA03E00098022101F04B
:1015200033FB05468DB12E46207800062BD5D4F826
:101530009C00B0F5C04F24D011DC10B3B0F5005FB3
:1015400015D0B0F5804F10D116E0D4F89820D9F816
:10155000001021F4E0511143C9F80010E4E7B0F5A0
:10156000004F0ED0B0F5204F0BD001250AE000212E
:10157000201D01F079FA03E00098022101F004FB3C
:1015800005464DB12E46207800071ED5D4F88000C0
:10159000B0F5805F0AD00FE0D4F89C20D9F8001095
:1015A00021F460411143C9F80010ECE700980221D2
:1015B00001F0EAFA00B10126D4F88020DAF8001030
:1015C00021F440511143CAF800102078C00613D509
:1015D000D4F89400B0F5807F05D10098022101F085
:1015E000D3FA00B10126D4F89420D9F8001021F4E0
:1015F00040711143C9F800102068000316D5D4F8D3
:10160000A00038B1B0F5803F09D0B0F5003F0BD055
:1016100001250AE00021201D01F026FA03E00098D0
:10162000022101F0B1FA054685B12E46206840033B
:1016300022D5D4F88400B0F5801F11D0B0F5001F7A
:1016400013D0B0F5401F15D0012514E0D4F8A02028
:10165000D9F8001021F440311143C9F80010E5E732
:10166000386840F40030386004E00098012101F04F
:101670008BFA054655B12E462068C0031CD5E06C98
:1016800070B1B0F5803F10D0012514E0D4F884206B
:10169000DAF8001021F440111143CAF80010EBE70A
:1016A000386840F40030386004E00221201D01F069
:1016B000DBF90546CDB12E462068800005D500989F
:1016C000022101F061FA00B10126206880031BD5D8
:1016D000E06FB8B1B0F5807F10D0B0F5007F11D0C9
:1016E000B0F5407F0ED001250DE02E48E26C0838A1
:1016F000016821F4803111430160DDE7386840F46E
:1017000000303860F5B32E462068C00207D5226F3E
:10171000D8F8001021F000411143C8F800102068EB
:10172000C00008D5D4F8B420DBF8001021F48041C3
:101730001143CBF800102068800207D5A26ED8F8BC
:10174000001021F080711143C8F80010206840009B
:101750000CD5DBF8001021F40041CBF80010DBF8C9
:101760000010D4F8B8201143CBF8001020680028EE
:1017700007DA0C48226D0838016821F04051114306
:10178000016000E014E02068000208D5D4F8882049
:10179000DAF8001021F440011143CAF8001086B1B4
:1017A000012003E054440258CFFFFF00BDE8FC9F36
:1017B000E26FDAF8001021F440711143CAF800100A
:1017C000A2E70020EDE700002DE9F05F04000F46DE
:1017D0007ED0DFF83882D8F8000000F00F00B84261
:1017E0000CD2D8F8001021F00F013943C8F80010CE
:1017F000D8F8000000F00F00B84269D12078844D7D
:1018000040070AD52069296801F07001884204D98F
:10181000296821F070010143296020787C4E361D33
:1018200000070AD56069316801F07001884204D967
:10183000316821F07001014331602078C0060AD57B
:10184000A069316801F4E061884204D9316821F46B
:10185000E061014331602078DFF8B4B180060BF11C
:10186000080B0CD5E1695846DBF8002002F0700245
:10187000914204D9026822F070020A430260207883
:1018800080070AD5E068296801F00F01884204D971
:10189000296821F00F01014329602078C0073ED05C
:1018A0005B49A2682868183920F4706010432860EA
:1018B0006068022818D0032819D00968012819D0B7
:1018C000490700294ADADFF848A1AAF1080A00E02E
:1018D00044E0DAF8002022F007020243CAF80020B0
:1018E000FEF7A4FF814612E009688903E9E7096869
:1018F0008901E6E7C905E4E7FEF798FFA0EB0901D7
:1019000041F28830814202D90320BDE8F09F61682E
:10191000DAF8000000F03800B0EBC10FECD120780D
:1019200080070AD5E068296801F00F01884204D2D7
:10193000296821F00F0101432960D8F800104046C2
:1019400001F00F01B9420BD9016821F00F013943B1
:101950000160006800F00F00B84201D00120D4E718
:10196000207840070AD52069296801F07001884273
:1019700004D2296821F07001014329602078000712
:101980000AD56069316801F07001884204D231687B
:1019900021F07001014331602078C0060AD5A069AA
:1019A000316801F4E061884204D2316821F4E061D9
:1019B00001433160207880060CD5E1695846DBF898
:1019C000002002F07002914204D2026822F07002FC
:1019D0000A43026000F06CF80E492A682B68C2F3D3
:1019E000032203F00F038A5CC95C02F01F0201F0BE
:1019F0001F01D040084A20FA01F111600749086030
:101A000007480068BDE8F05FFEF74CBF00200052B9
:101A100018440258163B0008100000240C00002453
:101A20000400002430B500F043F80B4A0B490C4B7E
:101A300015681468C5F3032204F00F048A5C095D7D
:101A400002F01F0201F01F01D040064A20FA01F106
:101A500019601060084630BD18440258163B000853
:101A6000100000240C00002400B5FFF7DBFF05493F
:101A70000968054AC1F30211515C01F01F01C84019
:101A800000BD00001C440258163B000800B5FFF7DB
:101A9000C9FF05490968054AC1F30221515C01F0FB
:101AA0001F01C84000BD00001C440258163B00083E
:101AB000454970B545480968434B103B11F0380261
:101AC00008D00111082A03D0102A0BD0182A0BD0F5
:101AD000084670BD19688906FBD51968C1F3C101B4
:101AE000C84070BD3A4870BD3749374D18310C1D9C
:101AF00024350A68096826682D6802F0030406F098
:101B00000102C1F30511C5F3CC0515FB02F200EE8D
:101B1000102AB8EE400AE9B32F4ADFED2E0AB7EEDD
:101B2000001A6CB1DFED2D1A012C01D0022C43D02C
:101B300002EE101A1068F8EE422A81EEA22A1EE088
:101B40001C68A40611D51B6801EE901A1168C3F336
:101B5000C103F8EE612AD84001EE900AC1F30800F3
:101B6000F8EE611A81EEA22A0BE001EE901ADFED89
:101B70001C2A00BFF8EE611A106882EEA12AC0F399
:101B8000080001EE900AF8EE611A40EE201A31EEDC
:101B9000810A00E015E022EE000A1068C0F346203A
:101BA000401C00EE900AF8EE600A80EE201ABCEEAF
:101BB000C10A10EE100A70BD01EE901ADFED092A7D
:101BC000D8E7002070BD0000104402580090D003F8
:101BD00040787D0100000039304402580024744AE6
:101BE0000024744C20BCBE4B2DE9F05F04007CD077
:101BF000FF4F2078FE4D1837DFF8F493103DC007F3
:101C000048D0D9F80000396800F03800102815D005
:101C1000182803D101F0030002280FD06068B0F546
:101C2000803F12D010B1B0F5A02F18D0286820F452
:101C300080302860286820F4802009E0286880032C
:101C400028D560680028D2D024E0286840F480308D
:101C50002860606888B1FEF7E9FD064609E028685B
:101C600040F480202860F0E7FEF7E0FD801B642848
:101C70007ED828688003F7D50CE0FEF7D7FD06462E
:101C800005E000BFFEF7D2FD801B6428F0D828686D
:101C90008003F7D4207841F20308D54E0C3E80072C
:101CA00053D5D9F80000396810F038000ED0182844
:101CB00001D188070AD0E068A8B3296821F019018A
:101CC00001432960FEF7B2FD82461BE02868400709
:101CD00002D5E06800288AD0FEF7A2FD40451BD857
:101CE0002069402812D0316800E0CCE021F47C313A
:101CF00041EA0030306028E0FEF798FDA0EB0A00D2
:101D00000228B5D828684007F6D5E5E7306820F402
:101D10007C3040F40030EDE7207C316821F0FE415A
:101D200041EA0060E6E7FFE7286820F0010028604C
:101D3000FEF77CFD824605E0FEF778FDA0EB0A0089
:101D4000022895D828684007F6D42078C0065FD5C9
:101D5000D9F80000DFF898B2396800F03800ABF12C
:101D6000040B082812D0182805D101F0030000E068
:101D7000EAE001280AD0E0690028286838D040F05D
:101D800080002860FEF752FD824623E02868C005E7
:101D900023D5E069802876D11FE0206A202821D051
:101DA000316821F0F84141EA8060306030E000BFE6
:101DB00094F82010DBF8002022F07C5242EA016106
:101DC000CBF8001024E000BFFEF730FDA0EB0A00C6
:101DD000022896D82868C005F6D5FEF721FD4045B3
:101DE000E6D8DAE7306820F0F84040F08040DCE7E1
:101DF00020F080002860FEF719FD064605E000BFD0
:101E0000FEF714FD801B02289BD82868C005F7D474
:101E10002078000729D5764861696430002980461A
:101E2000016811D041F001010160FEF7FFFC064698
:101E300005E000BFFEF7FAFC801B0228C9D8D8F8DD
:101E400000008007F6D510E021F001010160FEF7E7
:101E5000EDFC064605E000BFFEF7E8FC801B02280B
:101E600072D8D8F800008007F6D42078800623D5F1
:101E7000A0690028286810D040F480502860FEF740
:101E8000D5FC064605E02CE1FEF7D0FC801B0228BD
:101E90005AD828688004F7D50EE020F480502860D6
:101EA000FEF7C4FC064604E0FEF7C0FC801B0228D7
:101EB0004AD828688004F7D4207840074FD5DFF847
:101EC0003481D8F8001041F48071C8F80010FEF792
:101ED000ADFC064605E000BFFEF7A8FC801B6428A9
:101EE00032D8D8F80000C005F6D5414EA06860365B
:101EF00001280AD008B1052813D0306820F001006D
:101F00003060306820F0040002E0306840F00100EA
:101F10003060A06841F2883A90B1FEF787FC8046B5
:101F20000AE0306840F004003060EEE7FEF77EFC27
:101F3000A0EB0801514507D830688007F6D50EE0C0
:101F4000FEF774FC804607E084E000BFFEF76EFCFD
:101F5000A0EB080151457DD830688007F6D4606A4F
:101F6000F0B3DFF88C80D9F8001008F12008C1F335
:101F7000C20103296FD00228286820F080702860F1
:101F800003D0FEF753FC044680E0FEF74FFC064604
:101F900005E000BFFEF74AFC801B022873D82868C2
:101FA0008001F7D4E26A40F2F331386854F8283FF0
:101FB000884340EA021018433860217B4FF4FE0C3E
:101FC00022894FF0FE47208A4902267D521E401E7C
:101FD000A1F5007189B20CEA0040C2F3080200E0EA
:101FE00081E01143761E0143014807EA066203E0DF
:101FF00010440258004802581C3011433B4AC8F8AC
:102000000010016821F00101016011684FF6F876B7
:10201000236AB14341EAC30111600168A26921F05A
:102020000C01114301600168E26921F002011143D2
:102030000160016841F480310160016841F40031C0
:102040000160016841F480210160016841F00101F3
:10205000016001E017E01DE0286840F08070286012
:10206000FEF7E4FB044604E0FEF7E0FB001B022859
:1020700009D828688001F7D535E000BFFEF7D6FB08
:10208000001B022802D90320BDE8F09F28688001C8
:10209000F4D428E039680128D8F8000021D0A26AD9
:1020A00001F0030393421CD1E26AC1F305118A4295
:1020B00017D1216BC0F30802491E8A4211D1616B0E
:1020C000C0F34622491E91420BD1A16BC0F30642D8
:1020D000491E914205D1E16BC0F30660491E814261
:1020E00001D00120D0E70020CEE7000034440258A0
:1020F0000248016821F0010101607047003C00586E
:1021000003490A6822F0020202430A607047000095
:10211000003C0058401EB0F1807F10B501D3012073
:1021200010BD4FF0E02460610F21601701F094FCB6
:102130000020A0610721216110BD0000F0B590F8DA
:102140003C20012A38D01D4E012480F83C40022258
:1021500080F83D2002681A4D5368B242D2F808C098
:1021600001D0AA4203D14F6823F470033B430F68A8
:1021700023F070031F4357600268B24210D0B2F1DF
:10218000804F0DD00F4B9A420AD00F4B9A4207D086
:102190000E4B9A4204D0AA4202D00D4B9A4204D16F
:1021A00089682CF0800319439160002180F83D403C
:1021B00080F83C100846F0BD0220F0BD0000014050
:1021C000000401400004004000080040000C0040F2
:1021D0000018004010B5040003D094F83D0010B181
:1021E00007E0012010BD002084F83C00204600F0EC
:1021F00023F8022084F83D002068211D00F01CFE19
:10220000012084F8480084F83E0084F83F0084F8F8
:10221000400084F8410084F8420084F8430084F8C8
:10222000440084F8450084F8460084F8470084F8A8
:102230003D00002010BD000008B500680649884236
:1022400008D10648016841F004010160006800F00F
:102250000400009008BD000000080040E844025857
:1022600070B5044690F83C00012814D0394B012584
:1022700084F83C50022084F83D00226890681840A1
:1022800020F47F4090600868702828D010DC10F09F
:102290000F0F03D04BE04FF0020070BD4FEA201249
:1022A000072A44D2DFE802F05151515149323A0035
:1022B000B0F1101F49D009DCB0F5805F37D0B0F520
:1022C000005F17D0B0F5801F31D13EE0A0F580113E
:1022D00020393AD0102938D0202928D135E04A6851
:1022E0002068D1E9021300F009FE2068816841F0FE
:1022F000770109E04A682068D1E9021300F0FEFD89
:102300002068816841F48041816010E0CA684968B2
:10231000206800F08FFF2068502106E0CA684968F5
:10232000206800F098FF2068602100F0F1FD002097
:1023300084F83D5084F83C0070BDCA684968206844
:1023400000F078FF20684021EFE722680146104640
:10235000EBE7000088FFCEFF10B586B004461421DD
:102360006846FEF780F80D492068884214D10C4871
:10237000016841F00201016000680021402200F084
:102380000200059002200092CDE90101CDE9031081
:1023900004486946FEF726F906B010BD0008004063
:1023A000E04402580004025870B5044690F83C001E
:1023B0000D4601280BD0012084F83C000C2A45D0A2
:1023C00007DC5AB1042A1BD0082A78D12CE002205D
:1023D00070BD102A4ED0142A71D15DE0206800F043
:1023E000A1FD2068816941F008018161206881694F
:1023F00021F00401816120682A698169114311E09B
:10240000206800F0E3FD2068816941F4006181618A
:102410002068816921F4806181612068296982696D
:1024200042EA012181614AE0206800F01BFE206839
:10243000C16941F00801C1612068C16921F004014E
:10244000C16120682A69C169114311E0206800F068
:102450004FFE2068C16941F40061C1612068C16913
:1024600021F48061C16120682969C26942EA0121C1
:10247000C16124E0206800F071FE2068416D41F0E8
:10248000080141652068416D21F004014165206823
:102490002A69416D114311E0206800F095FE206823
:1024A000416D41F4006141652068416D21F4806116
:1024B000416520682969426D42EA01214165002099
:1024C00084F83C0070BD10B5040003D094F83D00C2
:1024D00010B107E0012010BD002084F83C00204628
:1024E00000F022F8022084F83D002068211D00F051
:1024F000A3FC012084F8480084F83E0084F83F00E3
:1025000084F8400084F8410084F8420084F84300D5
:1025100084F8440084F8450084F8460084F84700B5
:1025200084F83D00002010BD704730B590F8801051
:10253000012918D0012280F880202421C0F88410BD
:102540000022202450F8641B0B680D6823F0005310
:1025500025F001050D60026050F8641C0B600462F8
:102560000277104630BD022030BD70B5044690F8A9
:10257000800001281DD0012284F880202420C4F886
:10258000840020680568026822F001020260206869
:10259000826822F060620A438260204600F06EFE8C
:1025A0002268202100201560C4F8841084F880007F
:1025B00070BD022070BD70B5044690F880000128FF
:1025C0001DD0012284F880202420C4F884002068D3
:1025D0000568026822F0010202602068826822F029
:1025E00060420A438260204600F048FE22682021B3
:1025F00000201560C4F8841084F8800070BD0220AB
:1026000070BD10B5040003D0D4F8840010B107E009
:10261000012010BD002084F88000204600F026F83C
:102620002420C4F884002068016821F001010160C1
:10263000204600F0D9FE0128EBD0A06A10B1204658
:1026400000F03EFE2068416821F49041416020681E
:10265000816821F02A0181602068016841F0010150
:1026600001602046BDE8104000F08EBE10B5B6B047
:10267000044614212FA8FDF7F6FEBC216846FDF79D
:10268000F2FE18492068884229D100241E940120B6
:1026900000906846FEF72EFC08B1FDF793FF124844
:1026A000016841F010010160006800F010003490F2
:1026B0000D481038016841F00201016000682FAB3D
:1026C000022100F0020034904FF44040042283E8DD
:1026D000130006482FA9CDE93242FDF783FF36B03B
:1026E00010BD000000100140F044025800040258E0
:1026F000FEE7000010B50C4C002210212046FEF72A
:1027000089F8022001F0B9F9012220461021FEF7D4
:1027100081F8042001F0B1F900222046BDE8104004
:102720001021FEF777B8000000000258134800B5EA
:1027300087B0016841F001010160006801210322B6
:10274000039200F0010005903E20CDE900010C4805
:102750006946FDF747FF00F033F800F015F8012354
:10276000084A0321184601F069F8064A02210123AC
:102770000846121F01F062F807B000BDE04402589D
:10278000000002581C00002410B50C4C002220212F
:102790002046FEF73FF8012001F06FF901222046A4
:1027A0002021FEF737F81E2001F067F900222046AD
:1027B000BDE810402021FEF72DB8000000000258AF
:1027C00010B50E4C012202212046FEF723F800220C
:1027D00020460421FEF71EF8002220460821FEF7BD
:1027E00019F8002220461021FEF714F80022204696
:1027F000BDE810402021FEF70DB80000000002588F
:102800000148FEF775B80000200000240148FEF7DB
:102810006FB800005800002430B587B01421684616
:10282000FDF721FE2148016841F0100101600168B7
:1028300001F010010591016841F08001016001681B
:1028400001F080010591016841F002010160016819
:1028500001F002010591016841F004010160006886
:102860000025134C694600F00400059008208DE80F
:1028700031001048FDF7B6FE4FF4805069468DE8F0
:1028800031000D48FDF7AEFE00220E210920FEF7B3
:102890007FF90920FEF76EF900220E212820FEF7AD
:1028A00077F92820FEF766F907B030BDE0440258FA
:1028B0000000111100100258000802580D484FF492
:1028C000606210B50A4C00214FF6FF73046043614B
:1028D000C0E90112016241628162C1620163FEF7D7
:1028E0006DF8002803D0BDE81040FDF76BBE10BDA9
:1028F00000240040200000240D484FF4606210B511
:102900000A4C00214FF6FF7304604361C0E90112D5
:10291000016241628162C1620163FEF74FF80028E3
:1029200003D0BDE81040FDF74DBE10BD0024005897
:102930005800002410B58EB000241C21009407A874
:10294000019402940394049405940694FDF78BFD7E
:102950001E484FF6FF71EF221B4BC0E90241046194
:102960008461C0E90032FFF735FC08B1FDF72AFEAB
:102970004FF48050009015486946FFF771FC08B18C
:10298000FDF720FE1148FFF79EFD08B1FDF71AFE86
:102990000E4804A904940694FFF7D0FB08B1FDF794
:1029A00011FE6020CDE907040848002207A9099418
:1029B0000B94FFF7F9FC08B1FDF704FE0348FFF79D
:1029C000CBFC0EB010BD00000008004090000024B9
:1029D0001848002110B5164C08224FF461230460FA
:1029E000C0E90131C160C0E904128161C1610162C5
:1029F00041628162FFF705FE08B1FDF7E3FD0D4876
:102A00000021FFF7D8FD08B1FDF7DCFD09480021E2
:102A1000FFF7ABFD08B1FDF7D5FD0648FFF785FDD3
:102A2000002803D0BDE81040FDF7CCBD10BD00006C
:102A300000100140DC000024FEE7FEE7704700B50F
:102A4000AFB0BC216846FDF70EFD4FF00040C10855
:102A5000149100906846FEF74DFA002801D072B636
:102A6000FEE72FB000BD00002DE9F047454D0446BC
:102A700089464FF0000A2868C04380070AD0414EBB
:102A8000283E306820F080603060FDF7CFFE0746BA
:102A9000B04608E00120BDE8F08700BFFDF7C6FEA4
:102AA000C01B022867D8D8F800000001F6D42068BF
:102AB00029684FF4FE0721F47C313E0241EA0030E0
:102AC0002860207AA389B4F804C040022D4D2D4916
:102AD0005B1E227CACF1010C1035091DA0F50070C5
:102AE00080B2521ECCF3080C07EA034340EA0C0004
:102AF000184306EA0262104328600868626920F001
:102B0000C000104308600A68A06922F02002024356
:102B10000A60281D0A6822F010020A6002684FF657
:102B2000F873E4699A4342EAC40202600868B9F1A2
:102B3000000F40F010020A6011D00868B9F1010FCF
:102B400011D040F400100860D8F80000444640F06E
:102B50008060C8F80000FDF769FE05460DE00868D2
:102B600040F40020EFE740F48010ECE7FDF75EFE54
:102B7000401B022801D903208DE720680001F5D50C
:102B8000504688E7284402582DE9F047454D044651
:102B900089464FF0000A2868C04380070AD0414E9A
:102BA000283E306820F080503060FDF73FFE074639
:102BB000B04608E00120BDE8F08700BFFDF736FE13
:102BC000C01B022867D8D8F800008000F6D42088FF
:102BD00029684FF4FE0721F07C713E0241EA005063
:102BE0002860207AA389B4F804C040022D4D2D49F5
:102BF0005B1E227CACF1010C1835091DA0F500709C
:102C000080B2521ECCF3080C07EA034340EA0C00E2
:102C1000184306EA0262104328600868626920F4DB
:102C20004060104308600A68A06922F40072024301
:102C30000A60281D0A6822F480720A6002684FF652
:102C4000F873E4699A4342EAC40202600868B9F181
:102C5000000F40F480720A6011D00868B9F1010FCA
:102C600011D040F080700860D8F80000444640F071
:102C70008050C8F80000FDF7D9FD05460DE0086852
:102C800040F48000EFE740F40000ECE7FDF7CEFDF4
:102C9000401B022801D903208DE720688000F5D56C
:102CA000504688E7284402587047FDF7C5BD00002C
:102CB000F0B59DB04C216846FDF7D5FB202113A847
:102CC000FDF7D1FB0220FDF795FF224800242249A1
:102CD000026842F44042026002680A6842F001025F
:102CE0000A60096801F001011B9101688904FCD5A3
:102CF00002201121009120260527CDE90860C2039A
:102D0000019280230793C0210E90CDE90A07CDE9F7
:102D10000C1008250F90CDE9105468461294FEF768
:102D200063FF08B172B6FEE740201A903F2103010D
:102D3000CDE916500322CDE9180313AB13A883E89D
:102D400016000421FEF740FD002801D072B6FEE710
:102D50001DB0F0BD184802582C0400582C48F0B59E
:102D60002C4A016841F470010160106800F00F0006
:102D7000072804D2106820F00F00C01D10602649FB
:102D80000020254C10340B68244D43F001030B60E8
:102D900020600B682B400B60136803F00F03072BB8
:102DA00004D9136823F00F03DB1D13601A4C1C4A6F
:102DB00018341C4B261D371D2060174C1A4D283423
:102DC0003060261D3860371D23603B1D35601C1D9B
:102DD0003A60251D2E1D1860331D22602860326068
:102DE00018600A680C4B114C22F4802260330A6090
:102DF000186020686FF30F00B0F1005F03D20C4938
:102E00000120C1F8080143F2D2000A490860F0BD70
:102E100088ED00E000200052004402587FEDF6EA01
:102E200080020101000202020000FF010010005CAC
:102E300000800051004000522DE9F047274B4FF031
:102E4000804A274D02689842264E274F274C09D0CA
:102E5000504507D0A84205D0B04203D0B84201D0B7
:102E6000A04205D1D1F804C022F070024CEA02025F
:102E7000DFF87CC0DFF87C809842DFF87C900FD0D0
:102E800050450DD0A8420BD0B04209D0B84207D06F
:102E9000A04205D0604503D0404501D0484503D14C
:102EA000CD6822F440722A434D6922F080022A4301
:102EB000026098428A68C2620A68826207D0A042B1
:102EC00005D0604503D0404501D0484501D109698E
:102ED000016301214161BDE8F0870000000001406D
:102EE0000004004000080040000C004000040140C5
:102EF00000400140004401400048014042EA0322F2
:102F000083680A4323F47F410A43826070470000CC
:102F1000034B82681A400A4342F007018160704700
:102F20008FFFCFFF2DE9F04F026ADFF88880DFF8CE
:102F3000889022F00102DFF884A0DFF884B0214FEE
:102F40000262DFF884C0066A4268836926F00206DE
:102F50000D68B8428C6803EA0C0323F0030344EACB
:102F6000060445EA030507D0404505D0484503D08F
:102F7000504501D0584505D1CB6824F008042343BF
:102F800023F00404B84207D0404505D0484503D09B
:102F9000504501D0584505D122F44076D1E905329B
:102FA00033431A4342608561496841630462BDE866
:102FB000F08F000000040140004001400044014047
:102FC00000480140000001408FFFFEFFF0B5026A9B
:102FD0001E4E1F4C22F01002DFF878E00262056AF4
:102FE0004368826925F02005D1F808C0A0420F6827
:102FF00002EA060222F4407245EA0C1542EA072270
:1030000001D0704506D1CE6825F0800545EA061549
:1030100025F04005A0420AD0704508D00E4CA042D1
:1030200005D00E4CA04202D00D4CA04207D1D1E9F0
:10303000054623F4406343EA840343EA860343607E
:103040008261496881630562F0BD0000FF8FFFFE69
:1030500000000140000401400040014000440140E4
:1030600000480140F0B5026A1C4D1D4E22F48072EA
:10307000A8420262026A4368C76922F40072D1F86A
:1030800008C00C6827F0730742EA0C2244EA0704E0
:1030900001D0B04206D1CF6822F4006242EA072292
:1030A00022F48062A8420AD0B04208D00D4DA84256
:1030B00005D00D4DA84202D00C4DA84207D1D1E950
:1030C000055623F4405343EA051343EA06134360CD
:1030D000C4614968C1630262F0BD000000000140A4
:1030E000000401400040014000440140004801400C
:1030F00070B5026A144B22F4805202629842036A4D
:103100004268C46923F400538E680D6824F4E644D1
:1031100043EA063344EA05240BD00C4DA84208D0FC
:103120000B4DA84205D00B4DA84202D00A4DA84233
:1031300004D14D6922F4804242EA85124260C461A2
:1031400049680164036270BD000001400004014051
:10315000004001400044014000480140F0B5026ACF
:1031600022F480320262134F056A4268446D25F4EE
:1031700000350E89B8420B6824F0700445EA064514
:1031800043EA04030BD00C4CA04208D00B4CA042E5
:1031900005D00B4CA04202D00A4CA04204D14C698D
:1031A00022F4803242EA0422426043654968816524
:1031B0000562F0BD000001400004014000400140F4
:1031C0000044014000480140F0B5026A22F4801238
:1031D0000262134F046A4268436D24F400140E899E
:1031E000B8420D6823F4E04344EA065443EA052359
:1031F0000BD00C4DA84208D00B4DA84205D00B4D6A
:10320000A84202D00A4DA84204D14D6922F40032EE
:1032100042EA8522426043654968C1650462F0BDA7
:103220000000014000040140004001400044014012
:103230000048014010B5036A046A23F00A0324F031
:103240000104046284690B4324F0F00141EA021195
:103250008161036210BD10B5036A23F0100303629D
:103260008369046A23F4704324F0A00443EA023221
:10327000826144EA0111016210BD000030B5416E67
:10328000B9B101680D4B03F108048A688968C2F37B
:103290004262490F5D5C615C2D01B5FBF1F1A0F864
:1032A0006A10995CA25C0901B1FBF2F1A0F8681008
:1032B00030BD0121A0F86A10F8E70000063B0008C5
:1032C00090F82810C90706D00168C36A4A6822F43A
:1032D00000321A434A6090F82810890706D5016821
:1032E000036B4A6822F480321A434A6090F828102F
:1032F000490706D50168436B4A6822F480221A43C5
:103300004A6090F82810090706D50168836B4A685F
:1033100022F400421A434A6090F82810C90606D5E4
:103320000168C36B8A6822F480521A438A6090F85D
:103330002810890606D50168036C8A6822F40052B9
:103340001A438A6090F82810490611D50168436C29
:103350004A6822F480121A434A60416CB1F5801F1A
:1033600006D10168836C4A6822F4C0021A434A609D
:1033700090F82810090606D50168C26C486820F448
:103380000020104348607047F8B500260446C0F896
:103390008C60FDF74BFA054620686FF07E470068A9
:1033A000000708D500222B464FF400112046009755
:1033B00000F0F0F960B92068006840070AD50022E3
:1033C0002B464FF480012046009700F0E3F908B146
:1033D0000320F8BD2020C4F88400C4F88800E66605
:1033E000002084F88060F8BD2DE9F0430446806831
:1033F000D84E87B0D84B2168D4E90427D4F81CC034
:1034000010430A68002547EA0C073843324002435C
:103410000A602068E268416821F44051114341602C
:103420002268A1699A4201D0206A01439668DFF8B8
:103430002CC3CB4FCB4806EA0C060E43966021689E
:10344000666ACA6A22F00F023243CA622268BA422E
:103450000ED1006800F03800182873D047DCB8B3EC
:10346000082879D010286FD178E028287ED17BE019
:10347000BD498A4209D1006800F00700062875D2CC
:10348000DFE800F0546A6C6E7072B8498A4209D164
:10349000006800F00700062868D2DFE800F0475D0A
:1034A0005F616365B2498A4209D1006800F0070094
:1034B00006285BD2DFE800F03A5052545658AD4926
:1034C0008A420BD1006800F0070006284ED200E0C7
:1034D00010E0DFE800F02B4143454749A6498A4206
:1034E0000AD1006800F03800182839D0B7DD20284C
:1034F000BBD13CE001203AE0A0498A4209D10068F2
:1035000000F00700062831D2DFE800F01026282A54
:103510002C2E9B498A420BD1006800F00700062838
:1035200024D2DFE800F003191B1D1F2100201EE03C
:103530009A421BD18B48001D006800F00700062846
:1035400014D202E00CE007E010E0DFE800F0030531
:1035500007090B0D02200AE0042008E0082006E01D
:10356000102004E0202002E0402000E08020854977
:10357000DFF814829A42854A4FF400434FEA21173C
:103580004FF000064DD110281AD006DC022809D0D1
:1035900004280BD008287CD10DE020283DD04028FD
:1035A00077D13CE0FDF750FB014610E06846FDF79F
:1035B0005DFB01990BE003A8FDF7FAFB049906E017
:1035C0001068800604D51068C0F3C100C140B9B3CB
:1035D000606A676838F8102007EB4703B1FBF2F028
:1035E000834256D8B0EB073F53D80023084619460C
:1035F000FCF7C2FE02467808130E120243EA0121CC
:1036000010183A4671410023FCF7B6FE604AA0F557
:10361000407191423DD821684CE03946D8E71946BF
:10362000D6E7D4F81CC04FF6EF799C4552D1082854
:103630001AD006DC60B101280DD0042829D10EE093
:1036400039E0102815D0202840D040287CD13FE018
:10365000FEF70AFA01E0FEF719FA014610E06846A3
:10366000FDF704FB01990BE003A8FDF7A1FB04990A
:1036700006E01068800604D51068C0F3C100C140A0
:10368000C9B1636A606838F81330B1FBF3F14900DF
:1036900000E059E001EB5001B1FBF0F080B2A0F185
:1036A0001001494550D84FF6F0732168C0F342022B
:1036B00018401043C8600120A4F86A00A4F868000C
:1036C00028462667666707B0BDE8F0833946D8E725
:1036D0001946D6E7082819D005DC58B101280CD0C6
:1036E000042831D10DE0102815D020282ED04028F4
:1036F0002AD12DE0FEF7B8F901E0FEF7C7F901463F
:1037000010E06846FDF7B2FA01990BE003A8FDF757
:103710004FFB049906E01068800605D51068C0F3D9
:10372000C100C1400029C6D0636A606838F8133010
:10373000B1FBF3F101EB5001B1FBF0F080B2A0F16D
:10374000100149457FF667AF0125B4E73946EBE73D
:103750001946E9E7F369FFCF000C0058FFF4FF11A9
:10376000001001405444025800440040004800400A
:10377000004C004000500040001401400078004020
:10378000007C00400090D003EE3A0008004402584C
:10379000FFFC0F002DE9F0479A4617460E460446F7
:1037A000089D4FF000094FF0200839E0681C37D021
:1037B000FDF73CF8A0EB0A00A84222D80DB3206820
:1037C000016849072CD5C069C043000528D4236887
:1037D0004FF40061196221680B6823F4D0730B6009
:1037E00021688B6823F001038B60C4F88480C4F8DF
:1037F0008880C4F88C8000BF032084F88090BDE8E6
:10380000F08721680B6823F4D0730B6021688B6804
:1038100023F001038B60C4F88480C4F88880EBE750
:103820002068C06936EA000004D00020B842BDD04C
:103830000020E4E70120F9E7FEE700002DE9F0476A
:103840002E4E00259A4691468846044602212A4675
:103850003046FCF7DFFF002230460421FCF7DAFF98
:10386000200601D5012200E0002230460821FCF7A5
:10387000D1FF012230460421FCF7CCFF60066D1C0D
:10388000040EEDB2082DE6D3002230460421FCF7E9
:10389000C1FF0024374622E019F804600025002209
:1038A00038460421FCF7B6FF300601D5012200E0BE
:1038B000002238460821FCF7ADFF012238460421DA
:1038C000FCF7A8FF70066D1C060EEDB2082DE6D3BE
:1038D000002238460421FCF79DFF641CE4B24445F5
:1038E000DAD3BAF1010F01D1FEF704FF3846BDE883
:1038F000F04701220221FCF78DBF000000000258B2
:1039000038B510240A460023009344EA12218DF8AA
:1039100002208DF8011040B101280AD0022816D0EB
:10392000032813D10C4A012306E00B4A0123D21EBF
:1039300002E0094A0123921E01210020FFF77EFFC9
:1039400001236A4603210620FFF778FF38BD024AAB
:103950000123521EF0E700001700002400EE101AA9
:103960009FED181B194AB8EE400B10B520EE010B65
:10397000BCEEC00B10EE101A51704FEA11231370F9
:1039800098B1012815D0022817D0032819D1002397
:10399000D21E01210020FFF751FF00230B4A022114
:1039A000BDE810400520FFF749BF084A0023921FD9
:1039B000EFE7064A0023521FEBE7044A0023121FD9
:1039C000E7E710BD1CD0D2156CC146401A00002498
:1039D00000EE101A9FED1D1B38B5B8EE400B00210C
:1039E000009120EE010BBCEEC00B10EE101A8DF80A
:1039F00003104FEA11228DF802204FEA11438DF88F
:103A000001304FEA11648DF8004040B101280AD01E
:103A1000022816D0032813D10E4A012306E00D4ACE
:103A20000123D21E02E00B4A0123921E0121002035
:103A3000FFF704FF04216A4601230846FFF7FEFE54
:103A400038BD044A0123521EF0E7000095D626E84F
:103A50000B2E214017000024090700284FEA1161AE
:103A600004DB00F1E02080F80014704700F00F0044
:103A700000F1E02080F8141D704700EB400080004A
:103A8000401EFDD270470000FCF7DEFEFFF710F984
:103A9000FEF7D5FFFEF7C0FEFEF79AFFFEF70EFF1A
:103AA000FEF72AFFFEF746FFFEF740FE0A4A002314
:103AB0000A490B48FCF751FD40F2FF3003461A4615
:103AC0001146FCF734FDB4224FF487735A210020CD
:103AD000FCF759FDFEE70000005A6202C00E160214
:103AE00080C3C9014FF04070E1EE100A7047010039
:103AF00002000400060008000A000C00100020006C
:103B000040008000000101010103070100000804DA
:103B10000204080101010000000001020304010287
:103B20000304060708090000483B000800000024C1
:103B300020000000D4020008683B00082000002498
:103B4000B0110200F00200080100000010000000A7
:103B5000000000000090D0030090D00310204080AF
:083B600020000000D00000006D
:040000050800029954
:00000001FF
