:020000040800F2
:10000000F8170024B102000803420008E13C000890
:100010000142000841040008F954000800000000F3
:10002000000000000000000000000000C9440008BB
:10003000B10500080000000005420008CB4400089C
:10004000CB020008CB020008CB020008CB0200085C
:10005000CB020008CB020008CB020008CB0200084C
:10006000CB020008C9050008CB020008A50500085E
:10007000CB020008CB020008CB020008CB0200082C
:10008000CB020008CB020008CB020008CB0200081C
:10009000CB020008CB020008CB020008CB0200080C
:1000A000CB020008CB020008CB020008CB020008FC
:1000B000CB020008CB020008CB020008CB020008EC
:1000C000CB020008CB020008CB020008CB020008DC
:1000D000CB020008CB020008CB020008CB020008CC
:1000E000B3050008CB02000800000000CB020008A6
:1000F000CB020008CB020008CB020008CB020008AC
:10010000CB020008CB020008CB020008CB0200089B
:100110007D460008CB020008CB020008CB02000895
:10012000CB020008CB020008CB020008CB0200087B
:10013000CB020008CB020008CB020008CB0200086B
:1001400000000000000000000000000000000000AF
:10015000CB020008CB020008CB020008CB0200084B
:10016000CB020008CB020008CB020008CB0200083B
:10017000CB020008CB020008CB020008CB0200082B
:10018000CB020008CB020008CB020008CB0200081B
:10019000CB020008CB020008CB020008CB0200080B
:1001A000CB020008CB020008CB020008CB020008FB
:1001B000CB020008CB020008CB020008CB020008EB
:1001C000CB020008CB020008CB020008CB020008DB
:1001D000CB020008CB020008CB020008CB020008CB
:1001E000CB020008CB020008CB020008CB020008BB
:1001F000CB020008CB020008CB020008CB020008AB
:10020000CB020008CB020008CB020008CB0200089A
:10021000CB020008CB020008CB020008CB0200088A
:10022000CB020008CB020008CB020008000000004F
:10023000CB020008CB02000800000000CB0200083F
:10024000CB020008CB020008CB020008CB0200085A
:10025000CB020008CB020008CB020008CB0200084A
:10026000CB020008CB020008CB020008CB0200083A
:10027000CB020008CB020008CB02000800000000FF
:10028000CB020008CB020008CB02000800000000EF
:1002900000000000CB020008DFF810D000F07CF86E
:1002A00000480047A9570008AFF30080F817002462
:1002B0000648804706480047FEE7FEE7FEE7FEE700
:1002C000FEE7FEE7FEE7FEE7FEE7FEE789450008FA
:1002D000990200082DE9F05F0546002092469B46F2
:1002E00088460646814640241BE02846414647464C
:1002F000224600F041F853465A46C01A914110D3A5
:1003000011461846224600F028F82D1A67EB01081E
:100310004F4622460120002100F01FF817EB00098C
:100320004E41201EA4F10104DFDC484631462A4636
:100330004346BDE8F09FD2B201E000F8012B491E10
:10034000FBD270470022F6E710B513460A46044672
:100350001946FFF7F0FF204610BD202A04DB203AA3
:1003600000FA02F1002070479140C2F1200320FA08
:1003700003F3194390407047202A04DB203A21FA06
:1003800002F00021704721FA02F3D040C2F12002AE
:100390009140084319467047064C074D06E0E06857
:1003A00040F0010394E8070098471034AC42F6D3BC
:1003B000FFF776FF045900082459000870B50E466F
:1003C0001C4681B21546002005F0FAF8B1B20120B2
:1003D00005F0F6F8A9B2022005F0F2F8A1B2BDE8E6
:1003E0007040032005F0ECB870B50C461D4616466B
:1003F0000146002005F04CF90120214605F048F99E
:100400000220314605F044F92946BDE8704003203A
:1004100005F03EB970B50E461C4681B21546002067
:1004200005F0FCF8B1B2012005F0F8F8A9B20220FD
:1004300005F0F4F8A1B2BDE87040032005F0EEB875
:10044000FEE710B5044603F015FDE1094020C1F3B5
:10045000440140EA410003F0D3FC03F061FDE0B247
:1004600003F0CEFC03F05CFDBDE8104003F02CBDB2
:10047000044B4FF4905202EB00220A43195490B2FD
:10048000FFF7DFBF0F000024C10406D50621044A90
:1004900001EB102101F007015054FFF7D2BF00001B
:1004A0000F0000240D4A01280AD002280CD003288E
:1004B0000ED0042810D1505C40F4B850FFF7E4BFD0
:1004C000505C40F4A050F9E7505C40F4A850F5E7C8
:1004D000505C40F4B050F1E770470000BC58000891
:1004E00070B5002403F0C6FC4F2003F089FC03F034
:1004F00017FD002003F04AFC054603F0E5FC443DEF
:100500001C2D2CD2DFE805F02B0E10122B2B2B2BE1
:100510001416181A2B2B2B2B1C1E20222B2B2B2BAB
:100520002426282A01241AE0022418E0032416E0D5
:10053000042414E0052412E0062410E007240EE051
:1005400008240CE009240AE00A2408E00B2406E051
:100550000C2404E00D2402E00E2400E00F242046C9
:1005600070BD10B5002400212046FFF781FF641CF8
:10057000E4B2062CF7D340F20340FFF785FF0121D8
:100580000846FFF78FFF02210846FFF78BFF032184
:100590000846FFF787FF0421BDE810400846FFF733
:1005A00081BF0000014800F019BB0000EC060024E8
:1005B00070474FF4805010B501F026F8BDE81040A8
:1005C0004FF4005001F020B8082001F01DB872B6B9
:1005D000FEE700002DE9F84F044601F02FF90090E6
:1005E0005CB194F8350002280AD0802060650020B4
:1005F00084F834000120BDE8F88F0120BDE8F88FB1
:10060000B6492068B64EB74F8842DFF8DC82DFF883
:10061000DC92DFF8DCA2DFF8DCB226D0B04224D0D6
:10062000B84222D0404520D048451ED050451CD06D
:1006300058451AD0B04A904217D0B04A904214D0D0
:10064000AF4A904211D0AF4A90420ED0AE4A90428B
:100650000BD0AE4A904208D0AD4A904205D0AD4A88
:10066000904202D0AC4A90420AD1026822F01E02A7
:1006700002602068426922F080024261256804E03D
:10068000026822F00E0202602568206888423ED08F
:10069000B0423CD0B8423AD0404538D0484536D038
:1006A000504534D0584532D0934A90422FD0934A87
:1006B00090422CD0924A904229D0924A904226D021
:1006C000914A904223D0914A904220D0904A904241
:1006D0001DD0904A90421AD08F4A904217D08F4A2C
:1006E000904214D08E4A904211D08E4A90420ED041
:1006F0008D4A90420BD08D4A904208D08C4A90424D
:1007000005D08C4A904202D08B4A904204D1206E90
:10071000026822F48072026070492068884226D004
:10072000B04224D0B84222D0404520D048451ED007
:1007300050451CD058451AD06F49884217D06F4990
:10074000884214D06E49884211D06E4988420ED03A
:100750006D4988420BD06D49884208D06C49884267
:1007600005D06C49884202D06B49884204D10168A7
:1007700021F00101016003E0016821F00101016045
:10078000286810F0010F14D001F058F80099401AB1
:1007900005280AD920206065032084F83500002050
:1007A00084F834000120BDE8F88F286810F0010FAC
:1007B000EAD14A4A01212068904226D0B04224D092
:1007C000B84222D0404520D048451ED050451CD0CC
:1007D00058451AD0484B984217D0484B984214D0ED
:1007E000474B984211D0474B98420ED0464B984207
:1007F0000BD0464B984208D0454B984205D0454B0C
:10080000984202D0444B98420AD1A06D4FF03F0C61
:1008100094F85C3003F01F030CFA03F3836007E0E5
:10082000A06D94F85C3003F01F0301FA03F34360FA
:10083000206890423ED0B0423CD0B8423AD04045C9
:1008400038D0484536D0504534D0584532D02A4A61
:1008500090422FD0294A90422CD0294A904229D048
:10086000284A904226D0284A904223D0274A9042D4
:1008700020D0274A90421DD0264A90421AD0264ABC
:10088000904217D0254A904214D0254A904211D068
:10089000244A90420ED0244A90420BD0234A9042E0
:1008A00008D0234A904205D0224A904202D0224AE0
:1008B00090420BD1626EA06E5060E06E30B1026863
:1008C00022F480720260226F606F506084F83510ED
:1008D000002084F83400BDE8F88F000010000240CA
:1008E00028000240400002405800024070000240D0
:1008F00088000240A0000240B800024010040240FC
:10090000280402404004024058040240700402409F
:1009100088040240A0040240B8040240085402586F
:100920001C54025830540258445402585854025827
:100930006C54025880540258945402582DE9F05FC8
:10094000002808D090F83510022907D08021416591
:100950000120BDE8F09F0120BDE8F09FDFF81CE218
:100960000168874BDFF81CC27145874C874D884E64
:10097000884FDFF82482DFF82492DFF824A2DFF822
:1009800024B2894A25D0994223D0614521D0A14281
:100990001FD0A9421DD0B1421BD0B94219D0DFF8F7
:1009A0000CE2714515D0DFF808E2714511D0DFF88F
:1009B00004E271450DD041450BD0494509D0DFF81F
:1009C000F8E1714505D0514503D0594501D0914218
:1009D00032D14FF0040E80F835E06848814221D0D2
:1009E00099421FD061451DD0A1421BD0A94219D008
:1009F000B14217D0B94215D06C48814212D06C4830
:100A000081420FD06B4881420CD041450AD0494504
:100A100008D06948814205D0514503D0594501D0DD
:100A2000914204D1086820F001000860A3E0086842
:100A300020F0010008609EE0D1F800E02EF00E0EDC
:100A4000C1F800E0DFF834E10168714525D0994232
:100A500023D0614521D0A1421FD0A9421DD0B1426F
:100A60001BD0B94219D0DFF844E1714515D0DFF849
:100A700040E1714511D0DFF83CE171450DD04145B1
:100A80000BD0494509D0DFF830E1714505D051451B
:100A900003D0594501D0914206D1D1F800E02EF0A3
:100AA000010EC1F800E005E0D1F800E02EF0010EE3
:100AB000C1F800E0DFF8C4E00168714539D099421F
:100AC00037D0614535D0A14233D0A94231D0B142AF
:100AD0002FD0B9422DD0354B99422AD0344B994270
:100AE00027D0344B994224D0414522D0494520D0CB
:100AF000314B99421DD051451BD0594519D09142D7
:100B000017D02E4A914214D02D4A914211D02D4A2D
:100B100091420ED02C4A91420BD02C4A914208D0DF
:100B20002B4A914205D02B4A914202D02A4A914247
:100B300018D1016E0A6822F480720A60816D90F803
:100B40005C2002F01F0301229A404A60426E816ECF
:100B50005160C16E31B10A6822F480720A60026F7E
:100B6000416F5160012180F83510002180F8341068
:100B7000016D01B188470020BDE8F09F10000240E0
:100B8000280002404000024058000240700002402D
:100B900088000240A0000240400402405804024085
:100BA00088040240A0040240B8040240B800024099
:100BB0001004024028040240700402400854025805
:100BC0001C54025830540258445402585854025885
:100BD0006C54025880540258945402582DE9F04F36
:100BE00083B00446002002904FF41651FD4800687F
:100BF000B0FBF1F00190A56D2E682968FA4F2068CE
:100C0000DFF8E8A3DFF8E8B3B842DFF8E883DFF8FD
:100C1000E8932DD0524690422AD05A46904227D08F
:100C2000404525D0484523D0F44A904220D0F44A8C
:100C300090421DD0F34A90421AD0F34A904217D006
:100C4000DFF8C8C3604513D0F14A904210D0DFF8F6
:100C5000C4E370450CD0F04A904209D0EF4A90426C
:100C600006D0EF4A904203D0EE4B984240F04082CB
:100C700094F85C10082201F01F0102FA01F13142E0
:100C800041D0B84228D0504526D0584524D04045C0
:100C900022D0484520D0D94988421DD0D849884221
:100CA0001AD0D849884217D0D749884214D0D7499A
:100CB000884211D0D64988420ED0D64988420BD0FE
:100CC000D549884208D0D549884205D0D4498842C0
:100CD00002D0D449884203D1016801F0040102E046
:100CE000016801F0080171B1016821F0040101609F
:100CF00094F85C0000F01F0002FA00F0A860606D3C
:100D000040F00100606594F85C0000F01F010120D4
:100D100000FA01F1314234D02068B84228D0504561
:100D200026D0584524D0404522D0484520D0B34A4B
:100D300090421DD0B24A90421AD0B24A904217D087
:100D4000B14A904214D0B14A904211D0B04A904278
:100D50000ED0B04A90420BD0AF4A904208D0AF4A72
:100D6000904205D0AE4A904202D0AE4A90427DD128
:100D7000406910F0800F04D0A960606D40F002005F
:100D8000606594F85C0000F01F01042000FA01F196
:100D9000314234D02068B84228D0504526D058453A
:100DA00024D0404522D0484520D0944A90421DD0BE
:100DB000934A90421AD0934A904217D0924A904256
:100DC00014D0924A904211D0914A90420ED0914A4A
:100DD00090420BD0904A904208D0904A904205D061
:100DE0008F4A904202D08F4A904245D1006810F05D
:100DF000020F04D0A960606D40F00400606594F8B3
:100E00005C0000F01F01102000FA01F1314259D0BE
:100E10002068B84228D0504526D0584524D04045B7
:100E200022D0484520D0754A90421DD0744A904245
:100E30001AD0744A904217D0734A904214D0734A21
:100E4000904211D0724A90420ED0724A90420BD01A
:100E5000714A904208D0714A904205D0704A90423F
:100E600002D0704A904209D1006800E002E000F030
:100E7000080006E0006884E70068C0E7006800F04A
:100E80000400F8B1A9602068016811F4802F0DD02A
:100E9000006810F4002F04D0A16C99B12046884757
:100EA00010E0216C71B1204688470BE0016811F415
:100EB000807F03D1016821F008010160216C09B134
:100EC0002046884794F85C0000F01F01202000FABB
:100ED00001F131426FD02068B84228D0504526D069
:100EE000584524D0404522D0484520D0434A90421E
:100EF0001DD0434A90421AD0424A904217D0424AEB
:100F0000904214D0414A904211D0414A90420ED0B2
:100F1000404A90420BD0404A904208D03F4A90420B
:100F200005D03F4A904202D03E4A904203D1006829
:100F300000F0100002E0006800F00200D8B3A960E1
:100F400094F8350004280DD02068016811F4802F32
:100F500037D0006810F4002F2ED0E16B59B3204633
:100F6000884764E02068016821F01601016020686C
:100F7000416921F080014161206C08B9A06C20B169
:100F80002068016821F00801016094F85C003F21AD
:100F900000F01F0001FA00F0A860012084F835007D
:100FA000002084F83400216D00297BD003B0204656
:100FB000BDE8F04F084737E0616CA9B32046884789
:100FC00035E0016811F4807F09D1016821F010013A
:100FD0000160012084F83500002084F83400E16BC2
:100FE00011B322E04000002410000240280002401B
:100FF0004000024058000240700002408800024059
:10100000A0000240B8000240100402402804024040
:101010004004024058040240700402408804024028
:10102000A0040240B804024001E020468847606DF9
:10103000002837D0606D10F0010F51D0042084F8E3
:1010400035002068B84228D0504526D0584524D0D5
:10105000404522D0484520D0AB4988421DD0AB49FD
:1010600088421AD0AA49884217D0AA49884214D087
:10107000A949884211D0A94988420ED0A84988427E
:101080000BD0A849884208D0A749884205D0A74973
:10109000884202D0A649884205D1016821F00101A9
:1010A000016004E096E0016821F00101016021681F
:1010B0000298019A401C0290904203D8086810F0F0
:1010C000010FF5D1086810F0010F03D0032084F858
:1010D000350002E0012084F83500002084F8340057
:1010E000E16C002976D003B02046BDE8F04F0847F8
:1010F000904B984214D0904B984211D08F4B98420D
:101100000ED08F4B98420BD08E4B984208D08E4B0E
:10111000984205D08D4B984202D08D4B984259D1C0
:1011200003684FF0040A94F85C6006F01F060AFAA0
:1011300006FA1AEA010F5AD013F0040F57D0C5F877
:1011400004A013F4004F12D013F4803F07D0216C99
:1011500000293FD003B02046BDE8F04F0847A16CFE
:10116000002937D003B02046BDE8F04F084713F000
:10117000200F34D12068B84227D07649884224D045
:101180007549884221D040451FD048451DD05E4951
:1011900088421AD05D49884217D05D49884214D0F0
:1011A0005C49884211D060450FD05C4988420CD020
:1011B00070450AD05B49884207D05B49884204D019
:1011C000904202D05A49884205D1016821F00801B5
:1011D000016004E083E0016821F004010160216CFA
:1011E00000297CD003B02046BDE8F04F08474FF0FF
:1011F000020A0AFA06FA1AEA010F5FD013F0020F88
:101200005CD0C5F804A013F4004F12D013F4803F53
:1012100007D0E16B002974D003B02046BDE8F04F41
:101220000847616C00296CD003B02046BDE8F04F40
:10123000084713F0200F39D12068B84227D045491C
:10124000884224D04449884221D040451FD0484597
:101250001DD02D4988421AD02C49884217D02C49DC
:10126000884214D02B49884211D060450FD02B49B9
:1012700088420CD070450AD02A49884207D02A49B2
:10128000884204D0904202D02949884204D10168A2
:1012900021F01401016003E0016821F00A010160FE
:1012A000012084F83500002084F83400E16B002927
:1012B00027D003B02046BDE8F04F08470822B240CF
:1012C0000A421ED013F0080F1BD0016821F00E0156
:1012D000016094F85C0000F01F01012000E010E0C4
:1012E00000FA01F16960606584F83500002084F837
:1012F0003400E16C002904D003B02046BDE8F04F73
:10130000084703B0BDE8F08F88000240A00002400B
:10131000B800024010040240280402404004024089
:10132000580402407004024088040240A0040240B5
:10133000B8040240085402581C5402583054025851
:1013400044540258585402586C540258805402585D
:1013500094540258280002404000024070B50446F0
:1013600000F06CFA0546B4F1FF3F02D00448007863
:10137000044400F063FA401BA042FAD370BD0000A1
:10138000340000242DE9F047064632202DED088B6D
:10139000FFF7E4FF924D4FF48051924C8E424FF490
:1013A00000594FF0000810D1284600F033FAA0B9D8
:1013B00001222846402100F034FA002228468021EC
:1013C00000F02FFA84F8008007E0082E4FF00107A4
:1013D0000BD04E4501D184480780FFF781F8834E3A
:1013E0004FF4FA7A307090B14CE00821284600F0B2
:1013F00011FA0028F1D100222846402100F011FA0C
:1014000001222846802100F00CFA2770E5E72078B9
:1014100040F2FF37B0B900222846402100F001FA1F
:101420005046FFF79BFF01222846402100F0F9F9C2
:101430006188A088081A002801DD608002E029B1D7
:10144000A4F802802078012802D01BE06780F9E729
:1014500000222846802100F0E4F95046FFF77EFF85
:1014600001222846802100F0DCF96188A088084428
:10147000B0F5806F01D2608004E0B94201D1E0880C
:10148000F9E767809FED5AAB9FED5B9AB7EE00BB23
:10149000DFED5A9A9FED5A8B3078012842D120789F
:1014A000F0B900222846402100F0BBF95046FFF772
:1014B00055FF01222846402100F0B3F994ED030ABC
:1014C000B7EEC00A30EE480BB4EECA0BF1EE10FADC
:1014D00004DDB7EEC00B84ED030A01E084ED039A4E
:1014E000207801281ED100222846802100F099F999
:1014F0005046FFF733FF01222846802100F091F982
:1015000094ED030AB7EEC00A30EE080BB4EECB0B35
:10151000F1EE10FA04D2B7EEC00B84ED030A01E03D
:10152000C4ED039A3078022842D12078F0B9002225
:101530002846402100F075F95046FFF70FFF0122C1
:101540002846402100F06DF994ED030AB7EEC00A79
:1015500030EE480BB4EECA0BF1EE10FA04DDB7EE34
:10156000C00B84ED030A01E084ED039A2078012882
:101570001ED100222846802100F053F95046FFF783
:10158000EDFE01222846802100F04BF994ED030A7C
:10159000B7EEC00A30EE080BB4EECB0BF1EE10FA4A
:1015A00004D2B7EEC00B84ED030A01E0C4ED039A48
:1015B000307803280CD101222846402100F031F96F
:1015C0005046FFF7CBFE00222846402100F029F9C3
:1015D0004FF0B041C1F88890BDEC088BBDE8F087B2
:1015E00000080258240000240C0000240E000024EF
:1015F0009A9999999999C93F9A99993E6666663FD1
:101600009A9999999999B93F10B54FF0B041D1F88D
:101610008820024203D0C1F88800FFF7B3FE10BD56
:101620002DE9F84F0022DFF8E4C10B68002B7DD0D4
:10163000DFF8DCB14FF0B04A4FF0010E4FF0030875
:101640004FF00F090B680EFA02F52B40002B6ED0FD
:101650000C7904F00304012C01D0022C11D186680E
:10166000540008FA04F7BE43CF6807FA04F4344381
:1016700084604468AC430D79C5F3001595402C4354
:1016800044604C6838EA040409D0C568540008FA7C
:1016900004F6B5438E6806FA04F42C43C4600C7952
:1016A00004F00304022C0DD1D40800EB84052E6A4B
:1016B0005407E40E09FA04F7BE430F6907FA04F46D
:1016C00034432C620568540008FA04F6B5430E79D9
:1016D00006F0030606FA04F42C4304604C6814F484
:1016E000403F78D0DBF8004044F00204CBF80040E3
:1016F000DBF8004004F00204009422F0030404F13B
:10170000B046D6F8084495072D0F09FA05F724EAE4
:101710000707A0F1B044B4F5003463D0A0F1B044A1
:10172000B4F5013460D0A0F1B04401E058E052E0DB
:10173000B4F502345AD0A0F1B044B4F5033457D014
:10174000A0F1B044B4F5043454D0A0F1B044B4F5E1
:10175000053451D0A0F1B044B4F506344ED0A0F118
:10176000B044B4F507344BD0A0F1B044B4F508341C
:1017700048D0A0F1B044B4F5093445D00A24AC40B7
:101780003C43C6F80844DAF800409C434D6815F421
:10179000801F00D01C43CAF80040DAF804409C4384
:1017A0004D6815F4001F00D01C43CAF80440DCF853
:1017B00004409C434D6815F4003F00D01C43CCF816
:1017C0000440DCF800409C434D6815F4803F00D095
:1017D0001C43CCF80040521C0B68D3407FF432AF5E
:1017E000BDE8F88F0024CAE70124C8E70224C6E751
:1017F0000324C4E70424C2E70524C0E70624BEE7A7
:101800000724BCE70824BAE70924B8E78000005899
:10181000F44402580069084201D0012070470020BA
:101820007047002A01D081617047090481617047C7
:1018300001480068000C70470010005C0148806897
:101840007047000034000024024881680278114487
:10185000816070473400002410B5032000F0B0F818
:1018600001F0D0F90F4A1168C1F303230E49CB5C94
:1018700003F01F03D840126802F00F02895C0B4A84
:1018800001F01F0120FA01F11160094908600E20E2
:1018900000F010F808B1012010BD00F031F8002070
:1018A00010BD000018440258F458000844000024F9
:1018B0004000002470B504460F4D2A78002A0CD051
:1018C0004FF47A700D49B0FBF2F00968B1FBF0F00B
:1018D00001F044FE18B1012070BD012070BD102C34
:1018E00007D200222146501E00F034F86C60002020
:1018F00070BD012070BD00003400002440000024B1
:101900000C4808B5016841F002010160016801F06E
:1019100002010091016841F400410160006800F497
:101920000040009001F0FAFDBDE80840022001F0FF
:10193000FDBD0000F444025800280ADB012200F03B
:101940001F0102FA01F14009800000F1E020C0F817
:10195000001170474DF8044D184B1B68C3F3022368
:10196000C3F1070CBCF1040F01D94FF0040C1C1D8E
:10197000072C01D2002300E0DB1E012404FA0CFC3A
:10198000ACF1010C0CEA0101994004FA03F35B1E6F
:101990001A401143002807DB00F1E020090180F81C
:1019A00000145DF8044B704700F00F0000F1E020D8
:1019B000090180F8141D5DF8044B70470CED00E040
:1019C00000F00700064A11684FF6FF03194041EA8C
:1019D000002040F0FD7040F0806010607047000013
:1019E0000CED00E070B515490A6812F0040F0DD037
:1019F0000A6822F0070210430860FFF71FFF044641
:101A00000F4D286810F4005F09D014E0096801F058
:101A10000701814201D0012070BD002070BDFFF799
:101A20000DFF001BB0F57A7F01D9012070BD286839
:101A300010F4005FF3D0002070BD00000C48025885
:101A40000448025810B501F091F805490968054AA3
:101A5000C1F30211515C01F01F01C84010BD00002C
:101A600020440258F458000869490A6802F0030249
:101A70000968C1F30531674B1B68C3F30013DFF836
:101A800098C1DCF800C0CCF3CC0C1CFB03F300EED7
:101A9000103AB8EE400A002972D09FED601A604BF0
:101AA000002AF7EE000A46D0DFED5E1A012A68D060
:101AB000022A67D002EE101A1968F8EE422A81EE67
:101AC000A22AC1F3080101EE901AF8EE611A40EE65
:101AD000011A31EEA00A22EE000A1968C1F346216C
:101AE00001EE101AB8EE411A31EE201AC0EE011ABA
:101AF000BCEEE11A80ED001A1968C1F3064101EE4F
:101B0000101AB8EE411A31EE201AC0EE011ABCEEDE
:101B1000E11A80ED011A1968C1F3066101EE101A8D
:101B2000B8EE411A71EE200A80EE201ABCEEC10A0E
:101B300080ED020A70473C4AD2F800C01CF0200F2A
:101B400021D01268DFF8E4C0C2F3C1022CFA02F21D
:101B500001EE902AF8EE612A01EE901A1968F8EE6B
:101B6000611A82EEA12AC1F3080101EE901AF8EE83
:101B7000611A40EE011A31EEA00A22EE000AACE72B
:101B800041E016E029E001EE901ADFED292A1968FC
:101B9000F8EE611A82EEA12AC1F3080101EE901A53
:101BA000F8EE611A40EE011A31EEA00A22EE000AA8
:101BB00093E702EE101A1968F8EE422A81EEA22A83
:101BC000C1F3080101EE901AF8EE611A40EE011A15
:101BD00031EEA00A22EE000A7FE701EE901ADFED57
:101BE000152A1968F8EE611A82EEA12AC1F30801DC
:101BF00001EE901AF8EE611A40EE011A31EEA00AD9
:101C000022EE000A69E700210160416081607047AF
:101C1000284402582C4402583C4402580000003921
:101C2000384402580024744A004402580090D003FB
:101C30000024744C20BCBE4B69490A6802F00302C0
:101C40000968C1F30551674B1B68C3F30023DFF834
:101C500098C1DCF800C0CCF3CC0C1CFB03F300EE05
:101C6000103AB8EE400A002972D09FED601A604B1E
:101C7000002AF7EE000A46D0DFED5E1A012A68D08E
:101C8000022A67D002EE101A1968F8EE422A81EE95
:101C9000A22AC1F3080101EE901AF8EE611A40EE93
:101CA000011A31EEA00A22EE000A1968C1F346219A
:101CB00001EE101AB8EE411A31EE201AC0EE011AE8
:101CC000BCEEE11A80ED001A1968C1F3064101EE7D
:101CD000101AB8EE411A31EE201AC0EE011ABCEE0D
:101CE000E11A80ED011A1968C1F3066101EE101ABC
:101CF000B8EE411A71EE200A80EE201ABCEEC10A3D
:101D000080ED020A70473C4AD2F800C01CF0200F58
:101D100021D01268DFF8E4C0C2F3C1022CFA02F24B
:101D200001EE902AF8EE612A01EE901A1968F8EE99
:101D3000611A82EEA12AC1F3080101EE901AF8EEB1
:101D4000611A40EE011A31EEA00A22EE000AACE759
:101D500041E016E029E001EE901ADFED292A19682A
:101D6000F8EE611A82EEA12AC1F3080101EE901A81
:101D7000F8EE611A40EE011A31EEA00A22EE000AD6
:101D800093E702EE101A1968F8EE422A81EEA22AB1
:101D9000C1F3080101EE901AF8EE611A40EE011A43
:101DA00031EEA00A22EE000A7FE701EE901ADFED85
:101DB000152A1968F8EE611A82EEA12AC1F308010A
:101DC00001EE901AF8EE611A40EE011A31EEA00A07
:101DD00022EE000A69E700210160416081607047DE
:101DE000284402582C440258444402580000003948
:101DF000404402580024744A004402580090D00322
:101E00000024744C20BCBE4B2DE9F84F044600253D
:101E100000262068C04310F0006FFE4FDFF8F88303
:101E20000DD1A06E88B1B0F5801F13D0B0F5001FA2
:101E300017D0B0F5401F00D00125CDB12E46208827
:101E4000C04310F4807F1CD039E0386840F4003083
:101E50003860F2E7022104F1080002F0F5F90546C6
:101E6000EBE7022104F1280002F08EFA0546E4E7D0
:101E7000D8F80000A16E20F440100843C8F8000014
:101E8000DDE7A06D052817D2DFE800F003080F1783
:101E90001700386840F4003038600EE0002104F18B
:101EA000080002F0D1F9054607E0002104F12800FE
:101EB00002F06AFA054600E0012535B12E46208879
:101EC000C04310F4007F09D018E0D8F80000A16DDD
:101ED00020F007000843C8F80000F0E7E06D802814
:101EE00020D003DC90B1402805D114E0C02803D0F5
:101EF000B0F5807F00D00125DDB12E462088DFF8C7
:101F00001C93C04310F4806F1CD02FE0386840F45D
:101F100000303860F0E7002104F1080002F094F985
:101F20000546E9E7002104F1280002F02DFA0546F4
:101F3000E2E7D8F80000E16D20F4E0700843C8F84B
:101F40000000DBE7D4F8A800B0F5800F20D004DC57
:101F500090B1B0F5001F06D113E0B0F5C00F03D06B
:101F6000B0F5000F00D00125CDB12E462088C0432A
:101F700010F4006F1DD030E0386840F40030386055
:101F8000F2E7002104F1080002F05EF90546EBE7F4
:101F9000002104F1280002F0F7F90546E4E7D9F83A
:101FA0000000D4F8A81020F460000843C9F800002D
:101FB000DCE7D4F8AC00B0F1007F20D004DC90B1B5
:101FC000B0F1807F06D113E0B0F1407F03D0B0F1D3
:101FD000806F00D00125CDB12E462068C04310F09F
:101FE000007F1DD027E0386840F400303860F2E709
:101FF000002104F1080002F027F90546EBE7002173
:1020000004F1280002F0C0F90546E4E7D9F8000021
:10201000D4F8AC1020F0E0600843C9F80000DCE719
:10202000E06C30B110280CD020280FD0302800D020
:10203000012595B12E462088C04310F4805F14D04E
:1020400026E0386840F400303860F2E7022104F1FD
:10205000080002F0F9F80546EBE771480168E26C08
:1020600021F0300111430160E5E7206EB0F5005F1B
:1020700020D004DC90B1B0F5805F06D113E0B0F55C
:10208000405F03D0B0F5804F00D00125CDB12E4682
:102090002088C04310F4005F1CD031E0386840F461
:1020A00000303860F2E7002104F1080002F0CCF8BB
:1020B0000546EBE7002104F1280002F065F905462A
:1020C000E4E7D8F80000216E20F4E0400843C8F8A7
:1020D0000000DDE7606EB0F5403F0FD007DC68B16F
:1020E000B0F5803F12D0B0F5003F06D115E0B0F555
:1020F000802F03D0B0F5A02F00D00125A5B12E462A
:102100002088C04310F4804F17D02DE0012104F146
:10211000080002F099F80546F0E7012104F12800D3
:1021200002F032F90546E9E7D8F80000616E20F4C4
:10213000E0200843C8F80000E2E7D4F8B000B0F1AE
:10214000405F0FD007DC68B1B0F1805F12D0B0F112
:10215000005F06D115E0B0F1804F03D0B0F1A04F81
:1021600000D00125A5B12E462088C04310F4004FB1
:1021700018D022E0012104F1080002F065F80546BC
:10218000F0E7012104F1280002F0FEF80546E9E736
:10219000D9F80000D4F8B01020F0E0400843C9F8A6
:1021A0000000E1E7206F30B1B0F1805F0BD0B0F1FB
:1021B000005F0DD0012595B12E462068C04310F078
:1021C000807F15D01FE0386840F400303860F2E7B7
:1021D000012104F1080002F037F80546EBE7D8F8D2
:1021E0000000216F20F040500843C8F80000E4E7E9
:1021F000A06C30B1012819D002281CD0032800D0CF
:102200000125FDB12E462068DFF818B0C04310F458
:10221000800F09E02C440258504402585844025898
:102220004C4402581044025814D030E0386840F44E
:1022300000303860E5E7022104F1080002F004F8FC
:102240000546DEE7F8480168A26C21F0030111435E
:102250000160D8E7F548006840F48071F3480160F8
:10226000FFF7ECFA8246F148006810F4807F0CD149
:10227000FFF7E4FAA0EB0A00642801D9032504E083
:10228000EA48006810F4807FF2D045B12E462078ED
:10229000DFF89CA3C04310F0010F60D070E0DFF8BE
:1022A00094A3DAF80000B4F8B41000F4407001F41C
:1022B0004071884211D0DAF8000020F44070DAF85A
:1022C000001041F48031CAF80010DAF8001021F44F
:1022D0008031CAF80010CAF80000D4F8B400B0F594
:1022E000807F16D1FFF7AAFA0090DAF8000010F00C
:1022F000020F0ED1FFF7A2FA0099411A41F288307D
:10230000814201D9032504E0DAF8000010F0020F41
:10231000F0D00DB12E46BAE7D4F8B4004FF44071B6
:1023200081430FD0DBF8000020F47C50CBF8000094
:10233000DAF80000B4F8B410C1F30B010843CAF88E
:102340000000A4E7DBF8001020F4407020F070409B
:1023500021F47C5141EA1010CBF80000E8E7E06F6F
:1023600018280BD005DC48B108280FD0102804D15C
:1023700013E0202802D0282800D00125A5B12E4640
:102380002078C04310F0020F17D02FE0012104F194
:10239000080001F059FF0546F0E7012104F128008B
:1023A00001F0F2FF0546E9E7DAF80000E16F20F0FE
:1023B00038000843CAF80000E2E7A06F062812D2EE
:1023C000DFE800F012030A121212012104F10800E2
:1023D00001F03AFF054607E0012104F1280001F071
:1023E000D3FF054600E0012535B12E462078C043D5
:1023F00010F0040F09D022E0DAF80000A16F20F0FD
:1024000007000843CAF80000F0E7D4F89400062853
:1024100012D2DFE800F012030A121212012104F1B5
:10242000080001F011FF054607E0012104F1280032
:1024300001F0AAFF054600E0012535B12E462078BF
:10244000C04310F0200F0AD020E0D9F80000D4F8E3
:10245000941020F007000843C9F80000EFE7D4F813
:102460009000B0F1405F0FD007DC68B1B0F1805F41
:1024700012D0B0F1005F06D115E0B0F1804F03D06B
:10248000B0F1A04F00D00125A5B12E462078C04361
:1024900010F0400F18D02EE0002104F1080001F0E8
:1024A000D3FE0546F0E7022104F1280001F06CFF9D
:1024B0000546E9E7DAF80000D4F8901020F0E04093
:1024C0000843CAF80000E1E7D4F89C00B0F5406F7B
:1024D0000FD007DC68B1B0F5806F12D0B0F5006F97
:1024E00006D115E0B0F5805F03D0B0F5A05F00D055
:1024F0000125A5B12E462078C04310F0800F18D0DA
:102500002EE0002104F1080001F09EFE0546F0E7F0
:10251000022104F1280001F037FF0546E9E7D9F868
:102520000000D4F89C1020F4E0500843C9F80000E3
:10253000E1E7D4F8A000B0F5C04F0FD007DC68B1D8
:10254000B0F5005F12D0B0F5804F06D115E0B0F5C0
:10255000004F03D0B0F5204F00D00125A5B12E4685
:102560002078C04310F0080F18D02CE0002104F1AF
:10257000080001F069FE0546F0E7022104F1280099
:1025800001F002FF0546E9E7D9F80000D4F8A010F1
:1025900020F460400843C9F80000E1E7D4F8840063
:1025A000B0F5805F06D1022104F1280001F0ECFEB5
:1025B00000B10126DAF80000D4F8841020F440506D
:1025C0000843CAF800002078C04310F0100F14D15F
:1025D000D4F89800B0F5807F06D1022104F12800DC
:1025E00001F0D2FE00B10126D9F80000D4F898100D
:1025F00020F440700843C9F800002068C04310F47C
:10260000002F0BD1D4F8A400B0B1B0F5803F1AD0A0
:10261000B0F5003F00D00125E5B12E462068C0434B
:1026200010F4802F20D02DE04C440258004802586E
:102630005444025870440258002104F1080001F08B
:1026400003FE0546E8E7022104F1280001F09CFEA4
:102650000546E1E7D9F80000D4F8A41020F4403092
:102660000843C9F80000D9E7D4F88800B0F5801F06
:102670000ED0B0F5001F10D0B0F5401F00D00125DE
:1026800095B12E462068C04310F4803F16D01DE05F
:10269000386840F400303860F2E7012104F1280086
:1026A00001F072FE0546EBE7DAF80000D4F8881076
:1026B00020F440100843CAF80000E3E7206D58B149
:1026C000B0F5803F0DD0012595B12E462068C0435E
:1026D00010F0005F14D01AE0386840F40030386021
:1026E000F2E7022104F1080001F0AEFD0546EBE738
:1026F0006E480168226D21F4803111430160E5E7E5
:10270000022104F1280001F03FFE00B101262068FB
:10271000C04310F4003F0ED1D4F8800048B1B0F5AA
:10272000807F0ED0B0F5007F03D0B0F5407F00D0A1
:1027300001255DB12E462068C04310F4801F0FD0E4
:1027400016E0386840F400303860F2E7DAF800004C
:10275000D4F8801020F440700843CAF80000EAE77B
:10276000D8F80000616F20F000400843C8F800006E
:102770002068C04310F0805F08D1DBF80000D4F877
:10278000B81020F480400843CBF800002068C04314
:1027900010F4001F07D1D8F80000E16E20F080701F
:1027A0000843C8F800002068C04310F0804F0CD1E7
:1027B000DBF8000020F40040CBF80000DBF800005C
:1027C000D4F8BC100843CBF800002068C04310F0D8
:1027D000004F06D135480168626D21F04051114328
:1027E00001602068C04310F4000F08D1DAF800003F
:1027F000D4F88C1020F440000843CAF80000207977
:102800000025C04300F00100284306D1002104F157
:10281000080001F019FD00B106462079C04300F020
:102820000200284306D1012104F1080001F00CFD4B
:1028300000B106462079C04300F00400284306D1C9
:10284000022104F1080001F0FFFC00B106462079E6
:10285000C04300F00800284306D1002104F12800FD
:1028600001F092FD00B106462079C04300F010004F
:10287000284306D1012104F1280001F085FD00B1B3
:1028800006462079C04300F02000284306D10221EB
:1028900004F1280001F078FD00B1064616B10120D0
:1028A000BDE8F88F0020BDE8F88F00004C440258C6
:1028B0002DE9F05F04460D46002C17D0DFF8849216
:1028C000D9F8000000F00F00A84212D2D9F8000099
:1028D00020F00F002843C9F80000D9F8000000F0EC
:1028E0000F00A84205D00120BDE8F09F0120BDE8FF
:1028F000F09F2078944E10F0040F0AD020693168C0
:1029000001F07001884204D9316821F07001084358
:10291000306020788D4F10F0080F0AD06069396858
:1029200001F07001884204D9396821F07001084330
:102930003860207810F0100F0AD0A069396801F4CF
:10294000E061884204D9396821F4E06108433860C5
:102950002078DFF8FCB110F0200F0DD0E069DBF833
:10296000001001F07001884206D9DBF8001021F058
:1029700070010843CBF80000207810F0020F0AD055
:10298000E068316801F00F01884204D9316821F014
:102990000F0108433060207810F0010F51D03068EB
:1029A000A16820F4706008433060606869490228BB
:1029B00008D003280DD0012812D0096811F0040FA7
:1029C00034D011E0096811F4003F0DD10120BDE8B9
:1029D000F09F096811F0007F06D10120BDE8F09F4B
:1029E000096811F4807F1ED0DFF86CA1DAF80010BE
:1029F00021F007010843CAF80000FEF71FFF8046D8
:102A0000DAF80000616800F03800B0EBC10F18D0B0
:102A1000FEF714FFA0EB080141F28830814208D98B
:102A20000320BDE8F09F0120BDE8F09F0120BDE834
:102A3000F09FDAF80000616800F03800B0EBC10FD9
:102A4000E6D1207810F0020F0AD0E068316801F07A
:102A50000F01884204D2316821F00F010843306031
:102A6000D9F8000000F00F00A8420FD9D9F80000F3
:102A700020F00F002843C9F80000D9F8000000F04A
:102A80000F00A84202D00120BDE8F09F207810F08E
:102A9000040F0AD02069316801F07001884204D225
:102AA000316821F0700108433060207810F0080F81
:102AB0000AD06069396801F07001884204D239682F
:102AC00021F0700108433860207810F0100F0AD010
:102AD000A069396801F4E061884204D2396821F4C0
:102AE000E06108433860207810F0200F0DD0E069D5
:102AF000DBF8001001F07001884206D2DBF800100C
:102B000021F070010843CBF8000000F07BF8316839
:102B1000C1F3032211498A5C02F01F02D0403268DF
:102B200002F00F02895C0E4A01F01F0120FA01F148
:102B300011600C4908600C480068BDE8F05FFEF7C2
:102B4000B9BE000000200052184402581C4402582C
:102B5000204402580044025810440258F458000817
:102B60004400002440000024380000244DF804ED07
:102B700000F048F80B4A11680B4BC1F30321595C74
:102B800001F01F0120FA01F11068084A00F00F005F
:102B9000185C00F01F0021FA00F01060044A116078
:102BA0005DF804FB18440258F4580008440000245F
:102BB000400000244DF804EDFFF7D8FF05490968EF
:102BC000054AC1F30211515C01F01F01C8405DF8D4
:102BD00004FB00001C440258F45800084DF804EDB2
:102BE000FFF7C4FF05490968054AC1F30221515C9A
:102BF00001F01F01C8405DF804FB00001C440258AE
:102C0000F45800084DF8044D69480068DFF8A4C185
:102C1000694B10F038014ED008294FEA2C1047D0EC
:102C2000102959D0182943D16448016801F00301E3
:102C30000068C0F30510624A126802F00102614C9C
:102C40002468C4F3CC0414FB02F200EE102AB8EEA0
:102C5000400A00287BD0DFED5C0A5C4AB7EE001A20
:102C6000A9B39FED5B2A012974D0022971D001EE2E
:102C7000900A1068F8EE611AC2EE212AC0F308002B
:102C800001EE900AF8EE611A40EE201A31EE810A48
:102C900022EE800A1068C0F34620401C00EE900A25
:102CA000F8EE600A80EE201ABCEEC10A10EE100A9F
:102CB0005DF8044B7047186810F0200F08D01868B2
:102CC0005DF8044BC0F3C1002CFA00F0704707E038
:102CD0005DF8044B604670473E485DF8044B704712
:102CE000196811F0200F1CD01968C1F3C1012CFA2A
:102CF00001F101EE901AF8EE612A01EE900A1068D7
:102D0000F8EE611A82EEA12AC0F3080001EE900AE3
:102D1000F8EE611A40EE201A31EE810A22EE000A26
:102D2000B8E701EE900ADFED2C2A1068F8EE611A80
:102D300082EEA12AC0F3080001EE900AF8EE611AB3
:102D400040EE201A31EE810A22EE000AA2E72BE0C3
:102D500000E013E001EE900A1068F8EE611AC2EE8E
:102D6000212AC0F3080001EE900AF8EE611A40EE45
:102D7000201A31EE810A22EE800A8BE701EE900ADA
:102D8000DFED162A1068F8EE611A82EEA12AC0F370
:102D9000080001EE900AF8EE611A40EE201A31EEBA
:102DA000810A22EE000A75E75DF8044B00207047A7
:102DB000104402580090D00300440258284402589E
:102DC0002C44025834440258000000393044025860
:102DD0000024744A40787D010024744C20BCBE4B12
:102DE0002DE9F05F0446002C11D02078DFF8F8833D
:102DF000FE4F10F0010FFE4D6BD0D8F8000000F030
:102E000038003968102823D0182803D006E00120A4
:102E1000BDE8F09F01F00300022819D06068B0F50A
:102E2000803F1ED010B3B0F5A02F28D0286820F422
:102E300080302860286820F480202860606878B39B
:102E4000FEF7FCFC0646286810F4003F20D040E066
:102E5000286810F4003F3CD0606830BB0120BDE81A
:102E6000F09F286840F480302860E7E7286820F465
:102E700080302860286820F480202860DEE72868F9
:102E800040F480202860286840F480302860D5E72E
:102E9000FEF7D4FC801B642803D90320BDE8F09F13
:102EA00004E0286810F4003FF2D012E0FEF7C6FC00
:102EB0000646286810F4003F0BD0FEF7BFFC801BCD
:102EC000642802D90320BDE8F09F286810F4003F71
:102ED000F3D1207841F2030AC64E10F0020F4BD016
:102EE000D8F8000000F038003968A0B1182802D1E5
:102EF00011F0030F0FD0E068002878D0296821F086
:102F0000190108432860FEF799FC8146286810F0F3
:102F1000040F41D04DE0286810F0040F01D0E068A4
:102F200068B12868E16820F0190008432860FEF7BE
:102F300085FC8146286810F0040F03D00FE00120C3
:102F4000BDE8F09FFEF77AFCA0EB0900022802D949
:102F50000320BDE8F09F286810F0040FF2D0FEF7C0
:102F600067FC504510D82069402806D0316821F40C
:102F70007C3141EA0030306051E0306820F47C3030
:102F800040F4003030604AE03068217C20F0FE40A0
:102F900040EA0160306042E0FEF750FCA0EB09001F
:102FA000022802D90320BDE8F09F286810F0040F22
:102FB000F2D0FEF73DFC504511D82069402806D0DC
:102FC000316821F47C3141EA0030306027E030681C
:102FD00020F47C3040F40030306020E007E03068BE
:102FE000217C20F0FE4040EA0160306017E0286854
:102FF00020F001002860FEF721FC8146286810F0CF
:10300000040F0CD0FEF71AFCA0EB0900022802D92D
:103010000320BDE8F09F286810F0040FF2D120785B
:1030200010F0100F45D0D8F8000000F038003968D3
:10303000DFF8C4B1082813D0182803D101F0030029
:1030400001280DD0E069A8B3286840F0800028600E
:10305000FEF7F4FB8146286810F4807F2BD037E020
:10306000286810F4807F05D0E069802802D0012014
:10307000BDE8F09FFEF7DCFB504510D8206A202801
:1030800006D0316821F0F84141EA8060306056E0B6
:10309000306820F0F84040F0804030604FE0DBF8CE
:1030A000000094F8201020F07C5040EA0160CBF83A
:1030B000000044E02CE0FEF7C1FBA0EB0900022871
:1030C00002D90320BDE8F09F286810F4807FF2D079
:1030D000FEF7AEFB504510D8206A202806D0316894
:1030E00021F0F84141EA8060306028E0306820F04B
:1030F000F84040F08040306021E0DBF8000094F8B8
:10310000201020F07C5040EA0160CBF8000016E06F
:10311000286820F080002860FEF790FB06462868AB
:1031200010F4807F0BD0FEF789FB801B022802D9A8
:103130000320BDE8F09F286810F4807FF3D1207849
:1031400010F0080F3AD0DFF8B4906069D8B1D9F820
:10315000000040F00100C9F80000FEF76FFB0646D2
:10316000D9F8000010F0020F28D1FEF767FB801B92
:10317000022802D90320BDE8F09FD9F8000010F022
:10318000020FF2D01AE0D9F8000020F00100C9F8CF
:103190000000FEF753FB0646D9F8000010F0020FBE
:1031A0000CD0FEF74BFB801B022802D90320BDE8A0
:1031B000F09FD9F8000010F0020FF2D1207810F043
:1031C000200F3DD0A06920B3286840F480502860CB
:1031D000FEF734FB0646286810F4005F30D1FEF796
:1031E0002DFB801B02280BE0104402582844025893
:1031F00000440258044402580C44025874440258D3
:1032000002D90320BDE8F09F286810F4005FE6D0E3
:1032100016E0286820F480502860FEF70FFB064671
:10322000286810F4005F0BD0FEF708FB801B022813
:1032300002D90320BDE8F09F286810F4005FF3D1A5
:10324000207810F0040F6CD0B14E306840F48070DC
:103250003060FEF7F3FA8146306810F4807F0CD1BD
:10326000FEF7ECFAA0EB0900642802D90320BDE8C0
:10327000F09F306810F4807FF2D0A068A54E01283E
:1032800016D0D0B1052821D0306820F00100306080
:10329000306820F004003060A06841F2883A60B3E2
:1032A000FEF7CCFA8146306810F0020F17D038E0F4
:1032B000306840F001003060EEE7306820F0010037
:1032C0003060306820F004003060E5E7306840F09E
:1032D00004003060306840F001003060DCE7FEF749
:1032E000ADFAA0EB0900504502D90320BDE8F09FDC
:1032F000306810F0020FF2D013E0FEF79FFA81461B
:10330000306810F0020F0CD0FEF798FAA0EB09001D
:10331000504502D90320BDE8F09F306810F0020F3D
:10332000F2D1616AA1B3D8F80000DFF8EC9100F0A7
:103330003800182809F10408A9F104067DD00229F3
:1033400012D0286820F080702860FEF777FA0446D3
:10335000286810F0007F1BD0FEF770FA001B0228CF
:103360006CD90320BDE8F09F286820F080702860A9
:10337000FEF764FA8246286810F0007F0DD0FEF751
:103380005DFAA0EB0A00022803D90320BDE8F09FF4
:10339000BBE0286810F0007FF1D13868E16A20F0C6
:1033A000F30020F4407040EA0110A16A084338603D
:1033B000208E4FF47E42616B401E491EC0F3080010
:1033C00002EA41210843218FD201491E02EA01414C
:1033D000084394F83C10491E120202EA01610843B6
:1033E000C9F80000306820F001003060D8F8000013
:1033F000A16C6FF3CF0040EAC100C8F8000030684C
:10340000216C20F00C00084330603068616C20F0C3
:10341000020008433060306840F48030306030682B
:1034200040F400303060306840F480203060306814
:1034300040F001003060286801E01DE016E040F037
:1034400080702860FEF7FAF90446286810F0007FC3
:103450005BD1FEF7F3F9001B022802D90320BDE877
:10346000F09F286810F0007FF3D04EE0286810F03D
:10347000007F7FF471AF48E03A68D9F80000012975
:1034800021D0A36A02F0030199421CD1E16AC2F380
:103490000512914217D1226BC0F30801521E9142CE
:1034A00011D1616BC0F34622491E91420BD1A16B31
:1034B000C0F30642491E914205D1E16BC0F306609C
:1034C000491E814202D00120BDE8F09FD8F80000DB
:1034D000C0F3CC00A16C814217D0306820F001000D
:1034E0003060FEF7ABF90546FEF7A8F9A842FBD01D
:1034F000D8F80000A16C6FF3CF0040EAC100C8F813
:103500000000306840F0010030600020BDE8F09F0E
:10351000004802587044025830440258024801687A
:1035200021F0010101607047003C005803490A681E
:1035300022F002021043086070470000003C00586F
:1035400004284FF0E02104D0086920F0040008614D
:103550007047086940F0040008617047401EB0F1F0
:10356000807F01D3012070474FF0E0214861F020B7
:10357000034A10700020886107200861002070470E
:1035800023ED00E090F88410012918D0012180F883
:1035900084102421C0F8881001680A680B6823F0A1
:1035A00001030B6022F0005100224266036819609B
:1035B0002021C0F8881080F8842000207047022065
:1035C00070477047704770B5044694F8840001282E
:1035D0001DD0012084F884002420C4F888002068CD
:1035E0000568026822F0010202602068826822F009
:1035F000606211438160204601F068F82068056030
:103600002020C4F88800002084F8840070BD0220C7
:1036100070BD70B5044694F8840001281DD00120C7
:1036200084F884002420C4F88800206805680268B3
:1036300022F0010202602068826822F06042114399
:103640008160204601F042F8206805602020C4F81F
:103650008800002084F8840070BD022070BD70478F
:1036600070477047D0F88810D0F88C000843704736
:103670002DE9F04104462368D86919689A6840F634
:103680000F0C00EA0C0CBCF1000F0FD110F0200F52
:103690000CD001F0200502F08056354306D0616F52
:1036A00000297DD02046BDE8F041084700250226CC
:1036B000BCF1000F75D0DFF864C3D94F02EA0C0CDF
:1036C0000F405CEA07076CD010F0010F0AD011F42C
:1036D000807F07D001271F62D4F8903043F00103A8
:1036E000C4F8903010F0020F0AD012F0010F07D08A
:1036F00023681E62D4F8903043F00403C4F890307D
:1037000010F0040F0BD012F0010F08D0266804232C
:103710003362D4F8903043F00203C4F8903010F0D4
:10372000080F0FD001F0200353EA0C030AD0D4F89D
:1037300000C00823CCF82030D4F8903043F00803C0
:10374000C4F8903010F4006F0ED011F0806F0BD0E1
:10375000D4F800C04FF40063CCF82030D4F8903097
:1037600043F02003C4F89030D4F89030002B3FD0C1
:1037700010F0200F09D001F0200002F08051084322
:1037800003D0616F09B120468847D4F890002168C2
:10379000896811F0400F02D110F0280F2FD001E0FE
:1037A00026E033E0204601F092F82068806810F0AF
:1037B000400F1FD02068083050E8001F21F0400162
:1037C00040E80012002AF5D1D4F8800068B195498C
:1037D0000165D4F88000FDF7B1F8002808D0D4F8CE
:1037E0008000016DBDE8F04108472046FFF739FF32
:1037F000BDE8F0812046FFF734FFBDE8F0812046A8
:10380000FFF72FFFC4F89050BDE8F081D4F86CC0EA
:10381000BCF1010F7DD110F0100F7AD011F0100F14
:1038200077D010201862206880684FF0200310F0D5
:10383000400F7ED0D4F880107B4A086890422CD08C
:103840007A4A904229D07A4A904226D0794A9042C8
:1038500023D0794A904220D0784A90421DD0784AAD
:1038600090421AD0774A904217D0774A904214D0AB
:10387000764A904211D0764A90420ED0754A9042D4
:103880000BD0754A904208D0744A904205D0744AD1
:10389000904202D0734A904201D1406800E04068F3
:1038A00080B20028B0D0B4F85C208242ACD9A4F831
:1038B0005E00C869B0F5807F2FD0206850E8001FF7
:1038C00021F4807140E80012002AF6D12068083007
:1038D00050E8001F21F0010140E80012002AF5D154
:1038E0002068083050E8001F21F0400140E8001235
:1038F000002AF5D1C4F88C30E566206850E8001F36
:1039000021F0100140E80012002AF6D1D4F880001E
:1039100001E044E00DE0FCF75DFE2667B4F85C00D2
:10392000B4F85E10401A81B22046FFF74AFEBDE8A7
:10393000F081B4F85C00B4F85E10401A81B2B4F8BB
:103940005E000028F3D00029F1D0206850E8002F55
:1039500022F4907240E8002CBCF1000FF5D12068F1
:10396000083050E8002F22F0010222F0805240E897
:10397000002CBCF1000FF2D1C4F88C30E56665670D
:10398000206850E8002F22F0100240E80023002BAE
:10399000F6D126672046FFF714FEBDE8F08110F44B
:1039A000801F0AD012F4800F07D04FF480101862E5
:1039B0002046BDE8F041FFF753BE10F0800F0CD059
:1039C00001F0800302F400021A4306D0A16F00291F
:1039D000E3D02046BDE8F041084710F0400F07D083
:1039E00011F0400F04D02046BDE8F04100F097BF31
:1039F00010F4000F07D011F0804F04D02046BDE82E
:103A0000F041FFF72CBE10F0807FC6D011F0004FC0
:103A1000C3D02046BDE8F041FFF7D4BD010000103F
:103A200020010004BB4800081000024028000240AA
:103A300040000240580002407000024088000240EE
:103A4000A0000240B80002401004024028040240D6
:103A500040040240580402407004024088040240BE
:103A6000A0040240B804024010B50446002C03D064
:103A7000D4F8880010B107E0012010BD002084F8C0
:103A80008400204600F028F82420C4F8880020682C
:103A9000016821F001010160204601F0DDF90128F3
:103AA00018D0A06A10B1204600F03EFE20684168A0
:103AB00021F4904141602068816821F02A018160F1
:103AC0002068016841F0010101602046BDE8104016
:103AD00000F096BE012010BD10B5B6B0044614210A
:103AE00030A8FCF72FFCC0216846FCF72BFC1949D5
:103AF000206888422BD100201E9002210446CDE987
:103B000000106846FEF780F908B1FCF760FD124826
:103B1000016841F400210160006800F40020359044
:103B20000D480838016841F002010160006830ABBF
:103B3000022100F0020035904FF44070082283E823
:103B40001300064830A9CDE93342FDF769FD36B0D0
:103B500010BD0000004C0040E84402580004025828
:103B60004DF8044DD0F88C30202B03D05DF8044B79
:103B700002207047C9B1C2B10023C3660368A3F134
:103B8000B04CBCF5406C0CD05B6813F4000F08D04F
:103B9000036853E800CF4CF0806C43E800C4002C6D
:103BA000F6D15DF8044B01F0B9BB5DF8044B012080
:103BB00070470000F0B40068144988420CD11448E2
:103BC00081880A0408D402464FF000034C0412789E
:103BD00007D50A2A02D08380F0BC704741F4004127
:103BE00012E00D2A0ED00B4EC1F30D054C1CA1B2F4
:103BF00040F2DB54A14272558180EDD98380F0BC44
:103C000001F048BE41F480418180E5E7004C00406E
:103C100000000024480000242DE9F84304460E4625
:103C200015461F46D4F88800202802D00220BDE89F
:103C3000F88396B18DB10020C4F890002120C4F81B
:103C40008800FDF7FBFD8146A4F85450A4F85650B7
:103C5000A068B0F5805F03D004E00120BDE8F883E0
:103C6000206998B135460026B4F856004FF0200878
:103C7000E0B100224B4680212046009701F0E6FB90
:103C800030B1C4F888800320BDE8F8830025EBE755
:103C9000CDB12168287888626D1CB4F85600401EAA
:103CA000A4F85600B4F856000028E2D100224B4692
:103CB00040212046009701F0C9FB58B1C4F8888024
:103CC0000320BDE8F88321683088C0F308008862CB
:103CD000B61CE2E7C4F888800020BDE8F88370478E
:103CE000FEE7000070B5134C4FF4804500222946D2
:103CF0002046FDF796FD206820F0404020602068B7
:103D000040F080402060002220466900FDF789FDD8
:103D1000012001F02FFD012229462046FDF781FDFB
:103D2000012001F027FD29462046BDE87040002211
:103D3000FDF777BD0008025870B5134C4FF480456D
:103D4000002229462046FDF76CFD206820F0404007
:103D50002060206840F08040206001222046D1038E
:103D6000FDF75FFD012001F005FD012229462046F7
:103D7000FDF757FD012001F0FDFC29462046BDE876
:103D800070400022FDF74DBD000802582DE9F047B4
:103D90001A4C80464FF48047206800254FF40049B4
:103DA0002E4620F0404020602068206000223946E6
:103DB0002046FDF736FD012001F0DCFC01223946EA
:103DC0002046FDF72EFD68064946050E2046FDF704
:103DD00021FD08B16D1CEDB2012001F0CBFC761C79
:103DE000F6B2082EE2D3B8F1000F04D0FFF77AFF45
:103DF0002846BDE8F087FFF79FFFF9E70008025863
:103E00002DE9F0411A4C06462046216821F0404138
:103E10002160216841F0804121604FF480470022F9
:103E20003946FDF7FEFC00254FF40048300601D569
:103E3000012200E0002241462046FDF7F2FC700618
:103E400039460122060E2046FDF7EBFC012001F069
:103E500091FC002239462046FDF7E3FC012001F0E9
:103E600089FC6D1CEDB2082DE0D3BDE8F0810000A7
:103E70000008025870B5134C206820F040402060C4
:103E8000206840F08040206001222046D50329466A
:103E9000FDF7C7FC0122204696033146FDF7C1FC21
:103EA000012001F067FC002229462046FDF7B9FCFD
:103EB000012001F05FFC31462046BDE87040002241
:103EC000FDF7AFBC0008025870B5144C206820F014
:103ED00040402060206840F0804020604FF48045E2
:103EE000204600222946FDF79CFC6E002046002259
:103EF0003146FDF796FC012001F03CFC01222946E9
:103F00002046FDF78EFC012001F034FC31462046AE
:103F1000BDE870400122FDF784BC00000008025893
:103F20002DE9F041184C206820F0404020602068C6
:103F30000025206001222046D6033146FDF771FCA2
:103F4000012001F017FC0122204697033946FDF7B6
:103F500068FC012001F00EFC08E06D1CEDB2FA2DAA
:103F600004D9FFF7B1FF0120BDE8F08131462046BA
:103F7000FDF750FC0028F0D1002239462046FDF71D
:103F800050FC0020F0E700000008025810B50C4C6F
:103F9000002210212046FDF744FC022001F0CBFB5B
:103FA000012220461021FDF73CFC042001F0C3FB58
:103FB00000222046BDE810401021FDF732BC000071
:103FC00000000258134800B587B0016841F00101B4
:103FD0000160006801210322039200F001000590B6
:103FE0003E20CDE900010C486946FDF719FB00F0C1
:103FF00033F800F015F80123084A0321184601F0B0
:104000007DFA064A022101230846121F01F076FAC2
:1040100007B000BDE0440258000002581D00002413
:1040200010B50C4C002220212046FDF7FAFB0120A0
:1040300001F081FB012220462021FDF7F2FB1E202A
:1040400001F079FB00222046BDE810402021FDF759
:10405000E8BB00000000025810B50E4C01220221FE
:104060002046FDF7DEFB002220460421FDF7D9FBA8
:10407000002220460821FDF7D4FB00222046102113
:10408000FDF7CFFB00222046BDE810402021FDF7C0
:10409000C8BB0000000002582DE9F04186B0142191
:1040A0006846FCF74FF93848016841F0100101609B
:1040B000016801F010010591016841F004010160FF
:1040C000016801F004010591016841F0800101607F
:1040D000016801F080010591016841F00201016071
:1040E000016801F002010591016841F008010160D9
:1040F00000684CF2C006254F002200F0080031464F
:1041000005903846FDF78DFBDFF8848000224821BA
:104110004046FDF786FB4FF404156946082000244D
:104120000294CDE900051B48FDF77AFA4FF44050A0
:104130006946CDE9000538460294FDF771FA01257C
:104140000096CDE90154694638460394FDF768FAB4
:1041500048200090CDE90154694640460394FDF79C
:104160005FFA00220F210920FDF7F4FB0920FDF77B
:10417000E3FB00220F212820FDF7ECFB2820FDF7B0
:10418000DBFB06B0BDE8F081E044025800080258AD
:10419000000C0258001002581848002110B5164CA7
:1041A0000C224FF4E1330460C0E90131C160C0E981
:1041B00004128161C161016241628162FFF754FCB6
:1041C00008B1FCF704FA0D480021FFF722FA08B104
:1041D000FCF7FDF909480021FFF7F5F908B1FCF7F4
:1041E000F6F90648FFF7CEF9002803D0BDE81040E5
:1041F000FCF7EDB910BD0000004C0040640700243E
:10420000FEE7FEE7704730B5B1B0C0216846FCF765
:1042100099F800230A204FF4002219240A94D51299
:10422000CDE90023CDE90B50CDE90E031093D21058
:104230000D90684611932992FDF7E6FD002801D004
:1042400072B6FEE731B030BD2DE9F047044688462E
:104250000027DFF82091D9F80000032131EA00009F
:1042600013D0454D286820F080602860FDF7E6FAFD
:104270000646286810F0006F0ED0FDF7DFFA801BAD
:10428000022805D90320BDE8F0870120BDE8F087AA
:10429000286810F0006FF0D1D9F80000216820F4F0
:1042A0007C3040EA0130C9F80000A0884FF47E421B
:1042B000A168401E491EC0F3080002EA41210843DC
:1042C000A189D201491E02EA01410843217C491E0D
:1042D000120202EA0161084328490860284801687F
:1042E000626921F0C001114301600168A26921F0F7
:1042F000200111430160016821F010010160214992
:104300000A68E3696FF3CF0242EAC3020A600168F8
:1043100041F010010160B8F1000F12D0B8F1010FA7
:1043200014D0016841F400110160286840F08060F9
:104330002860FDF783FA0446286810F0006F0AD061
:1043400015E0016841F400210160EEE7016841F4E5
:1043500080110160E9E7FDF771FA001B022802D91C
:104360000320BDE8F087286810F0006FF3D03846CE
:10437000BDE8F087284402580044025838440258E7
:104380002C4402583C4402582DE9F0470446884624
:104390000027DFF82091D9F80000032131EA00005E
:1043A00013D0454D286820F080502860FDF746FA6C
:1043B0000646286810F0005F0ED0FDF73FFA801B1C
:1043C000022805D90320BDE8F0870120BDE8F08769
:1043D000286810F0005FF0D1D9F80000218820F0A3
:1043E0007C7040EA0150C9F80000A0884FF47E427A
:1043F000A168401E491EC0F3080002EA412108439B
:10440000A189D201491E02EA01410843217C491ECB
:10441000120202EA0161084328490860284801683D
:10442000626921F44061114301600168A26921F4CD
:10443000007111430160016821F48071016021491C
:104440000A68E3696FF3CF0242EAC3020A600168B7
:1044500041F480710160B8F1000F12D0B8F1010F82
:1044600014D0016841F080710160286840F08050EC
:104470002860FDF7E3F90446286810F0005F0AD0D1
:1044800015E0016841F480010160EEE7016841F444
:1044900000010160E9E7FDF7D1F9001B022802D90C
:1044A0000320BDE8F087286810F0005FF3D038469D
:1044B000BDE8F0872844025800440258404402589E
:1044C0002C440258444402587047FDF7BDB900001F
:1044D00070B59CB04C216846FBF734FF202113A82F
:1044E000FBF730FF0220FDF77DFA24490A682448D3
:1044F00022F001020A600968016821F4404141F498
:10450000804101600168002401F440411B91016871
:104510008904FCD51B4902200C220B680125C60327
:1045200023F003039B1C0B6009900A90CDE90B025A
:104530000D900E90CDE90F02CDE91104CDE90056A2
:104540006846FEF74DFC08B172B6FEE740201A90AF
:1045500008230501CDE9163013ABCDE918053F213D
:10456000032283E81600002113A8FEF7A1F9002812
:1045700001D072B6FEE71CB070BD00002C040058DC
:1045800018480258284402582D48016841F4700127
:1045900001602C4A106800F00F00072805D210684F
:1045A00020F00F0040F0070010602749086840F035
:1045B00001000860254B002018600B68DFF890C0F0
:1045C00003EA0C030B60136803F00F03072B05D9F4
:1045D000136823F00F0343F0070313601D4A1060B4
:1045E000121D1060121D10601C4B1B4A1A601B1D0F
:1045F0001B4A1A601B1D1B4A1A601B1D18601B1DDD
:104600001A601B1D18601B1D1A601A1D10600A68B5
:1046100022F480220A6014490860144800686FF38D
:104620000F00B0F1005F02D211490120086043F28F
:10463000D2001049086048030F4908607047000025
:1046400088ED00E000200052004402581044025857
:104650007FEDF6EA1844025800020202284402588C
:104660000000FF0180020101604402580010005C5C
:10467000088100510040005208ED00E070B5114C77
:104680000025114EA068FEF7F3FF05E06D1CB54252
:1046900002D901F0FFF804E0A068FEF7E3FF20284C
:1046A000F4D1002506E06D1CB54203D9BDE8704089
:1046B00001F0F0B803490122A068FFF751FA002881
:1046C000F1D170BD00000024FFFF01004DF8044D42
:1046D000416E00291DD002689168C1F34261926861
:1046E000520F104B13F802C04FEA0C1403F1080CE0
:1046F0001CF80220B4FBF2F2A0F86A205A5C1CF805
:1047000001101201B2FBF1F1A0F868105DF8044B42
:1047100070470121A0F86A10A0F868105DF8044BFA
:1047200070470000E458000890F8281011F0010FBD
:1047300006D001684A68C36A22F400321A434A600C
:1047400090F8281011F0020F06D001684A68036B38
:1047500022F480321A434A6090F8281011F0040FB6
:1047600006D001684A68436B22F480221A434A60EB
:1047700090F8281011F0080F06D001684A68836B82
:1047800022F400421A434A6090F8281011F0100FEA
:1047900006D001688A68C36B22F480521A438A608B
:1047A00090F8281011F0200F06D001688A68036C79
:1047B00022F400521A438A6090F8281011F0400F3A
:1047C00011D001684A68436C22F480121A434A608F
:1047D000416CB1F5801F06D101684A68836C22F4F0
:1047E000C0021A434A6090F8281011F0800F06D0DA
:1047F00001684A68C06C22F4002210434860704788
:104800002DE9F84304460025C4F89050FDF716F84A
:104810008046206800686FF07E474FF0200610F059
:10482000080F17D00022434631042046009700F0BD
:104830000DFE78B1206850E8001F21F0800140E8AB
:104840000012002AF6D1C4F8886084F8845003204E
:10485000BDE8F8832068006810F0040F22D0002221
:1048600043464FF480012046009700F0EFFDC8B1A9
:10487000206850E8001F21F4907140E80012002ADF
:10488000F6D12068083050E8001F21F0010140E80F
:104890000012002AF5D1C4F88C6084F884500320FB
:1048A000BDE8F883C4F88860C4F88C60E5662567C5
:1048B00084F884500020BDE8F88310B5806B002197
:1048C000A0F85E10A0F85610FEF7CBFE10BD0168F0
:1048D00051E8002F22F4907241E80023002BF6D11A
:1048E0000168083151E8002F22F0010222F08052C5
:1048F00041E80023002BF3D1C16E012908D10168E2
:1049000051E8002F22F0100241E80023002BF6D1DD
:104910002021C0F88C100021C1664167704710B596
:10492000016851E8002F22F0400241E80023002BEB
:10493000F6D12021C0F8881000218167FFF7CFF958
:1049400010BD10B5B0F86020D0F88C300168222B73
:1049500004D0886940F00800886110BD496A836D01
:1049600011401980816D891C8165B0F85E10491E67
:10497000A0F85E10B0F85E100029EED1016851E891
:10498000002F22F4907241E80023002BF6D1016839
:10499000083151E8002F22F0010241E80023002BEA
:1049A000F5D12021C0F88C104FF0000CC0F874C075
:1049B000C0F870C00168A1F1B042B2F540620CD0FD
:1049C000496811F4000F08D0016851E8002F22F067
:1049D000806241E80023002BF6D1C16E012902D08C
:1049E000FFF7E8F810BDC0F86CC0016851E8002F6F
:1049F00022F0100241E80023002BF6D10168CA69B9
:104A000012F0100F01D010220A62B0F85C10FEF70D
:104A1000D8FD10BD2DE9F05F0446B4F86070206841
:104A2000C569D0F800908668D4F88C10222905D08A
:104A3000816941F008018161BDE8F09FB4F86880A8
:104A40004FF0000A4FF0010B7DE02068406AA16D35
:104A500038400880A06D801CA065B4F85E00401E40
:104A6000A4F85E002068C56915F0070F33D015F073
:104A7000010F0AD019F4807F07D0C0F820B0D4F815
:104A8000900040F00100C4F8900015F0020F0BD028
:104A900016F0010F08D0216802200862D4F89000B7
:104AA00040F00400C4F8900015F0040F0BD016F08D
:104AB000010F08D0216804200862D4F8900040F06B
:104AC0000200C4F89000D4F8900020B12046FEF710
:104AD000C8FDC4F890A0B4F85E00A0BB206850E800
:104AE000001F21F4807140E80012002AF6D12068EE
:104AF000083050E8001F21F0010121F0805140E80A
:104B00000012002AF3D12020C4F88C00C4F874A04D
:104B1000C4F870A02068A0F1B041B1F540610CD09C
:104B2000406810F4000F08D0206850E8001F21F002
:104B3000806140E80012002AF6D1E06E01282AD0F8
:104B40002046FFF737F8B8F1000F03D015F0200F1B
:104B50007FF47BAFB4F85E0000283FF46DAFB4F88B
:104B6000681081427FF668AF2068083050E8001F67
:104B700021F0805140E80012002AF5D11248606708
:104B8000206850E8001F41F0200140E80012002A90
:104B9000F6D1BDE8F09FC4F86CA0206850E8001F73
:104BA00021F0100140E80012002AF6D12068C16906
:104BB00011F0100F01D010210162B4F85C102046F2
:104BC000FEF7FFFCBFE700004349000810B5B0F84E
:104BD0006020D0F88C300168222B04D0886940F026
:104BE0000800886110BD496A1140826D1170816DA5
:104BF000491C8165B0F85E10491EA0F85E10B0F83F
:104C00005E100029EED1016851E8002F22F4907265
:104C100041E80023002BF6D10168083151E8002F4C
:104C200022F0010241E80023002BF5D12021C0F839
:104C30008C104FF0000CC0F874C0C0F870C0016850
:104C4000A1F1B042B2F540620CD0496811F4000FF6
:104C500008D0016851E8002F22F0806241E800236B
:104C6000002BF6D1C16E012902D0FEF7A3FF10BDC3
:104C7000C0F86CC0016851E8002F22F0100241E832
:104C80000023002BF6D10168CA6912F0100F01D081
:104C900010220A62B0F85C10FEF793FC10BD000011
:104CA0002DE9F05F0446B4F860702068C569D0F85B
:104CB00000908668D4F88C10222905D0816941F0D3
:104CC00008018161BDE8F09FB4F868804FF0000AE8
:104CD0004FF0010B7DE02068406AA16D38400870FC
:104CE000A06D401CA065B4F85E00401EA4F85E00F4
:104CF0002068C56915F0070F33D015F0010F0AD0F1
:104D000019F4807F07D0C0F820B0D4F8900040F0AC
:104D10000100C4F8900015F0020F0BD016F0010F3F
:104D200008D0216802200862D4F8900040F0040006
:104D3000C4F8900015F0040F0BD016F0010F08D046
:104D4000216804200862D4F8900040F00200C4F802
:104D50009000D4F8900020B12046FEF782FCC4F801
:104D600090A0B4F85E00A0BB206850E8001F21F4BA
:104D7000807140E80012002AF6D12068083050E81F
:104D8000001F21F0010121F0805140E80012002AAB
:104D9000F3D12020C4F88C00C4F874A0C4F870A02B
:104DA0002068A0F1B041B1F540610CD0406810F42A
:104DB000000F08D0206850E8001F21F0806140E813
:104DC0000012002AF6D1E06E01282AD02046FEF714
:104DD000F1FEB8F1000F03D015F0200F7FF47BAF88
:104DE000B4F85E0000283FF46DAFB4F8681081425B
:104DF0007FF668AF2068083050E8001F21F080512E
:104E000040E80012002AF5D112486067206850E897
:104E1000001F41F0200140E80012002AF6D1BDE851
:104E2000F09FC4F86CA0206850E8001F21F010012A
:104E300040E80012002AF6D12068C16911F0100F75
:104E400001D010210162B4F85C102046FEF7B9FBD6
:104E5000BFE70000CD4B00082DE9F04387B00446C2
:104E60000025F64B20682269A168D4F81CC01143C4
:104E7000626942EA0C0211430268DFF8C4C302EA25
:104E80000C021143016020684168E26821F440513E
:104E900011434160A0692168994201D0226A104300
:104EA0008A6822F4306222F06E42104388602068E3
:104EB000C16A626A21F00F011143C1622268E148B0
:104EC000A2F18041B1F588312FD0A2F18041B1F536
:104ED000884148D0A2F18041B1F590415BD0A2F168
:104EE0008041B1F5984170D0A2F18041B1F5A04167
:104EF0006AD0A2F18041B1F58A3172D0A2F180412D
:104F0000B1F5F0416ED0A2F18041B1F5F8416AD01F
:104F10009A4269D1001D006800F0070006286ED291
:104F2000DFE800F0D6D8DADCDEE0006800F0380018
:104F3000182812D005DC50B108280AD0102804D156
:104F400009E020280BD028280BD08021CFE00121B8
:104F5000CDE00421CBE00821C9E01021C7E02021E9
:104F6000C5E04021C3E0006800F00700062810D229
:104F7000DFE800F0030507090B0D0021B7E004216D
:104F8000B5E00821B3E01021B1E02021AFE04021DD
:104F9000ADE08021ABE0006800F00700062810D2E9
:104FA000DFE800F0030507090B0D00219FE0042155
:104FB0009DE008219BE0102199E0202197E040210D
:104FC00095E0802193E000E01CE0006800F007001D
:104FD000062815D2DFE800F003090B0D0F110021A0
:104FE00085E027E044E05BE080E004217FE00821E9
:104FF0007DE010217BE0202179E0402177E073E023
:10500000802174E0006800F00700062810D2DFE875
:1050100000F0030507090B0D002168E0042166E09C
:10502000082164E0102162E0202160E040215EE080
:1050300080215CE0006800F03800182812D005DC00
:1050400050B108280AD0102804D109E020280BD03C
:1050500028280BD080214AE0012148E0042146E0C5
:10506000082144E0102142E0202140E040213EE0C0
:10507000006800F00700062810D2DFE800F0030502
:1050800007090B0D002132E0042130E008212EE059
:1050900010212CE020212AE0402128E0802126E078
:1050A000006800F00700062810D2DFE800F00305D2
:1050B00007090B0D00211AE0042118E0082116E071
:1050C000102114E0202112E0402110E080210EE0A8
:1050D00002210CE004210AE0082108E0102106E08A
:1050E000202104E0402102E0802100E08021564898
:1050F000564E0027DFF858919A424FEA201C57D1AC
:1051000010292AD006DC02291AD004291BD008292C
:1051100004D11DE020292BD040292BD000200125CF
:10512000F0B3616A36F81120B0FBF2F1666806EB65
:1051300046038B4202D8B1EB063F1ED90125E1E0C0
:10514000FCF780FCECE704A8FCF78EFC0598E7E789
:1051500001A8FCF771FD0298E2E7D9F8001011F000
:10516000200FDDD0D9F80010C1F3C101C840D7E746
:105170006046D5E74FF40040D2E700231946FBF71D
:10518000A9F80902020241EA1061700810183246BB
:1051900079410023FBF79EF82E4AA0F5407100E00C
:1051A0004BE0914202D82168C860ABE00125A9E03C
:1051B000E2694FF6EF78B2F5004F08D008297DD0AC
:1051C00061DC71B301297ED0042962D17EE0082917
:1051D00042D005DC31B3012927D0042906D127E0CC
:1051E00010293ED0202947D0402947D00020012552
:1051F00018B3616A36F81110B0FBF1F04100606835
:1052000001EB5001B1FBF0F0A0F11001414538D89D
:105210004FF6F0710140C0F3420008432168C860B6
:1052200070E04DE0FDF7C6FCE2E7FDF7D7FCDFE7F5
:1052300004A8FCF719FC0598DAE75CE0000C0058BC
:10524000F369FFCF544402580090D003CC580008B3
:1052500000440258FFFC0F0001A8FCF7EDFC029887
:10526000C6E7D9F8001011F0200FC1D0D9F800100E
:10527000C1F3C101C840BBE76046B9E74FF4004045
:10528000B6E701253EE010292AD0202934D0402954
:1052900034D00020012570B3616A36F81110B0FBDC
:1052A000F1F1606801EB5001B1FBF0F0A0F11001E9
:1052B000414526D8216880B2C86023E00BE002E0B7
:1052C000FDF778FCE7E7FDF789FCE4E704A8FCF7C5
:1052D000CBFB0598DFE701A8FCF7AEFC0298DAE704
:1052E000D9F8001011F0200FD5D0D9F80010C1F373
:1052F000C101C840CFE705E06046CCE74FF400406D
:10530000C9E701250120A4F86A00A4F868006767CE
:10531000A76707B02846BDE8F08300004DF8044DAC
:105320008165A0F85C20A0F85E2000244467FF237C
:105330008168B1F5805F1CD04FF07F0C19B3B1F1DB
:10534000805F28D0A0F86040C0F890402221C0F8CB
:105350008C100168083151E8003F43F0010341E837
:10536000003CBCF1000FF4D1416EB1F1005F1BD0E5
:105370003FE0016911B1A0F86030E5E740F2FF11AC
:10538000A0F86010E0E7016911B1A0F860C0DBE7A8
:10539000A0F86030D8E7016919B13F21A0F860108A
:1053A000D2E7A0F860C0CFE7B0F86810914220D8EB
:1053B0008168B1F5805F01D10169B9B11F494167C9
:1053C000016941B1016851E8002F42F4807241E85F
:1053D0000023002BF6D10168083151E8002F42F07C
:1053E000805241E80023002BF5D122E014494167A7
:1053F000E6E78168B1F5805F01D1016969B11149C2
:105400004167016961B1016851E8002F42F490726F
:1054100041E80023002BF6D10BE00B494167F0E790
:10542000016851E8002F42F0200241E80023002BE0
:10543000F6D15DF8044B002070470000A14C000835
:10544000154A0008CD4B0008434900082DE9F047F4
:1054500004460E4617469846089D2068C06936EAFD
:10546000000024D00020B84241D14FF00009B5F12E
:10547000FF3F34D0FCF7E2F9A0EB0800A84218D8AF
:10548000BDB12068016811F0040F28D0C16911F086
:10549000080F11D02068082505622046FFF717FA8B
:1054A000C4F8905084F884900120BDE8F087012072
:1054B000D9E70320BDE8F087C06910F4006F0ED073
:1054C00021684FF4006008622046FFF700FA2020B0
:1054D000C4F8900084F884900320BDE8F087206829
:1054E000C06936EA000005D00020B842BFD00020D5
:1054F000BDE8F0870120F8E7FEE700002DE9F0475E
:105500002E4E00259A4691468846044602212A4698
:105510003046FCF786F9002230460421FCF781F979
:10552000200601D5012200E0002230460821FCF7C8
:1055300078F9012230460421FCF773F960066D1CEE
:10554000040EEDB2082DE6D3002230460421FCF70C
:1055500068F90024374622E019F80460002500228B
:1055600038460421FCF75DF9300601D5012200E040
:10557000002238460821FCF754F90122384604215C
:10558000FCF74FF970066D1C060EEDB2082DE6D340
:10559000002238460421FCF744F9641CE4B2444577
:1055A000DAD3BAF1010F01D1FEF7F0FC3846BDE8BD
:1055B000F04701220221FCF734B900000000025834
:1055C00038B510240A460023009344EA12218DF8CE
:1055D00002208DF8011040B101280AD0022816D00F
:1055E000032813D10C4A012306E00B4A0123D21EE3
:1055F00002E0094A0123921E01210020FFF77EFFED
:1056000001236A4603210620FFF778FF38BD024ACE
:105610000123521EF0E700001800002400EE101ACB
:105620009FED181B194AB8EE400B10B520EE010B88
:10563000BCEEC00B10EE101A51704FEA112313701C
:1056400098B1012815D0022817D0032819D10023BA
:10565000D21E01210020FFF751FF00230B4A022137
:10566000BDE810400520FFF749BF084A0023921FFC
:10567000EFE7064A0023521FEBE7044A0023121FFC
:10568000E7E710BD1CD0D2156CC146401B000024BA
:1056900000EE101A9FED1D1B38B5B8EE400B00212F
:1056A000009120EE010BBCEEC00B10EE101A8DF82D
:1056B00003104FEA11228DF802204FEA11438DF8B2
:1056C00001304FEA11648DF8004040B101280AD042
:1056D000022816D0032813D10E4A012306E00D4AF2
:1056E0000123D21E02E00B4A0123921E0121002059
:1056F000FFF704FF04216A4601230846FFF7FEFE78
:1057000038BD044A0123521EF0E7000095D626E872
:105710000B2E21401800002402E008C8121F08C107
:10572000002AFAD170477047002001E001C1121F22
:10573000002AFBD1704700EB40008000401EFDD2E4
:105740007047000010B504460420FDF7F9FE01483B
:10575000046010BD2000002470B5002405464FF4FD
:105760007A7603E0304600F005F8641CAC42F9D3C9
:1057700070BD00000B49002270B54FF0E0240968AD
:1057800065694843A369A1699942FCD002D2A3EBA1
:10579000010302E0A5EB010633441A440B468242A2
:1057A000F1D370BD200000240024FCF755F8FEF76B
:1057B0008FFEFEF728FDFEF76FFCFEF7EDFCFEF70F
:1057C0006BFC2E4D012280212846FCF72AF8C820C8
:1057D000FBF7C4FD002228468021FCF722F8C820F0
:1057E000FBF7BCFD641C032CECD34FF4F070FFF707
:1057F000A9FF6420FFF7B0FFFAF7B3FE01210846C6
:10580000FAF750FE02210846FAF74CFE032108463B
:10581000FAF748FE04210846FAF744FEFEF7D2FBE9
:1058200000231A4619461846FAF7F4FD144915489C
:105830000B460246FAF7D8FD1348038942881946F9
:105840001046FAF7BBFD114D0026114C288801289F
:105850000FD12178FAF726FE21780220FAF722FEEE
:1058600021780320FAF71EFE21780420FAF71AFEA9
:105870002E806420FBF772FDE8E700000008025864
:1058800080841E00C00E1602240000240C00002498
:105890000E00002408490A2310B58C1E0222A068BD
:1058A000FEF7BAF9A0680068C169C9434906FBD48C
:1058B0000020A08010BD0000020000243F065B4FC6
:1058C000666D7D077F6F777C395E7971010002001C
:1058D0000400060008000A000C0010002000400030
:1058E0008000000101010103070100000804020417
:1058F0000801010100000000010203040102030489
:105900000607080924590008000000244800000088
:10591000185700086C59000848000024B017000010
:1059200028570008000045520000000064070024CA
:105930000000000000000000001020408020000057
:1059400000D000000000000001007400740074002A
:10595000230000009A99993E010000001000000009
:0C596000000000000090D0030090D00375
:040000050800029954
:00000001FF
